{
	"contracts/project/Auction.sol": {
		"TokenAuction": {
			"abi": [
				{
					"inputs": [
						{
							"internalType": "string",
							"name": "_name",
							"type": "string"
						},
						{
							"internalType": "string",
							"name": "_description",
							"type": "string"
						},
						{
							"internalType": "address",
							"name": "_tokenAddress",
							"type": "address"
						},
						{
							"internalType": "uint256",
							"name": "startAt",
							"type": "uint256"
						},
						{
							"internalType": "uint256",
							"name": "endAt",
							"type": "uint256"
						},
						{
							"internalType": "uint256",
							"name": "_increment",
							"type": "uint256"
						},
						{
							"internalType": "address",
							"name": "_owner",
							"type": "address"
						}
					],
					"stateMutability": "nonpayable",
					"type": "constructor"
				},
				{
					"anonymous": false,
					"inputs": [],
					"name": "AuctionCanceled",
					"type": "event"
				},
				{
					"anonymous": false,
					"inputs": [
						{
							"indexed": false,
							"internalType": "address",
							"name": "winner",
							"type": "address"
						},
						{
							"indexed": false,
							"internalType": "uint256",
							"name": "amount",
							"type": "uint256"
						}
					],
					"name": "AuctionFinalized",
					"type": "event"
				},
				{
					"anonymous": false,
					"inputs": [
						{
							"indexed": false,
							"internalType": "address",
							"name": "bidder",
							"type": "address"
						},
						{
							"indexed": false,
							"internalType": "uint256",
							"name": "amount",
							"type": "uint256"
						}
					],
					"name": "BidPlaced",
					"type": "event"
				},
				{
					"inputs": [],
					"name": "cancelAuction",
					"outputs": [],
					"stateMutability": "nonpayable",
					"type": "function"
				},
				{
					"inputs": [],
					"name": "canceled",
					"outputs": [
						{
							"internalType": "bool",
							"name": "",
							"type": "bool"
						}
					],
					"stateMutability": "view",
					"type": "function"
				},
				{
					"inputs": [],
					"name": "description",
					"outputs": [
						{
							"internalType": "string",
							"name": "",
							"type": "string"
						}
					],
					"stateMutability": "view",
					"type": "function"
				},
				{
					"inputs": [],
					"name": "end",
					"outputs": [
						{
							"internalType": "uint256",
							"name": "",
							"type": "uint256"
						}
					],
					"stateMutability": "view",
					"type": "function"
				},
				{
					"inputs": [],
					"name": "ended",
					"outputs": [
						{
							"internalType": "bool",
							"name": "",
							"type": "bool"
						}
					],
					"stateMutability": "view",
					"type": "function"
				},
				{
					"inputs": [],
					"name": "finalizeAuction",
					"outputs": [],
					"stateMutability": "nonpayable",
					"type": "function"
				},
				{
					"inputs": [],
					"name": "getAuctionInfo",
					"outputs": [
						{
							"internalType": "string",
							"name": "_name",
							"type": "string"
						},
						{
							"internalType": "string",
							"name": "_description",
							"type": "string"
						},
						{
							"internalType": "address",
							"name": "_owner",
							"type": "address"
						},
						{
							"internalType": "uint256",
							"name": "_start",
							"type": "uint256"
						},
						{
							"internalType": "uint256",
							"name": "_end",
							"type": "uint256"
						},
						{
							"internalType": "uint256",
							"name": "_highestBid",
							"type": "uint256"
						},
						{
							"internalType": "address",
							"name": "_highestBidder",
							"type": "address"
						},
						{
							"internalType": "bool",
							"name": "_isActive",
							"type": "bool"
						},
						{
							"internalType": "bool",
							"name": "_ended",
							"type": "bool"
						},
						{
							"internalType": "bool",
							"name": "_canceled",
							"type": "bool"
						}
					],
					"stateMutability": "view",
					"type": "function"
				},
				{
					"inputs": [
						{
							"internalType": "address",
							"name": "bidder",
							"type": "address"
						}
					],
					"name": "getBid",
					"outputs": [
						{
							"internalType": "uint256",
							"name": "",
							"type": "uint256"
						}
					],
					"stateMutability": "view",
					"type": "function"
				},
				{
					"inputs": [],
					"name": "getTokenBalance",
					"outputs": [
						{
							"internalType": "uint256",
							"name": "",
							"type": "uint256"
						}
					],
					"stateMutability": "view",
					"type": "function"
				},
				{
					"inputs": [],
					"name": "highestBid",
					"outputs": [
						{
							"internalType": "uint256",
							"name": "",
							"type": "uint256"
						}
					],
					"stateMutability": "view",
					"type": "function"
				},
				{
					"inputs": [],
					"name": "highestBidder",
					"outputs": [
						{
							"internalType": "address",
							"name": "",
							"type": "address"
						}
					],
					"stateMutability": "view",
					"type": "function"
				},
				{
					"inputs": [],
					"name": "highestBindingBid",
					"outputs": [
						{
							"internalType": "uint256",
							"name": "",
							"type": "uint256"
						}
					],
					"stateMutability": "view",
					"type": "function"
				},
				{
					"inputs": [],
					"name": "increment",
					"outputs": [
						{
							"internalType": "uint256",
							"name": "",
							"type": "uint256"
						}
					],
					"stateMutability": "view",
					"type": "function"
				},
				{
					"inputs": [],
					"name": "isActive",
					"outputs": [
						{
							"internalType": "bool",
							"name": "",
							"type": "bool"
						}
					],
					"stateMutability": "view",
					"type": "function"
				},
				{
					"inputs": [],
					"name": "name",
					"outputs": [
						{
							"internalType": "string",
							"name": "",
							"type": "string"
						}
					],
					"stateMutability": "view",
					"type": "function"
				},
				{
					"inputs": [],
					"name": "owner",
					"outputs": [
						{
							"internalType": "address payable",
							"name": "",
							"type": "address"
						}
					],
					"stateMutability": "view",
					"type": "function"
				},
				{
					"inputs": [
						{
							"internalType": "uint256",
							"name": "bidAmount",
							"type": "uint256"
						}
					],
					"name": "placeBid",
					"outputs": [],
					"stateMutability": "nonpayable",
					"type": "function"
				},
				{
					"inputs": [],
					"name": "start",
					"outputs": [
						{
							"internalType": "uint256",
							"name": "",
							"type": "uint256"
						}
					],
					"stateMutability": "view",
					"type": "function"
				},
				{
					"inputs": [],
					"name": "token",
					"outputs": [
						{
							"internalType": "contract Crypto",
							"name": "",
							"type": "address"
						}
					],
					"stateMutability": "view",
					"type": "function"
				},
				{
					"inputs": [],
					"name": "withdraw",
					"outputs": [],
					"stateMutability": "nonpayable",
					"type": "function"
				}
			],
			"devdoc": {
				"kind": "dev",
				"methods": {},
				"version": 1
			},
			"evm": {
				"assembly": "    /* \"contracts/project/Auction.sol\":102:6064  contract TokenAuction {... */\n  mstore(0x40, 0x80)\n    /* \"contracts/project/Auction.sol\":692:1400  constructor(... */\n  callvalue\n  dup1\n  iszero\n  tag_1\n  jumpi\n  revert(0x00, 0x00)\ntag_1:\n  pop\n  mload(0x40)\n  sub(codesize, bytecodeSize)\n  dup1\n  bytecodeSize\n  dup4\n  codecopy\n  dup2\n  dup2\n  add\n  0x40\n  mstore\n  dup2\n  add\n  swap1\n  tag_2\n  swap2\n  swap1\n  tag_3\n  jump\t// in\ntag_2:\n    /* \"contracts/project/Auction.sol\":936:941  endAt */\n  dup3\n    /* \"contracts/project/Auction.sol\":926:933  startAt */\n  dup5\n    /* \"contracts/project/Auction.sol\":926:941  startAt < endAt */\n  lt\n    /* \"contracts/project/Auction.sol\":918:959  require(startAt < endAt, \"Invalid times\") */\n  tag_6\n  jumpi\n  mload(0x40)\n  0x08c379a000000000000000000000000000000000000000000000000000000000\n  dup2\n  mstore\n  0x04\n  add\n  tag_7\n  swap1\n  tag_8\n  jump\t// in\ntag_7:\n  mload(0x40)\n  dup1\n  swap2\n  sub\n  swap1\n  revert\ntag_6:\n    /* \"contracts/project/Auction.sol\":1002:1003  0 */\n  0x00\n    /* \"contracts/project/Auction.sol\":977:1004  _tokenAddress != address(0) */\n  0xffffffffffffffffffffffffffffffffffffffff\n  and\n    /* \"contracts/project/Auction.sol\":977:990  _tokenAddress */\n  dup6\n    /* \"contracts/project/Auction.sol\":977:1004  _tokenAddress != address(0) */\n  0xffffffffffffffffffffffffffffffffffffffff\n  and\n  sub\n    /* \"contracts/project/Auction.sol\":969:1030  require(_tokenAddress != address(0), \"Invalid token address\") */\n  tag_9\n  jumpi\n  mload(0x40)\n  0x08c379a000000000000000000000000000000000000000000000000000000000\n  dup2\n  mstore\n  0x04\n  add\n  tag_10\n  swap1\n  tag_11\n  jump\t// in\ntag_10:\n  mload(0x40)\n  dup1\n  swap2\n  sub\n  swap1\n  revert\ntag_9:\n    /* \"contracts/project/Auction.sol\":1070:1071  0 */\n  0x00\n    /* \"contracts/project/Auction.sol\":1054:1059  _name */\n  dup8\n    /* \"contracts/project/Auction.sol\":1048:1067  bytes(_name).length */\n  mload\n    /* \"contracts/project/Auction.sol\":1048:1071  bytes(_name).length > 0 */\n  gt\n    /* \"contracts/project/Auction.sol\":1040:1096  require(bytes(_name).length > 0, \"Name cannot be empty\") */\n  tag_12\n  jumpi\n  mload(0x40)\n  0x08c379a000000000000000000000000000000000000000000000000000000000\n  dup2\n  mstore\n  0x04\n  add\n  tag_13\n  swap1\n  tag_14\n  jump\t// in\ntag_13:\n  mload(0x40)\n  dup1\n  swap2\n  sub\n  swap1\n  revert\ntag_12:\n    /* \"contracts/project/Auction.sol\":1143:1144  0 */\n  0x00\n    /* \"contracts/project/Auction.sol\":1120:1132  _description */\n  dup7\n    /* \"contracts/project/Auction.sol\":1114:1140  bytes(_description).length */\n  mload\n    /* \"contracts/project/Auction.sol\":1114:1144  bytes(_description).length > 0 */\n  gt\n    /* \"contracts/project/Auction.sol\":1106:1176  require(bytes(_description).length > 0, \"Description cannot be empty\") */\n  tag_15\n  jumpi\n  mload(0x40)\n  0x08c379a000000000000000000000000000000000000000000000000000000000\n  dup2\n  mstore\n  0x04\n  add\n  tag_16\n  swap1\n  tag_17\n  jump\t// in\ntag_16:\n  mload(0x40)\n  dup1\n  swap2\n  sub\n  swap1\n  revert\ntag_15:\n    /* \"contracts/project/Auction.sol\":1202:1207  _name */\n  dup7\n    /* \"contracts/project/Auction.sol\":1195:1199  name */\n  0x01\n    /* \"contracts/project/Auction.sol\":1195:1207  name = _name */\n  swap1\n  dup2\n  tag_18\n  swap2\n  swap1\n  tag_19\n  jump\t// in\ntag_18:\n  pop\n    /* \"contracts/project/Auction.sol\":1231:1243  _description */\n  dup6\n    /* \"contracts/project/Auction.sol\":1217:1228  description */\n  0x02\n    /* \"contracts/project/Auction.sol\":1217:1243  description = _description */\n  swap1\n  dup2\n  tag_20\n  swap2\n  swap1\n  tag_19\n  jump\t// in\ntag_20:\n  pop\n    /* \"contracts/project/Auction.sol\":1269:1275  _owner */\n  dup1\n    /* \"contracts/project/Auction.sol\":1253:1258  owner */\n  0x00\n  0x00\n    /* \"contracts/project/Auction.sol\":1253:1276  owner = payable(_owner) */\n  0x0100\n  exp\n  dup2\n  sload\n  dup2\n  0xffffffffffffffffffffffffffffffffffffffff\n  mul\n  not\n  and\n  swap1\n  dup4\n  0xffffffffffffffffffffffffffffffffffffffff\n  and\n  mul\n  or\n  swap1\n  sstore\n  pop\n    /* \"contracts/project/Auction.sol\":1301:1314  _tokenAddress */\n  dup5\n    /* \"contracts/project/Auction.sol\":1286:1291  token */\n  0x05\n  0x02\n    /* \"contracts/project/Auction.sol\":1286:1315  token = Crypto(_tokenAddress) */\n  0x0100\n  exp\n  dup2\n  sload\n  dup2\n  0xffffffffffffffffffffffffffffffffffffffff\n  mul\n  not\n  and\n  swap1\n  dup4\n  0xffffffffffffffffffffffffffffffffffffffff\n  and\n  mul\n  or\n  swap1\n  sstore\n  pop\n    /* \"contracts/project/Auction.sol\":1333:1340  startAt */\n  dup4\n    /* \"contracts/project/Auction.sol\":1325:1330  start */\n  0x03\n    /* \"contracts/project/Auction.sol\":1325:1340  start = startAt */\n  dup2\n  swap1\n  sstore\n  pop\n    /* \"contracts/project/Auction.sol\":1356:1361  endAt */\n  dup3\n    /* \"contracts/project/Auction.sol\":1350:1353  end */\n  0x04\n    /* \"contracts/project/Auction.sol\":1350:1361  end = endAt */\n  dup2\n  swap1\n  sstore\n  pop\n    /* \"contracts/project/Auction.sol\":1383:1393  _increment */\n  dup2\n    /* \"contracts/project/Auction.sol\":1371:1380  increment */\n  0x0a\n    /* \"contracts/project/Auction.sol\":1371:1393  increment = _increment */\n  dup2\n  swap1\n  sstore\n  pop\n    /* \"contracts/project/Auction.sol\":692:1400  constructor(... */\n  pop\n  pop\n  pop\n  pop\n  pop\n  pop\n  pop\n    /* \"contracts/project/Auction.sol\":102:6064  contract TokenAuction {... */\n  jump(tag_21)\n    /* \"#utility.yul\":7:82   */\ntag_22:\n    /* \"#utility.yul\":40:46   */\n  0x00\n    /* \"#utility.yul\":73:75   */\n  0x40\n    /* \"#utility.yul\":67:76   */\n  mload\n    /* \"#utility.yul\":57:76   */\n  swap1\n  pop\n    /* \"#utility.yul\":7:82   */\n  swap1\n  jump\t// out\n    /* \"#utility.yul\":88:205   */\ntag_23:\n    /* \"#utility.yul\":197:198   */\n  0x00\n    /* \"#utility.yul\":194:195   */\n  0x00\n    /* \"#utility.yul\":187:199   */\n  revert\n    /* \"#utility.yul\":211:328   */\ntag_24:\n    /* \"#utility.yul\":320:321   */\n  0x00\n    /* \"#utility.yul\":317:318   */\n  0x00\n    /* \"#utility.yul\":310:322   */\n  revert\n    /* \"#utility.yul\":334:451   */\ntag_25:\n    /* \"#utility.yul\":443:444   */\n  0x00\n    /* \"#utility.yul\":440:441   */\n  0x00\n    /* \"#utility.yul\":433:445   */\n  revert\n    /* \"#utility.yul\":457:574   */\ntag_26:\n    /* \"#utility.yul\":566:567   */\n  0x00\n    /* \"#utility.yul\":563:564   */\n  0x00\n    /* \"#utility.yul\":556:568   */\n  revert\n    /* \"#utility.yul\":580:682   */\ntag_27:\n    /* \"#utility.yul\":621:627   */\n  0x00\n    /* \"#utility.yul\":672:674   */\n  0x1f\n    /* \"#utility.yul\":668:675   */\n  not\n    /* \"#utility.yul\":663:665   */\n  0x1f\n    /* \"#utility.yul\":656:661   */\n  dup4\n    /* \"#utility.yul\":652:666   */\n  add\n    /* \"#utility.yul\":648:676   */\n  and\n    /* \"#utility.yul\":638:676   */\n  swap1\n  pop\n    /* \"#utility.yul\":580:682   */\n  swap2\n  swap1\n  pop\n  jump\t// out\n    /* \"#utility.yul\":688:868   */\ntag_28:\n    /* \"#utility.yul\":736:813   */\n  0x4e487b7100000000000000000000000000000000000000000000000000000000\n    /* \"#utility.yul\":733:734   */\n  0x00\n    /* \"#utility.yul\":726:814   */\n  mstore\n    /* \"#utility.yul\":833:837   */\n  0x41\n    /* \"#utility.yul\":830:831   */\n  0x04\n    /* \"#utility.yul\":823:838   */\n  mstore\n    /* \"#utility.yul\":857:861   */\n  0x24\n    /* \"#utility.yul\":854:855   */\n  0x00\n    /* \"#utility.yul\":847:862   */\n  revert\n    /* \"#utility.yul\":874:1155   */\ntag_29:\n    /* \"#utility.yul\":957:984   */\n  tag_78\n    /* \"#utility.yul\":979:983   */\n  dup3\n    /* \"#utility.yul\":957:984   */\n  tag_27\n  jump\t// in\ntag_78:\n    /* \"#utility.yul\":949:955   */\n  dup2\n    /* \"#utility.yul\":945:985   */\n  add\n    /* \"#utility.yul\":1087:1093   */\n  dup2\n    /* \"#utility.yul\":1075:1085   */\n  dup2\n    /* \"#utility.yul\":1072:1094   */\n  lt\n    /* \"#utility.yul\":1051:1069   */\n  0xffffffffffffffff\n    /* \"#utility.yul\":1039:1049   */\n  dup3\n    /* \"#utility.yul\":1036:1070   */\n  gt\n    /* \"#utility.yul\":1033:1095   */\n  or\n    /* \"#utility.yul\":1030:1118   */\n  iszero\n  tag_79\n  jumpi\n    /* \"#utility.yul\":1098:1116   */\n  tag_80\n  tag_28\n  jump\t// in\ntag_80:\n    /* \"#utility.yul\":1030:1118   */\ntag_79:\n    /* \"#utility.yul\":1138:1148   */\n  dup1\n    /* \"#utility.yul\":1134:1136   */\n  0x40\n    /* \"#utility.yul\":1127:1149   */\n  mstore\n    /* \"#utility.yul\":917:1155   */\n  pop\n    /* \"#utility.yul\":874:1155   */\n  pop\n  pop\n  jump\t// out\n    /* \"#utility.yul\":1161:1290   */\ntag_30:\n    /* \"#utility.yul\":1195:1201   */\n  0x00\n    /* \"#utility.yul\":1222:1242   */\n  tag_82\n  tag_22\n  jump\t// in\ntag_82:\n    /* \"#utility.yul\":1212:1242   */\n  swap1\n  pop\n    /* \"#utility.yul\":1251:1284   */\n  tag_83\n    /* \"#utility.yul\":1279:1283   */\n  dup3\n    /* \"#utility.yul\":1271:1277   */\n  dup3\n    /* \"#utility.yul\":1251:1284   */\n  tag_29\n  jump\t// in\ntag_83:\n    /* \"#utility.yul\":1161:1290   */\n  swap2\n  swap1\n  pop\n  jump\t// out\n    /* \"#utility.yul\":1296:1604   */\ntag_31:\n    /* \"#utility.yul\":1358:1362   */\n  0x00\n    /* \"#utility.yul\":1448:1466   */\n  0xffffffffffffffff\n    /* \"#utility.yul\":1440:1446   */\n  dup3\n    /* \"#utility.yul\":1437:1467   */\n  gt\n    /* \"#utility.yul\":1434:1490   */\n  iszero\n  tag_85\n  jumpi\n    /* \"#utility.yul\":1470:1488   */\n  tag_86\n  tag_28\n  jump\t// in\ntag_86:\n    /* \"#utility.yul\":1434:1490   */\ntag_85:\n    /* \"#utility.yul\":1508:1537   */\n  tag_87\n    /* \"#utility.yul\":1530:1536   */\n  dup3\n    /* \"#utility.yul\":1508:1537   */\n  tag_27\n  jump\t// in\ntag_87:\n    /* \"#utility.yul\":1500:1537   */\n  swap1\n  pop\n    /* \"#utility.yul\":1592:1596   */\n  0x20\n    /* \"#utility.yul\":1586:1590   */\n  dup2\n    /* \"#utility.yul\":1582:1597   */\n  add\n    /* \"#utility.yul\":1574:1597   */\n  swap1\n  pop\n    /* \"#utility.yul\":1296:1604   */\n  swap2\n  swap1\n  pop\n  jump\t// out\n    /* \"#utility.yul\":1610:1749   */\ntag_32:\n    /* \"#utility.yul\":1699:1705   */\n  dup3\n    /* \"#utility.yul\":1694:1697   */\n  dup2\n    /* \"#utility.yul\":1689:1692   */\n  dup4\n    /* \"#utility.yul\":1683:1706   */\n  mcopy\n    /* \"#utility.yul\":1740:1741   */\n  0x00\n    /* \"#utility.yul\":1731:1737   */\n  dup4\n    /* \"#utility.yul\":1726:1729   */\n  dup4\n    /* \"#utility.yul\":1722:1738   */\n  add\n    /* \"#utility.yul\":1715:1742   */\n  mstore\n    /* \"#utility.yul\":1610:1749   */\n  pop\n  pop\n  pop\n  jump\t// out\n    /* \"#utility.yul\":1755:2189   */\ntag_33:\n    /* \"#utility.yul\":1844:1849   */\n  0x00\n    /* \"#utility.yul\":1869:1935   */\n  tag_90\n    /* \"#utility.yul\":1885:1934   */\n  tag_91\n    /* \"#utility.yul\":1927:1933   */\n  dup5\n    /* \"#utility.yul\":1885:1934   */\n  tag_31\n  jump\t// in\ntag_91:\n    /* \"#utility.yul\":1869:1935   */\n  tag_30\n  jump\t// in\ntag_90:\n    /* \"#utility.yul\":1860:1935   */\n  swap1\n  pop\n    /* \"#utility.yul\":1958:1964   */\n  dup3\n    /* \"#utility.yul\":1951:1956   */\n  dup2\n    /* \"#utility.yul\":1944:1965   */\n  mstore\n    /* \"#utility.yul\":1996:2000   */\n  0x20\n    /* \"#utility.yul\":1989:1994   */\n  dup2\n    /* \"#utility.yul\":1985:2001   */\n  add\n    /* \"#utility.yul\":2034:2037   */\n  dup5\n    /* \"#utility.yul\":2025:2031   */\n  dup5\n    /* \"#utility.yul\":2020:2023   */\n  dup5\n    /* \"#utility.yul\":2016:2032   */\n  add\n    /* \"#utility.yul\":2013:2038   */\n  gt\n    /* \"#utility.yul\":2010:2122   */\n  iszero\n  tag_92\n  jumpi\n    /* \"#utility.yul\":2041:2120   */\n  tag_93\n  tag_26\n  jump\t// in\ntag_93:\n    /* \"#utility.yul\":2010:2122   */\ntag_92:\n    /* \"#utility.yul\":2131:2183   */\n  tag_94\n    /* \"#utility.yul\":2176:2182   */\n  dup5\n    /* \"#utility.yul\":2171:2174   */\n  dup3\n    /* \"#utility.yul\":2166:2169   */\n  dup6\n    /* \"#utility.yul\":2131:2183   */\n  tag_32\n  jump\t// in\ntag_94:\n    /* \"#utility.yul\":1850:2189   */\n  pop\n    /* \"#utility.yul\":1755:2189   */\n  swap4\n  swap3\n  pop\n  pop\n  pop\n  jump\t// out\n    /* \"#utility.yul\":2209:2564   */\ntag_34:\n    /* \"#utility.yul\":2276:2281   */\n  0x00\n    /* \"#utility.yul\":2325:2328   */\n  dup3\n    /* \"#utility.yul\":2318:2322   */\n  0x1f\n    /* \"#utility.yul\":2310:2316   */\n  dup4\n    /* \"#utility.yul\":2306:2323   */\n  add\n    /* \"#utility.yul\":2302:2329   */\n  slt\n    /* \"#utility.yul\":2292:2414   */\n  tag_96\n  jumpi\n    /* \"#utility.yul\":2333:2412   */\n  tag_97\n  tag_25\n  jump\t// in\ntag_97:\n    /* \"#utility.yul\":2292:2414   */\ntag_96:\n    /* \"#utility.yul\":2443:2449   */\n  dup2\n    /* \"#utility.yul\":2437:2450   */\n  mload\n    /* \"#utility.yul\":2468:2558   */\n  tag_98\n    /* \"#utility.yul\":2554:2557   */\n  dup5\n    /* \"#utility.yul\":2546:2552   */\n  dup3\n    /* \"#utility.yul\":2539:2543   */\n  0x20\n    /* \"#utility.yul\":2531:2537   */\n  dup7\n    /* \"#utility.yul\":2527:2544   */\n  add\n    /* \"#utility.yul\":2468:2558   */\n  tag_33\n  jump\t// in\ntag_98:\n    /* \"#utility.yul\":2459:2558   */\n  swap2\n  pop\n    /* \"#utility.yul\":2282:2564   */\n  pop\n    /* \"#utility.yul\":2209:2564   */\n  swap3\n  swap2\n  pop\n  pop\n  jump\t// out\n    /* \"#utility.yul\":2570:2696   */\ntag_35:\n    /* \"#utility.yul\":2607:2614   */\n  0x00\n    /* \"#utility.yul\":2647:2689   */\n  0xffffffffffffffffffffffffffffffffffffffff\n    /* \"#utility.yul\":2640:2645   */\n  dup3\n    /* \"#utility.yul\":2636:2690   */\n  and\n    /* \"#utility.yul\":2625:2690   */\n  swap1\n  pop\n    /* \"#utility.yul\":2570:2696   */\n  swap2\n  swap1\n  pop\n  jump\t// out\n    /* \"#utility.yul\":2702:2798   */\ntag_36:\n    /* \"#utility.yul\":2739:2746   */\n  0x00\n    /* \"#utility.yul\":2768:2792   */\n  tag_101\n    /* \"#utility.yul\":2786:2791   */\n  dup3\n    /* \"#utility.yul\":2768:2792   */\n  tag_35\n  jump\t// in\ntag_101:\n    /* \"#utility.yul\":2757:2792   */\n  swap1\n  pop\n    /* \"#utility.yul\":2702:2798   */\n  swap2\n  swap1\n  pop\n  jump\t// out\n    /* \"#utility.yul\":2804:2926   */\ntag_37:\n    /* \"#utility.yul\":2877:2901   */\n  tag_103\n    /* \"#utility.yul\":2895:2900   */\n  dup2\n    /* \"#utility.yul\":2877:2901   */\n  tag_36\n  jump\t// in\ntag_103:\n    /* \"#utility.yul\":2870:2875   */\n  dup2\n    /* \"#utility.yul\":2867:2902   */\n  eq\n    /* \"#utility.yul\":2857:2920   */\n  tag_104\n  jumpi\n    /* \"#utility.yul\":2916:2917   */\n  0x00\n    /* \"#utility.yul\":2913:2914   */\n  0x00\n    /* \"#utility.yul\":2906:2918   */\n  revert\n    /* \"#utility.yul\":2857:2920   */\ntag_104:\n    /* \"#utility.yul\":2804:2926   */\n  pop\n  jump\t// out\n    /* \"#utility.yul\":2932:3075   */\ntag_38:\n    /* \"#utility.yul\":2989:2994   */\n  0x00\n    /* \"#utility.yul\":3020:3026   */\n  dup2\n    /* \"#utility.yul\":3014:3027   */\n  mload\n    /* \"#utility.yul\":3005:3027   */\n  swap1\n  pop\n    /* \"#utility.yul\":3036:3069   */\n  tag_106\n    /* \"#utility.yul\":3063:3068   */\n  dup2\n    /* \"#utility.yul\":3036:3069   */\n  tag_37\n  jump\t// in\ntag_106:\n    /* \"#utility.yul\":2932:3075   */\n  swap3\n  swap2\n  pop\n  pop\n  jump\t// out\n    /* \"#utility.yul\":3081:3158   */\ntag_39:\n    /* \"#utility.yul\":3118:3125   */\n  0x00\n    /* \"#utility.yul\":3147:3152   */\n  dup2\n    /* \"#utility.yul\":3136:3152   */\n  swap1\n  pop\n    /* \"#utility.yul\":3081:3158   */\n  swap2\n  swap1\n  pop\n  jump\t// out\n    /* \"#utility.yul\":3164:3286   */\ntag_40:\n    /* \"#utility.yul\":3237:3261   */\n  tag_109\n    /* \"#utility.yul\":3255:3260   */\n  dup2\n    /* \"#utility.yul\":3237:3261   */\n  tag_39\n  jump\t// in\ntag_109:\n    /* \"#utility.yul\":3230:3235   */\n  dup2\n    /* \"#utility.yul\":3227:3262   */\n  eq\n    /* \"#utility.yul\":3217:3280   */\n  tag_110\n  jumpi\n    /* \"#utility.yul\":3276:3277   */\n  0x00\n    /* \"#utility.yul\":3273:3274   */\n  0x00\n    /* \"#utility.yul\":3266:3278   */\n  revert\n    /* \"#utility.yul\":3217:3280   */\ntag_110:\n    /* \"#utility.yul\":3164:3286   */\n  pop\n  jump\t// out\n    /* \"#utility.yul\":3292:3435   */\ntag_41:\n    /* \"#utility.yul\":3349:3354   */\n  0x00\n    /* \"#utility.yul\":3380:3386   */\n  dup2\n    /* \"#utility.yul\":3374:3387   */\n  mload\n    /* \"#utility.yul\":3365:3387   */\n  swap1\n  pop\n    /* \"#utility.yul\":3396:3429   */\n  tag_112\n    /* \"#utility.yul\":3423:3428   */\n  dup2\n    /* \"#utility.yul\":3396:3429   */\n  tag_40\n  jump\t// in\ntag_112:\n    /* \"#utility.yul\":3292:3435   */\n  swap3\n  swap2\n  pop\n  pop\n  jump\t// out\n    /* \"#utility.yul\":3441:5078   */\ntag_3:\n    /* \"#utility.yul\":3585:3591   */\n  0x00\n    /* \"#utility.yul\":3593:3599   */\n  0x00\n    /* \"#utility.yul\":3601:3607   */\n  0x00\n    /* \"#utility.yul\":3609:3615   */\n  0x00\n    /* \"#utility.yul\":3617:3623   */\n  0x00\n    /* \"#utility.yul\":3625:3631   */\n  0x00\n    /* \"#utility.yul\":3633:3639   */\n  0x00\n    /* \"#utility.yul\":3682:3685   */\n  0xe0\n    /* \"#utility.yul\":3670:3679   */\n  dup9\n    /* \"#utility.yul\":3661:3668   */\n  dup11\n    /* \"#utility.yul\":3657:3680   */\n  sub\n    /* \"#utility.yul\":3653:3686   */\n  slt\n    /* \"#utility.yul\":3650:3770   */\n  iszero\n  tag_114\n  jumpi\n    /* \"#utility.yul\":3689:3768   */\n  tag_115\n  tag_23\n  jump\t// in\ntag_115:\n    /* \"#utility.yul\":3650:3770   */\ntag_114:\n    /* \"#utility.yul\":3830:3831   */\n  0x00\n    /* \"#utility.yul\":3819:3828   */\n  dup9\n    /* \"#utility.yul\":3815:3832   */\n  add\n    /* \"#utility.yul\":3809:3833   */\n  mload\n    /* \"#utility.yul\":3860:3878   */\n  0xffffffffffffffff\n    /* \"#utility.yul\":3852:3858   */\n  dup2\n    /* \"#utility.yul\":3849:3879   */\n  gt\n    /* \"#utility.yul\":3846:3963   */\n  iszero\n  tag_116\n  jumpi\n    /* \"#utility.yul\":3882:3961   */\n  tag_117\n  tag_24\n  jump\t// in\ntag_117:\n    /* \"#utility.yul\":3846:3963   */\ntag_116:\n    /* \"#utility.yul\":3987:4061   */\n  tag_118\n    /* \"#utility.yul\":4053:4060   */\n  dup11\n    /* \"#utility.yul\":4044:4050   */\n  dup3\n    /* \"#utility.yul\":4033:4042   */\n  dup12\n    /* \"#utility.yul\":4029:4051   */\n  add\n    /* \"#utility.yul\":3987:4061   */\n  tag_34\n  jump\t// in\ntag_118:\n    /* \"#utility.yul\":3977:4061   */\n  swap8\n  pop\n    /* \"#utility.yul\":3780:4071   */\n  pop\n    /* \"#utility.yul\":4131:4133   */\n  0x20\n    /* \"#utility.yul\":4120:4129   */\n  dup9\n    /* \"#utility.yul\":4116:4134   */\n  add\n    /* \"#utility.yul\":4110:4135   */\n  mload\n    /* \"#utility.yul\":4162:4180   */\n  0xffffffffffffffff\n    /* \"#utility.yul\":4154:4160   */\n  dup2\n    /* \"#utility.yul\":4151:4181   */\n  gt\n    /* \"#utility.yul\":4148:4265   */\n  iszero\n  tag_119\n  jumpi\n    /* \"#utility.yul\":4184:4263   */\n  tag_120\n  tag_24\n  jump\t// in\ntag_120:\n    /* \"#utility.yul\":4148:4265   */\ntag_119:\n    /* \"#utility.yul\":4289:4363   */\n  tag_121\n    /* \"#utility.yul\":4355:4362   */\n  dup11\n    /* \"#utility.yul\":4346:4352   */\n  dup3\n    /* \"#utility.yul\":4335:4344   */\n  dup12\n    /* \"#utility.yul\":4331:4353   */\n  add\n    /* \"#utility.yul\":4289:4363   */\n  tag_34\n  jump\t// in\ntag_121:\n    /* \"#utility.yul\":4279:4363   */\n  swap7\n  pop\n    /* \"#utility.yul\":4081:4373   */\n  pop\n    /* \"#utility.yul\":4412:4414   */\n  0x40\n    /* \"#utility.yul\":4438:4502   */\n  tag_122\n    /* \"#utility.yul\":4494:4501   */\n  dup11\n    /* \"#utility.yul\":4485:4491   */\n  dup3\n    /* \"#utility.yul\":4474:4483   */\n  dup12\n    /* \"#utility.yul\":4470:4492   */\n  add\n    /* \"#utility.yul\":4438:4502   */\n  tag_38\n  jump\t// in\ntag_122:\n    /* \"#utility.yul\":4428:4502   */\n  swap6\n  pop\n    /* \"#utility.yul\":4383:4512   */\n  pop\n    /* \"#utility.yul\":4551:4553   */\n  0x60\n    /* \"#utility.yul\":4577:4641   */\n  tag_123\n    /* \"#utility.yul\":4633:4640   */\n  dup11\n    /* \"#utility.yul\":4624:4630   */\n  dup3\n    /* \"#utility.yul\":4613:4622   */\n  dup12\n    /* \"#utility.yul\":4609:4631   */\n  add\n    /* \"#utility.yul\":4577:4641   */\n  tag_41\n  jump\t// in\ntag_123:\n    /* \"#utility.yul\":4567:4641   */\n  swap5\n  pop\n    /* \"#utility.yul\":4522:4651   */\n  pop\n    /* \"#utility.yul\":4690:4693   */\n  0x80\n    /* \"#utility.yul\":4717:4781   */\n  tag_124\n    /* \"#utility.yul\":4773:4780   */\n  dup11\n    /* \"#utility.yul\":4764:4770   */\n  dup3\n    /* \"#utility.yul\":4753:4762   */\n  dup12\n    /* \"#utility.yul\":4749:4771   */\n  add\n    /* \"#utility.yul\":4717:4781   */\n  tag_41\n  jump\t// in\ntag_124:\n    /* \"#utility.yul\":4707:4781   */\n  swap4\n  pop\n    /* \"#utility.yul\":4661:4791   */\n  pop\n    /* \"#utility.yul\":4830:4833   */\n  0xa0\n    /* \"#utility.yul\":4857:4921   */\n  tag_125\n    /* \"#utility.yul\":4913:4920   */\n  dup11\n    /* \"#utility.yul\":4904:4910   */\n  dup3\n    /* \"#utility.yul\":4893:4902   */\n  dup12\n    /* \"#utility.yul\":4889:4911   */\n  add\n    /* \"#utility.yul\":4857:4921   */\n  tag_41\n  jump\t// in\ntag_125:\n    /* \"#utility.yul\":4847:4921   */\n  swap3\n  pop\n    /* \"#utility.yul\":4801:4931   */\n  pop\n    /* \"#utility.yul\":4970:4973   */\n  0xc0\n    /* \"#utility.yul\":4997:5061   */\n  tag_126\n    /* \"#utility.yul\":5053:5060   */\n  dup11\n    /* \"#utility.yul\":5044:5050   */\n  dup3\n    /* \"#utility.yul\":5033:5042   */\n  dup12\n    /* \"#utility.yul\":5029:5051   */\n  add\n    /* \"#utility.yul\":4997:5061   */\n  tag_38\n  jump\t// in\ntag_126:\n    /* \"#utility.yul\":4987:5061   */\n  swap2\n  pop\n    /* \"#utility.yul\":4941:5071   */\n  pop\n    /* \"#utility.yul\":3441:5078   */\n  swap3\n  swap6\n  swap9\n  swap2\n  swap5\n  swap8\n  pop\n  swap3\n  swap6\n  pop\n  jump\t// out\n    /* \"#utility.yul\":5084:5253   */\ntag_42:\n    /* \"#utility.yul\":5168:5179   */\n  0x00\n    /* \"#utility.yul\":5202:5208   */\n  dup3\n    /* \"#utility.yul\":5197:5200   */\n  dup3\n    /* \"#utility.yul\":5190:5209   */\n  mstore\n    /* \"#utility.yul\":5242:5246   */\n  0x20\n    /* \"#utility.yul\":5237:5240   */\n  dup3\n    /* \"#utility.yul\":5233:5247   */\n  add\n    /* \"#utility.yul\":5218:5247   */\n  swap1\n  pop\n    /* \"#utility.yul\":5084:5253   */\n  swap3\n  swap2\n  pop\n  pop\n  jump\t// out\n    /* \"#utility.yul\":5259:5422   */\ntag_43:\n    /* \"#utility.yul\":5399:5414   */\n  0x496e76616c69642074696d657300000000000000000000000000000000000000\n    /* \"#utility.yul\":5395:5396   */\n  0x00\n    /* \"#utility.yul\":5387:5393   */\n  dup3\n    /* \"#utility.yul\":5383:5397   */\n  add\n    /* \"#utility.yul\":5376:5415   */\n  mstore\n    /* \"#utility.yul\":5259:5422   */\n  pop\n  jump\t// out\n    /* \"#utility.yul\":5428:5794   */\ntag_44:\n    /* \"#utility.yul\":5570:5573   */\n  0x00\n    /* \"#utility.yul\":5591:5658   */\n  tag_130\n    /* \"#utility.yul\":5655:5657   */\n  0x0d\n    /* \"#utility.yul\":5650:5653   */\n  dup4\n    /* \"#utility.yul\":5591:5658   */\n  tag_42\n  jump\t// in\ntag_130:\n    /* \"#utility.yul\":5584:5658   */\n  swap2\n  pop\n    /* \"#utility.yul\":5667:5760   */\n  tag_131\n    /* \"#utility.yul\":5756:5759   */\n  dup3\n    /* \"#utility.yul\":5667:5760   */\n  tag_43\n  jump\t// in\ntag_131:\n    /* \"#utility.yul\":5785:5787   */\n  0x20\n    /* \"#utility.yul\":5780:5783   */\n  dup3\n    /* \"#utility.yul\":5776:5788   */\n  add\n    /* \"#utility.yul\":5769:5788   */\n  swap1\n  pop\n    /* \"#utility.yul\":5428:5794   */\n  swap2\n  swap1\n  pop\n  jump\t// out\n    /* \"#utility.yul\":5800:6219   */\ntag_8:\n    /* \"#utility.yul\":5966:5970   */\n  0x00\n    /* \"#utility.yul\":6004:6006   */\n  0x20\n    /* \"#utility.yul\":5993:6002   */\n  dup3\n    /* \"#utility.yul\":5989:6007   */\n  add\n    /* \"#utility.yul\":5981:6007   */\n  swap1\n  pop\n    /* \"#utility.yul\":6053:6062   */\n  dup2\n    /* \"#utility.yul\":6047:6051   */\n  dup2\n    /* \"#utility.yul\":6043:6063   */\n  sub\n    /* \"#utility.yul\":6039:6040   */\n  0x00\n    /* \"#utility.yul\":6028:6037   */\n  dup4\n    /* \"#utility.yul\":6024:6041   */\n  add\n    /* \"#utility.yul\":6017:6064   */\n  mstore\n    /* \"#utility.yul\":6081:6212   */\n  tag_133\n    /* \"#utility.yul\":6207:6211   */\n  dup2\n    /* \"#utility.yul\":6081:6212   */\n  tag_44\n  jump\t// in\ntag_133:\n    /* \"#utility.yul\":6073:6212   */\n  swap1\n  pop\n    /* \"#utility.yul\":5800:6219   */\n  swap2\n  swap1\n  pop\n  jump\t// out\n    /* \"#utility.yul\":6225:6396   */\ntag_45:\n    /* \"#utility.yul\":6365:6388   */\n  0x496e76616c696420746f6b656e20616464726573730000000000000000000000\n    /* \"#utility.yul\":6361:6362   */\n  0x00\n    /* \"#utility.yul\":6353:6359   */\n  dup3\n    /* \"#utility.yul\":6349:6363   */\n  add\n    /* \"#utility.yul\":6342:6389   */\n  mstore\n    /* \"#utility.yul\":6225:6396   */\n  pop\n  jump\t// out\n    /* \"#utility.yul\":6402:6768   */\ntag_46:\n    /* \"#utility.yul\":6544:6547   */\n  0x00\n    /* \"#utility.yul\":6565:6632   */\n  tag_136\n    /* \"#utility.yul\":6629:6631   */\n  0x15\n    /* \"#utility.yul\":6624:6627   */\n  dup4\n    /* \"#utility.yul\":6565:6632   */\n  tag_42\n  jump\t// in\ntag_136:\n    /* \"#utility.yul\":6558:6632   */\n  swap2\n  pop\n    /* \"#utility.yul\":6641:6734   */\n  tag_137\n    /* \"#utility.yul\":6730:6733   */\n  dup3\n    /* \"#utility.yul\":6641:6734   */\n  tag_45\n  jump\t// in\ntag_137:\n    /* \"#utility.yul\":6759:6761   */\n  0x20\n    /* \"#utility.yul\":6754:6757   */\n  dup3\n    /* \"#utility.yul\":6750:6762   */\n  add\n    /* \"#utility.yul\":6743:6762   */\n  swap1\n  pop\n    /* \"#utility.yul\":6402:6768   */\n  swap2\n  swap1\n  pop\n  jump\t// out\n    /* \"#utility.yul\":6774:7193   */\ntag_11:\n    /* \"#utility.yul\":6940:6944   */\n  0x00\n    /* \"#utility.yul\":6978:6980   */\n  0x20\n    /* \"#utility.yul\":6967:6976   */\n  dup3\n    /* \"#utility.yul\":6963:6981   */\n  add\n    /* \"#utility.yul\":6955:6981   */\n  swap1\n  pop\n    /* \"#utility.yul\":7027:7036   */\n  dup2\n    /* \"#utility.yul\":7021:7025   */\n  dup2\n    /* \"#utility.yul\":7017:7037   */\n  sub\n    /* \"#utility.yul\":7013:7014   */\n  0x00\n    /* \"#utility.yul\":7002:7011   */\n  dup4\n    /* \"#utility.yul\":6998:7015   */\n  add\n    /* \"#utility.yul\":6991:7038   */\n  mstore\n    /* \"#utility.yul\":7055:7186   */\n  tag_139\n    /* \"#utility.yul\":7181:7185   */\n  dup2\n    /* \"#utility.yul\":7055:7186   */\n  tag_46\n  jump\t// in\ntag_139:\n    /* \"#utility.yul\":7047:7186   */\n  swap1\n  pop\n    /* \"#utility.yul\":6774:7193   */\n  swap2\n  swap1\n  pop\n  jump\t// out\n    /* \"#utility.yul\":7199:7369   */\ntag_47:\n    /* \"#utility.yul\":7339:7361   */\n  0x4e616d652063616e6e6f7420626520656d707479000000000000000000000000\n    /* \"#utility.yul\":7335:7336   */\n  0x00\n    /* \"#utility.yul\":7327:7333   */\n  dup3\n    /* \"#utility.yul\":7323:7337   */\n  add\n    /* \"#utility.yul\":7316:7362   */\n  mstore\n    /* \"#utility.yul\":7199:7369   */\n  pop\n  jump\t// out\n    /* \"#utility.yul\":7375:7741   */\ntag_48:\n    /* \"#utility.yul\":7517:7520   */\n  0x00\n    /* \"#utility.yul\":7538:7605   */\n  tag_142\n    /* \"#utility.yul\":7602:7604   */\n  0x14\n    /* \"#utility.yul\":7597:7600   */\n  dup4\n    /* \"#utility.yul\":7538:7605   */\n  tag_42\n  jump\t// in\ntag_142:\n    /* \"#utility.yul\":7531:7605   */\n  swap2\n  pop\n    /* \"#utility.yul\":7614:7707   */\n  tag_143\n    /* \"#utility.yul\":7703:7706   */\n  dup3\n    /* \"#utility.yul\":7614:7707   */\n  tag_47\n  jump\t// in\ntag_143:\n    /* \"#utility.yul\":7732:7734   */\n  0x20\n    /* \"#utility.yul\":7727:7730   */\n  dup3\n    /* \"#utility.yul\":7723:7735   */\n  add\n    /* \"#utility.yul\":7716:7735   */\n  swap1\n  pop\n    /* \"#utility.yul\":7375:7741   */\n  swap2\n  swap1\n  pop\n  jump\t// out\n    /* \"#utility.yul\":7747:8166   */\ntag_14:\n    /* \"#utility.yul\":7913:7917   */\n  0x00\n    /* \"#utility.yul\":7951:7953   */\n  0x20\n    /* \"#utility.yul\":7940:7949   */\n  dup3\n    /* \"#utility.yul\":7936:7954   */\n  add\n    /* \"#utility.yul\":7928:7954   */\n  swap1\n  pop\n    /* \"#utility.yul\":8000:8009   */\n  dup2\n    /* \"#utility.yul\":7994:7998   */\n  dup2\n    /* \"#utility.yul\":7990:8010   */\n  sub\n    /* \"#utility.yul\":7986:7987   */\n  0x00\n    /* \"#utility.yul\":7975:7984   */\n  dup4\n    /* \"#utility.yul\":7971:7988   */\n  add\n    /* \"#utility.yul\":7964:8011   */\n  mstore\n    /* \"#utility.yul\":8028:8159   */\n  tag_145\n    /* \"#utility.yul\":8154:8158   */\n  dup2\n    /* \"#utility.yul\":8028:8159   */\n  tag_48\n  jump\t// in\ntag_145:\n    /* \"#utility.yul\":8020:8159   */\n  swap1\n  pop\n    /* \"#utility.yul\":7747:8166   */\n  swap2\n  swap1\n  pop\n  jump\t// out\n    /* \"#utility.yul\":8172:8349   */\ntag_49:\n    /* \"#utility.yul\":8312:8341   */\n  0x4465736372697074696f6e2063616e6e6f7420626520656d7074790000000000\n    /* \"#utility.yul\":8308:8309   */\n  0x00\n    /* \"#utility.yul\":8300:8306   */\n  dup3\n    /* \"#utility.yul\":8296:8310   */\n  add\n    /* \"#utility.yul\":8289:8342   */\n  mstore\n    /* \"#utility.yul\":8172:8349   */\n  pop\n  jump\t// out\n    /* \"#utility.yul\":8355:8721   */\ntag_50:\n    /* \"#utility.yul\":8497:8500   */\n  0x00\n    /* \"#utility.yul\":8518:8585   */\n  tag_148\n    /* \"#utility.yul\":8582:8584   */\n  0x1b\n    /* \"#utility.yul\":8577:8580   */\n  dup4\n    /* \"#utility.yul\":8518:8585   */\n  tag_42\n  jump\t// in\ntag_148:\n    /* \"#utility.yul\":8511:8585   */\n  swap2\n  pop\n    /* \"#utility.yul\":8594:8687   */\n  tag_149\n    /* \"#utility.yul\":8683:8686   */\n  dup3\n    /* \"#utility.yul\":8594:8687   */\n  tag_49\n  jump\t// in\ntag_149:\n    /* \"#utility.yul\":8712:8714   */\n  0x20\n    /* \"#utility.yul\":8707:8710   */\n  dup3\n    /* \"#utility.yul\":8703:8715   */\n  add\n    /* \"#utility.yul\":8696:8715   */\n  swap1\n  pop\n    /* \"#utility.yul\":8355:8721   */\n  swap2\n  swap1\n  pop\n  jump\t// out\n    /* \"#utility.yul\":8727:9146   */\ntag_17:\n    /* \"#utility.yul\":8893:8897   */\n  0x00\n    /* \"#utility.yul\":8931:8933   */\n  0x20\n    /* \"#utility.yul\":8920:8929   */\n  dup3\n    /* \"#utility.yul\":8916:8934   */\n  add\n    /* \"#utility.yul\":8908:8934   */\n  swap1\n  pop\n    /* \"#utility.yul\":8980:8989   */\n  dup2\n    /* \"#utility.yul\":8974:8978   */\n  dup2\n    /* \"#utility.yul\":8970:8990   */\n  sub\n    /* \"#utility.yul\":8966:8967   */\n  0x00\n    /* \"#utility.yul\":8955:8964   */\n  dup4\n    /* \"#utility.yul\":8951:8968   */\n  add\n    /* \"#utility.yul\":8944:8991   */\n  mstore\n    /* \"#utility.yul\":9008:9139   */\n  tag_151\n    /* \"#utility.yul\":9134:9138   */\n  dup2\n    /* \"#utility.yul\":9008:9139   */\n  tag_50\n  jump\t// in\ntag_151:\n    /* \"#utility.yul\":9000:9139   */\n  swap1\n  pop\n    /* \"#utility.yul\":8727:9146   */\n  swap2\n  swap1\n  pop\n  jump\t// out\n    /* \"#utility.yul\":9152:9251   */\ntag_51:\n    /* \"#utility.yul\":9204:9210   */\n  0x00\n    /* \"#utility.yul\":9238:9243   */\n  dup2\n    /* \"#utility.yul\":9232:9244   */\n  mload\n    /* \"#utility.yul\":9222:9244   */\n  swap1\n  pop\n    /* \"#utility.yul\":9152:9251   */\n  swap2\n  swap1\n  pop\n  jump\t// out\n    /* \"#utility.yul\":9257:9437   */\ntag_52:\n    /* \"#utility.yul\":9305:9382   */\n  0x4e487b7100000000000000000000000000000000000000000000000000000000\n    /* \"#utility.yul\":9302:9303   */\n  0x00\n    /* \"#utility.yul\":9295:9383   */\n  mstore\n    /* \"#utility.yul\":9402:9406   */\n  0x22\n    /* \"#utility.yul\":9399:9400   */\n  0x04\n    /* \"#utility.yul\":9392:9407   */\n  mstore\n    /* \"#utility.yul\":9426:9430   */\n  0x24\n    /* \"#utility.yul\":9423:9424   */\n  0x00\n    /* \"#utility.yul\":9416:9431   */\n  revert\n    /* \"#utility.yul\":9443:9763   */\ntag_53:\n    /* \"#utility.yul\":9487:9493   */\n  0x00\n    /* \"#utility.yul\":9524:9525   */\n  0x02\n    /* \"#utility.yul\":9518:9522   */\n  dup3\n    /* \"#utility.yul\":9514:9526   */\n  div\n    /* \"#utility.yul\":9504:9526   */\n  swap1\n  pop\n    /* \"#utility.yul\":9571:9572   */\n  0x01\n    /* \"#utility.yul\":9565:9569   */\n  dup3\n    /* \"#utility.yul\":9561:9573   */\n  and\n    /* \"#utility.yul\":9592:9610   */\n  dup1\n    /* \"#utility.yul\":9582:9663   */\n  tag_155\n  jumpi\n    /* \"#utility.yul\":9648:9652   */\n  0x7f\n    /* \"#utility.yul\":9640:9646   */\n  dup3\n    /* \"#utility.yul\":9636:9653   */\n  and\n    /* \"#utility.yul\":9626:9653   */\n  swap2\n  pop\n    /* \"#utility.yul\":9582:9663   */\ntag_155:\n    /* \"#utility.yul\":9710:9712   */\n  0x20\n    /* \"#utility.yul\":9702:9708   */\n  dup3\n    /* \"#utility.yul\":9699:9713   */\n  lt\n    /* \"#utility.yul\":9679:9697   */\n  dup2\n    /* \"#utility.yul\":9676:9714   */\n  sub\n    /* \"#utility.yul\":9673:9757   */\n  tag_156\n  jumpi\n    /* \"#utility.yul\":9729:9747   */\n  tag_157\n  tag_52\n  jump\t// in\ntag_157:\n    /* \"#utility.yul\":9673:9757   */\ntag_156:\n    /* \"#utility.yul\":9494:9763   */\n  pop\n    /* \"#utility.yul\":9443:9763   */\n  swap2\n  swap1\n  pop\n  jump\t// out\n    /* \"#utility.yul\":9769:9910   */\ntag_54:\n    /* \"#utility.yul\":9818:9822   */\n  0x00\n    /* \"#utility.yul\":9841:9844   */\n  dup2\n    /* \"#utility.yul\":9833:9844   */\n  swap1\n  pop\n    /* \"#utility.yul\":9864:9867   */\n  dup2\n    /* \"#utility.yul\":9861:9862   */\n  0x00\n    /* \"#utility.yul\":9854:9868   */\n  mstore\n    /* \"#utility.yul\":9898:9902   */\n  0x20\n    /* \"#utility.yul\":9895:9896   */\n  0x00\n    /* \"#utility.yul\":9885:9903   */\n  keccak256\n    /* \"#utility.yul\":9877:9903   */\n  swap1\n  pop\n    /* \"#utility.yul\":9769:9910   */\n  swap2\n  swap1\n  pop\n  jump\t// out\n    /* \"#utility.yul\":9916:10009   */\ntag_55:\n    /* \"#utility.yul\":9953:9959   */\n  0x00\n    /* \"#utility.yul\":10000:10002   */\n  0x20\n    /* \"#utility.yul\":9995:9997   */\n  0x1f\n    /* \"#utility.yul\":9988:9993   */\n  dup4\n    /* \"#utility.yul\":9984:9998   */\n  add\n    /* \"#utility.yul\":9980:10003   */\n  div\n    /* \"#utility.yul\":9970:10003   */\n  swap1\n  pop\n    /* \"#utility.yul\":9916:10009   */\n  swap2\n  swap1\n  pop\n  jump\t// out\n    /* \"#utility.yul\":10015:10122   */\ntag_56:\n    /* \"#utility.yul\":10059:10067   */\n  0x00\n    /* \"#utility.yul\":10109:10114   */\n  dup3\n    /* \"#utility.yul\":10103:10107   */\n  dup3\n    /* \"#utility.yul\":10099:10115   */\n  shl\n    /* \"#utility.yul\":10078:10115   */\n  swap1\n  pop\n    /* \"#utility.yul\":10015:10122   */\n  swap3\n  swap2\n  pop\n  pop\n  jump\t// out\n    /* \"#utility.yul\":10128:10521   */\ntag_57:\n    /* \"#utility.yul\":10197:10203   */\n  0x00\n    /* \"#utility.yul\":10247:10248   */\n  0x08\n    /* \"#utility.yul\":10235:10245   */\n  dup4\n    /* \"#utility.yul\":10231:10249   */\n  mul\n    /* \"#utility.yul\":10270:10367   */\n  tag_162\n    /* \"#utility.yul\":10300:10366   */\n  0xffffffffffffffffffffffffffffffffffffffffffffffffffffffffffffffff\n    /* \"#utility.yul\":10289:10298   */\n  dup3\n    /* \"#utility.yul\":10270:10367   */\n  tag_56\n  jump\t// in\ntag_162:\n    /* \"#utility.yul\":10388:10427   */\n  tag_163\n    /* \"#utility.yul\":10418:10426   */\n  dup7\n    /* \"#utility.yul\":10407:10416   */\n  dup4\n    /* \"#utility.yul\":10388:10427   */\n  tag_56\n  jump\t// in\ntag_163:\n    /* \"#utility.yul\":10376:10427   */\n  swap6\n  pop\n    /* \"#utility.yul\":10460:10464   */\n  dup1\n    /* \"#utility.yul\":10456:10465   */\n  not\n    /* \"#utility.yul\":10449:10454   */\n  dup5\n    /* \"#utility.yul\":10445:10466   */\n  and\n    /* \"#utility.yul\":10436:10466   */\n  swap4\n  pop\n    /* \"#utility.yul\":10509:10513   */\n  dup1\n    /* \"#utility.yul\":10499:10507   */\n  dup7\n    /* \"#utility.yul\":10495:10514   */\n  and\n    /* \"#utility.yul\":10488:10493   */\n  dup5\n    /* \"#utility.yul\":10485:10515   */\n  or\n    /* \"#utility.yul\":10475:10515   */\n  swap3\n  pop\n    /* \"#utility.yul\":10204:10521   */\n  pop\n  pop\n    /* \"#utility.yul\":10128:10521   */\n  swap4\n  swap3\n  pop\n  pop\n  pop\n  jump\t// out\n    /* \"#utility.yul\":10527:10587   */\ntag_58:\n    /* \"#utility.yul\":10555:10558   */\n  0x00\n    /* \"#utility.yul\":10576:10581   */\n  dup2\n    /* \"#utility.yul\":10569:10581   */\n  swap1\n  pop\n    /* \"#utility.yul\":10527:10587   */\n  swap2\n  swap1\n  pop\n  jump\t// out\n    /* \"#utility.yul\":10593:10735   */\ntag_59:\n    /* \"#utility.yul\":10643:10652   */\n  0x00\n    /* \"#utility.yul\":10676:10729   */\n  tag_166\n    /* \"#utility.yul\":10694:10728   */\n  tag_167\n    /* \"#utility.yul\":10703:10727   */\n  tag_168\n    /* \"#utility.yul\":10721:10726   */\n  dup5\n    /* \"#utility.yul\":10703:10727   */\n  tag_39\n  jump\t// in\ntag_168:\n    /* \"#utility.yul\":10694:10728   */\n  tag_58\n  jump\t// in\ntag_167:\n    /* \"#utility.yul\":10676:10729   */\n  tag_39\n  jump\t// in\ntag_166:\n    /* \"#utility.yul\":10663:10729   */\n  swap1\n  pop\n    /* \"#utility.yul\":10593:10735   */\n  swap2\n  swap1\n  pop\n  jump\t// out\n    /* \"#utility.yul\":10741:10816   */\ntag_60:\n    /* \"#utility.yul\":10784:10787   */\n  0x00\n    /* \"#utility.yul\":10805:10810   */\n  dup2\n    /* \"#utility.yul\":10798:10810   */\n  swap1\n  pop\n    /* \"#utility.yul\":10741:10816   */\n  swap2\n  swap1\n  pop\n  jump\t// out\n    /* \"#utility.yul\":10822:11091   */\ntag_61:\n    /* \"#utility.yul\":10932:10971   */\n  tag_171\n    /* \"#utility.yul\":10963:10970   */\n  dup4\n    /* \"#utility.yul\":10932:10971   */\n  tag_59\n  jump\t// in\ntag_171:\n    /* \"#utility.yul\":10993:11084   */\n  tag_172\n    /* \"#utility.yul\":11042:11083   */\n  tag_173\n    /* \"#utility.yul\":11066:11082   */\n  dup3\n    /* \"#utility.yul\":11042:11083   */\n  tag_60\n  jump\t// in\ntag_173:\n    /* \"#utility.yul\":11034:11040   */\n  dup5\n    /* \"#utility.yul\":11027:11031   */\n  dup5\n    /* \"#utility.yul\":11021:11032   */\n  sload\n    /* \"#utility.yul\":10993:11084   */\n  tag_57\n  jump\t// in\ntag_172:\n    /* \"#utility.yul\":10987:10991   */\n  dup3\n    /* \"#utility.yul\":10980:11085   */\n  sstore\n    /* \"#utility.yul\":10898:11091   */\n  pop\n    /* \"#utility.yul\":10822:11091   */\n  pop\n  pop\n  pop\n  jump\t// out\n    /* \"#utility.yul\":11097:11170   */\ntag_62:\n    /* \"#utility.yul\":11142:11145   */\n  0x00\n    /* \"#utility.yul\":11163:11164   */\n  0x00\n    /* \"#utility.yul\":11156:11164   */\n  swap1\n  pop\n    /* \"#utility.yul\":11097:11170   */\n  swap1\n  jump\t// out\n    /* \"#utility.yul\":11176:11365   */\ntag_63:\n    /* \"#utility.yul\":11253:11285   */\n  tag_176\n  tag_62\n  jump\t// in\ntag_176:\n    /* \"#utility.yul\":11294:11359   */\n  tag_177\n    /* \"#utility.yul\":11352:11358   */\n  dup2\n    /* \"#utility.yul\":11344:11350   */\n  dup5\n    /* \"#utility.yul\":11338:11342   */\n  dup5\n    /* \"#utility.yul\":11294:11359   */\n  tag_61\n  jump\t// in\ntag_177:\n    /* \"#utility.yul\":11229:11365   */\n  pop\n    /* \"#utility.yul\":11176:11365   */\n  pop\n  pop\n  jump\t// out\n    /* \"#utility.yul\":11371:11557   */\ntag_64:\n    /* \"#utility.yul\":11431:11551   */\ntag_179:\n    /* \"#utility.yul\":11448:11451   */\n  dup2\n    /* \"#utility.yul\":11441:11446   */\n  dup2\n    /* \"#utility.yul\":11438:11452   */\n  lt\n    /* \"#utility.yul\":11431:11551   */\n  iszero\n  tag_181\n  jumpi\n    /* \"#utility.yul\":11502:11541   */\n  tag_182\n    /* \"#utility.yul\":11539:11540   */\n  0x00\n    /* \"#utility.yul\":11532:11537   */\n  dup3\n    /* \"#utility.yul\":11502:11541   */\n  tag_63\n  jump\t// in\ntag_182:\n    /* \"#utility.yul\":11475:11476   */\n  0x01\n    /* \"#utility.yul\":11468:11473   */\n  dup2\n    /* \"#utility.yul\":11464:11477   */\n  add\n    /* \"#utility.yul\":11455:11477   */\n  swap1\n  pop\n    /* \"#utility.yul\":11431:11551   */\n  jump(tag_179)\ntag_181:\n    /* \"#utility.yul\":11371:11557   */\n  pop\n  pop\n  jump\t// out\n    /* \"#utility.yul\":11563:12106   */\ntag_65:\n    /* \"#utility.yul\":11664:11666   */\n  0x1f\n    /* \"#utility.yul\":11659:11662   */\n  dup3\n    /* \"#utility.yul\":11656:11667   */\n  gt\n    /* \"#utility.yul\":11653:12099   */\n  iszero\n  tag_184\n  jumpi\n    /* \"#utility.yul\":11698:11736   */\n  tag_185\n    /* \"#utility.yul\":11730:11735   */\n  dup2\n    /* \"#utility.yul\":11698:11736   */\n  tag_54\n  jump\t// in\ntag_185:\n    /* \"#utility.yul\":11782:11811   */\n  tag_186\n    /* \"#utility.yul\":11800:11810   */\n  dup5\n    /* \"#utility.yul\":11782:11811   */\n  tag_55\n  jump\t// in\ntag_186:\n    /* \"#utility.yul\":11772:11780   */\n  dup2\n    /* \"#utility.yul\":11768:11812   */\n  add\n    /* \"#utility.yul\":11965:11967   */\n  0x20\n    /* \"#utility.yul\":11953:11963   */\n  dup6\n    /* \"#utility.yul\":11950:11968   */\n  lt\n    /* \"#utility.yul\":11947:11996   */\n  iszero\n  tag_187\n  jumpi\n    /* \"#utility.yul\":11986:11994   */\n  dup2\n    /* \"#utility.yul\":11971:11994   */\n  swap1\n  pop\n    /* \"#utility.yul\":11947:11996   */\ntag_187:\n    /* \"#utility.yul\":12009:12089   */\n  tag_188\n    /* \"#utility.yul\":12065:12087   */\n  tag_189\n    /* \"#utility.yul\":12083:12086   */\n  dup6\n    /* \"#utility.yul\":12065:12087   */\n  tag_55\n  jump\t// in\ntag_189:\n    /* \"#utility.yul\":12055:12063   */\n  dup4\n    /* \"#utility.yul\":12051:12088   */\n  add\n    /* \"#utility.yul\":12038:12049   */\n  dup3\n    /* \"#utility.yul\":12009:12089   */\n  tag_64\n  jump\t// in\ntag_188:\n    /* \"#utility.yul\":11668:12099   */\n  pop\n  pop\n    /* \"#utility.yul\":11653:12099   */\ntag_184:\n    /* \"#utility.yul\":11563:12106   */\n  pop\n  pop\n  pop\n  jump\t// out\n    /* \"#utility.yul\":12112:12229   */\ntag_66:\n    /* \"#utility.yul\":12166:12174   */\n  0x00\n    /* \"#utility.yul\":12216:12221   */\n  dup3\n    /* \"#utility.yul\":12210:12214   */\n  dup3\n    /* \"#utility.yul\":12206:12222   */\n  shr\n    /* \"#utility.yul\":12185:12222   */\n  swap1\n  pop\n    /* \"#utility.yul\":12112:12229   */\n  swap3\n  swap2\n  pop\n  pop\n  jump\t// out\n    /* \"#utility.yul\":12235:12404   */\ntag_67:\n    /* \"#utility.yul\":12279:12285   */\n  0x00\n    /* \"#utility.yul\":12312:12363   */\n  tag_192\n    /* \"#utility.yul\":12360:12361   */\n  0x00\n    /* \"#utility.yul\":12356:12362   */\n  not\n    /* \"#utility.yul\":12348:12353   */\n  dup5\n    /* \"#utility.yul\":12345:12346   */\n  0x08\n    /* \"#utility.yul\":12341:12354   */\n  mul\n    /* \"#utility.yul\":12312:12363   */\n  tag_66\n  jump\t// in\ntag_192:\n    /* \"#utility.yul\":12308:12364   */\n  not\n    /* \"#utility.yul\":12393:12397   */\n  dup1\n    /* \"#utility.yul\":12387:12391   */\n  dup4\n    /* \"#utility.yul\":12383:12398   */\n  and\n    /* \"#utility.yul\":12373:12398   */\n  swap2\n  pop\n    /* \"#utility.yul\":12286:12404   */\n  pop\n    /* \"#utility.yul\":12235:12404   */\n  swap3\n  swap2\n  pop\n  pop\n  jump\t// out\n    /* \"#utility.yul\":12409:12704   */\ntag_68:\n    /* \"#utility.yul\":12485:12489   */\n  0x00\n    /* \"#utility.yul\":12631:12660   */\n  tag_194\n    /* \"#utility.yul\":12656:12659   */\n  dup4\n    /* \"#utility.yul\":12650:12654   */\n  dup4\n    /* \"#utility.yul\":12631:12660   */\n  tag_67\n  jump\t// in\ntag_194:\n    /* \"#utility.yul\":12623:12660   */\n  swap2\n  pop\n    /* \"#utility.yul\":12693:12696   */\n  dup3\n    /* \"#utility.yul\":12690:12691   */\n  0x02\n    /* \"#utility.yul\":12686:12697   */\n  mul\n    /* \"#utility.yul\":12680:12684   */\n  dup3\n    /* \"#utility.yul\":12677:12698   */\n  or\n    /* \"#utility.yul\":12669:12698   */\n  swap1\n  pop\n    /* \"#utility.yul\":12409:12704   */\n  swap3\n  swap2\n  pop\n  pop\n  jump\t// out\n    /* \"#utility.yul\":12709:14104   */\ntag_19:\n    /* \"#utility.yul\":12826:12863   */\n  tag_196\n    /* \"#utility.yul\":12859:12862   */\n  dup3\n    /* \"#utility.yul\":12826:12863   */\n  tag_51\n  jump\t// in\ntag_196:\n    /* \"#utility.yul\":12928:12946   */\n  0xffffffffffffffff\n    /* \"#utility.yul\":12920:12926   */\n  dup2\n    /* \"#utility.yul\":12917:12947   */\n  gt\n    /* \"#utility.yul\":12914:12970   */\n  iszero\n  tag_197\n  jumpi\n    /* \"#utility.yul\":12950:12968   */\n  tag_198\n  tag_28\n  jump\t// in\ntag_198:\n    /* \"#utility.yul\":12914:12970   */\ntag_197:\n    /* \"#utility.yul\":12994:13032   */\n  tag_199\n    /* \"#utility.yul\":13026:13030   */\n  dup3\n    /* \"#utility.yul\":13020:13031   */\n  sload\n    /* \"#utility.yul\":12994:13032   */\n  tag_53\n  jump\t// in\ntag_199:\n    /* \"#utility.yul\":13079:13146   */\n  tag_200\n    /* \"#utility.yul\":13139:13145   */\n  dup3\n    /* \"#utility.yul\":13131:13137   */\n  dup3\n    /* \"#utility.yul\":13125:13129   */\n  dup6\n    /* \"#utility.yul\":13079:13146   */\n  tag_65\n  jump\t// in\ntag_200:\n    /* \"#utility.yul\":13173:13174   */\n  0x00\n    /* \"#utility.yul\":13197:13201   */\n  0x20\n    /* \"#utility.yul\":13184:13201   */\n  swap1\n  pop\n    /* \"#utility.yul\":13229:13231   */\n  0x1f\n    /* \"#utility.yul\":13221:13227   */\n  dup4\n    /* \"#utility.yul\":13218:13232   */\n  gt\n    /* \"#utility.yul\":13246:13247   */\n  0x01\n    /* \"#utility.yul\":13241:13859   */\n  dup2\n  eq\n  tag_202\n  jumpi\n    /* \"#utility.yul\":13903:13904   */\n  0x00\n    /* \"#utility.yul\":13920:13926   */\n  dup5\n    /* \"#utility.yul\":13917:13994   */\n  iszero\n  tag_203\n  jumpi\n    /* \"#utility.yul\":13969:13978   */\n  dup3\n    /* \"#utility.yul\":13964:13967   */\n  dup8\n    /* \"#utility.yul\":13960:13979   */\n  add\n    /* \"#utility.yul\":13954:13980   */\n  mload\n    /* \"#utility.yul\":13945:13980   */\n  swap1\n  pop\n    /* \"#utility.yul\":13917:13994   */\ntag_203:\n    /* \"#utility.yul\":14020:14087   */\n  tag_204\n    /* \"#utility.yul\":14080:14086   */\n  dup6\n    /* \"#utility.yul\":14073:14078   */\n  dup3\n    /* \"#utility.yul\":14020:14087   */\n  tag_68\n  jump\t// in\ntag_204:\n    /* \"#utility.yul\":14014:14018   */\n  dup7\n    /* \"#utility.yul\":14007:14088   */\n  sstore\n    /* \"#utility.yul\":13876:14098   */\n  pop\n    /* \"#utility.yul\":13211:14098   */\n  jump(tag_201)\n    /* \"#utility.yul\":13241:13859   */\ntag_202:\n    /* \"#utility.yul\":13293:13297   */\n  0x1f\n    /* \"#utility.yul\":13289:13298   */\n  not\n    /* \"#utility.yul\":13281:13287   */\n  dup5\n    /* \"#utility.yul\":13277:13299   */\n  and\n    /* \"#utility.yul\":13327:13364   */\n  tag_205\n    /* \"#utility.yul\":13359:13363   */\n  dup7\n    /* \"#utility.yul\":13327:13364   */\n  tag_54\n  jump\t// in\ntag_205:\n    /* \"#utility.yul\":13386:13387   */\n  0x00\n    /* \"#utility.yul\":13400:13608   */\ntag_206:\n    /* \"#utility.yul\":13414:13421   */\n  dup3\n    /* \"#utility.yul\":13411:13412   */\n  dup2\n    /* \"#utility.yul\":13408:13422   */\n  lt\n    /* \"#utility.yul\":13400:13608   */\n  iszero\n  tag_208\n  jumpi\n    /* \"#utility.yul\":13493:13502   */\n  dup5\n    /* \"#utility.yul\":13488:13491   */\n  dup10\n    /* \"#utility.yul\":13484:13503   */\n  add\n    /* \"#utility.yul\":13478:13504   */\n  mload\n    /* \"#utility.yul\":13470:13476   */\n  dup3\n    /* \"#utility.yul\":13463:13505   */\n  sstore\n    /* \"#utility.yul\":13544:13545   */\n  0x01\n    /* \"#utility.yul\":13536:13542   */\n  dup3\n    /* \"#utility.yul\":13532:13546   */\n  add\n    /* \"#utility.yul\":13522:13546   */\n  swap2\n  pop\n    /* \"#utility.yul\":13591:13593   */\n  0x20\n    /* \"#utility.yul\":13580:13589   */\n  dup6\n    /* \"#utility.yul\":13576:13594   */\n  add\n    /* \"#utility.yul\":13563:13594   */\n  swap5\n  pop\n    /* \"#utility.yul\":13437:13441   */\n  0x20\n    /* \"#utility.yul\":13434:13435   */\n  dup2\n    /* \"#utility.yul\":13430:13442   */\n  add\n    /* \"#utility.yul\":13425:13442   */\n  swap1\n  pop\n    /* \"#utility.yul\":13400:13608   */\n  jump(tag_206)\ntag_208:\n    /* \"#utility.yul\":13636:13642   */\n  dup7\n    /* \"#utility.yul\":13627:13634   */\n  dup4\n    /* \"#utility.yul\":13624:13643   */\n  lt\n    /* \"#utility.yul\":13621:13800   */\n  iszero\n  tag_209\n  jumpi\n    /* \"#utility.yul\":13694:13703   */\n  dup5\n    /* \"#utility.yul\":13689:13692   */\n  dup10\n    /* \"#utility.yul\":13685:13704   */\n  add\n    /* \"#utility.yul\":13679:13705   */\n  mload\n    /* \"#utility.yul\":13737:13785   */\n  tag_210\n    /* \"#utility.yul\":13779:13783   */\n  0x1f\n    /* \"#utility.yul\":13771:13777   */\n  dup10\n    /* \"#utility.yul\":13767:13784   */\n  and\n    /* \"#utility.yul\":13756:13765   */\n  dup3\n    /* \"#utility.yul\":13737:13785   */\n  tag_67\n  jump\t// in\ntag_210:\n    /* \"#utility.yul\":13729:13735   */\n  dup4\n    /* \"#utility.yul\":13722:13786   */\n  sstore\n    /* \"#utility.yul\":13644:13800   */\n  pop\n    /* \"#utility.yul\":13621:13800   */\ntag_209:\n    /* \"#utility.yul\":13846:13847   */\n  0x01\n    /* \"#utility.yul\":13842:13843   */\n  0x02\n    /* \"#utility.yul\":13834:13840   */\n  dup9\n    /* \"#utility.yul\":13830:13844   */\n  mul\n    /* \"#utility.yul\":13826:13848   */\n  add\n    /* \"#utility.yul\":13820:13824   */\n  dup9\n    /* \"#utility.yul\":13813:13849   */\n  sstore\n    /* \"#utility.yul\":13248:13859   */\n  pop\n  pop\n  pop\n    /* \"#utility.yul\":13211:14098   */\ntag_201:\n  pop\n    /* \"#utility.yul\":12801:14104   */\n  pop\n  pop\n  pop\n    /* \"#utility.yul\":12709:14104   */\n  pop\n  pop\n  jump\t// out\n    /* \"contracts/project/Auction.sol\":102:6064  contract TokenAuction {... */\ntag_21:\n  dataSize(sub_0)\n  dup1\n  dataOffset(sub_0)\n  0x00\n  codecopy\n  0x00\n  return\nstop\n\nsub_0: assembly {\n        /* \"contracts/project/Auction.sol\":102:6064  contract TokenAuction {... */\n      mstore(0x40, 0x80)\n      callvalue\n      dup1\n      iszero\n      tag_1\n      jumpi\n      revert(0x00, 0x00)\n    tag_1:\n      pop\n      jumpi(tag_2, lt(calldatasize, 0x04))\n      shr(0xe0, calldataload(0x00))\n      dup1\n      0x9979ef45\n      gt\n      tag_23\n      jumpi\n      dup1\n      0xd94a3505\n      gt\n      tag_24\n      jumpi\n      dup1\n      0xd94a3505\n      eq\n      tag_18\n      jumpi\n      dup1\n      0xefbe1c1c\n      eq\n      tag_19\n      jumpi\n      dup1\n      0xf5b56c56\n      eq\n      tag_20\n      jumpi\n      dup1\n      0xf77282ab\n      eq\n      tag_21\n      jumpi\n      dup1\n      0xfc0c546a\n      eq\n      tag_22\n      jumpi\n      jump(tag_2)\n    tag_24:\n      dup1\n      0x9979ef45\n      eq\n      tag_13\n      jumpi\n      dup1\n      0xbe9a6555\n      eq\n      tag_14\n      jumpi\n      dup1\n      0xc8b342ab\n      eq\n      tag_15\n      jumpi\n      dup1\n      0xd09de08a\n      eq\n      tag_16\n      jumpi\n      dup1\n      0xd57bde79\n      eq\n      tag_17\n      jumpi\n      jump(tag_2)\n    tag_23:\n      dup1\n      0x7284e416\n      gt\n      tag_25\n      jumpi\n      dup1\n      0x7284e416\n      eq\n      tag_8\n      jumpi\n      dup1\n      0x82b2e257\n      eq\n      tag_9\n      jumpi\n      dup1\n      0x8da5cb5b\n      eq\n      tag_10\n      jumpi\n      dup1\n      0x8fa8b790\n      eq\n      tag_11\n      jumpi\n      dup1\n      0x91f90157\n      eq\n      tag_12\n      jumpi\n      jump(tag_2)\n    tag_25:\n      dup1\n      0x06fdde03\n      eq\n      tag_3\n      jumpi\n      dup1\n      0x12fa6feb\n      eq\n      tag_4\n      jumpi\n      dup1\n      0x22f3e2d4\n      eq\n      tag_5\n      jumpi\n      dup1\n      0x3ccfd60b\n      eq\n      tag_6\n      jumpi\n      dup1\n      0x3f9942ff\n      eq\n      tag_7\n      jumpi\n    tag_2:\n      revert(0x00, 0x00)\n        /* \"contracts/project/Auction.sol\":164:182  string public name */\n    tag_3:\n      tag_26\n      tag_27\n      jump\t// in\n    tag_26:\n      mload(0x40)\n      tag_28\n      swap2\n      swap1\n      tag_29\n      jump\t// in\n    tag_28:\n      mload(0x40)\n      dup1\n      swap2\n      sub\n      swap1\n      return\n        /* \"contracts/project/Auction.sol\":295:312  bool public ended */\n    tag_4:\n      tag_30\n      tag_31\n      jump\t// in\n    tag_30:\n      mload(0x40)\n      tag_32\n      swap2\n      swap1\n      tag_33\n      jump\t// in\n    tag_32:\n      mload(0x40)\n      dup1\n      swap2\n      sub\n      swap1\n      return\n        /* \"contracts/project/Auction.sol\":5319:5462  function isActive() public view returns (bool) {... */\n    tag_5:\n      tag_34\n      tag_35\n      jump\t// in\n    tag_34:\n      mload(0x40)\n      tag_36\n      swap2\n      swap1\n      tag_33\n      jump\t// in\n    tag_36:\n      mload(0x40)\n      dup1\n      swap2\n      sub\n      swap1\n      return\n        /* \"contracts/project/Auction.sol\":4748:5058  function withdraw() external {... */\n    tag_6:\n      tag_37\n      tag_38\n      jump\t// in\n    tag_37:\n      stop\n        /* \"contracts/project/Auction.sol\":269:289  bool public canceled */\n    tag_7:\n      tag_39\n      tag_40\n      jump\t// in\n    tag_39:\n      mload(0x40)\n      tag_41\n      swap2\n      swap1\n      tag_33\n      jump\t// in\n    tag_41:\n      mload(0x40)\n      dup1\n      swap2\n      sub\n      swap1\n      return\n        /* \"contracts/project/Auction.sol\":188:213  string public description */\n    tag_8:\n      tag_42\n      tag_43\n      jump\t// in\n    tag_42:\n      mload(0x40)\n      tag_44\n      swap2\n      swap1\n      tag_29\n      jump\t// in\n    tag_44:\n      mload(0x40)\n      dup1\n      swap2\n      sub\n      swap1\n      return\n        /* \"contracts/project/Auction.sol\":5196:5309  function getTokenBalance() external view returns (uint256) {... */\n    tag_9:\n      tag_45\n      tag_46\n      jump\t// in\n    tag_45:\n      mload(0x40)\n      tag_47\n      swap2\n      swap1\n      tag_48\n      jump\t// in\n    tag_47:\n      mload(0x40)\n      dup1\n      swap2\n      sub\n      swap1\n      return\n        /* \"contracts/project/Auction.sol\":130:158  address payable public owner */\n    tag_10:\n      tag_49\n      tag_50\n      jump\t// in\n    tag_49:\n      mload(0x40)\n      tag_51\n      swap2\n      swap1\n      tag_52\n      jump\t// in\n    tag_51:\n      mload(0x40)\n      dup1\n      swap2\n      sub\n      swap1\n      return\n        /* \"contracts/project/Auction.sol\":3348:3865  function cancelAuction() external {... */\n    tag_11:\n      tag_53\n      tag_54\n      jump\t// in\n    tag_53:\n      stop\n        /* \"contracts/project/Auction.sol\":415:443  address public highestBidder */\n    tag_12:\n      tag_55\n      tag_56\n      jump\t// in\n    tag_55:\n      mload(0x40)\n      tag_57\n      swap2\n      swap1\n      tag_58\n      jump\t// in\n    tag_57:\n      mload(0x40)\n      dup1\n      swap2\n      sub\n      swap1\n      return\n        /* \"contracts/project/Auction.sol\":1406:3342  function placeBid(uint256 bidAmount) public {... */\n    tag_13:\n      tag_59\n      0x04\n      dup1\n      calldatasize\n      sub\n      dup2\n      add\n      swap1\n      tag_60\n      swap2\n      swap1\n      tag_61\n      jump\t// in\n    tag_60:\n      tag_62\n      jump\t// in\n    tag_59:\n      stop\n        /* \"contracts/project/Auction.sol\":219:239  uint256 public start */\n    tag_14:\n      tag_63\n      tag_64\n      jump\t// in\n    tag_63:\n      mload(0x40)\n      tag_65\n      swap2\n      swap1\n      tag_48\n      jump\t// in\n    tag_65:\n      mload(0x40)\n      dup1\n      swap2\n      sub\n      swap1\n      return\n        /* \"contracts/project/Auction.sol\":5086:5186  function getBid(address bidder) external view returns (uint256) {... */\n    tag_15:\n      tag_66\n      0x04\n      dup1\n      calldatasize\n      sub\n      dup2\n      add\n      swap1\n      tag_67\n      swap2\n      swap1\n      tag_68\n      jump\t// in\n    tag_67:\n      tag_69\n      jump\t// in\n    tag_66:\n      mload(0x40)\n      tag_70\n      swap2\n      swap1\n      tag_48\n      jump\t// in\n    tag_70:\n      mload(0x40)\n      dup1\n      swap2\n      sub\n      swap1\n      return\n        /* \"contracts/project/Auction.sol\":518:542  uint256 public increment */\n    tag_16:\n      tag_71\n      tag_72\n      jump\t// in\n    tag_71:\n      mload(0x40)\n      tag_73\n      swap2\n      swap1\n      tag_48\n      jump\t// in\n    tag_73:\n      mload(0x40)\n      dup1\n      swap2\n      sub\n      swap1\n      return\n        /* \"contracts/project/Auction.sol\":449:474  uint256 public highestBid */\n    tag_17:\n      tag_74\n      tag_75\n      jump\t// in\n    tag_74:\n      mload(0x40)\n      tag_76\n      swap2\n      swap1\n      tag_48\n      jump\t// in\n    tag_76:\n      mload(0x40)\n      dup1\n      swap2\n      sub\n      swap1\n      return\n        /* \"contracts/project/Auction.sol\":5468:6062  function getAuctionInfo() external view returns (... */\n    tag_18:\n      tag_77\n      tag_78\n      jump\t// in\n    tag_77:\n      mload(0x40)\n      tag_79\n      swap11\n      swap10\n      swap9\n      swap8\n      swap7\n      swap6\n      swap5\n      swap4\n      swap3\n      swap2\n      swap1\n      tag_80\n      jump\t// in\n    tag_79:\n      mload(0x40)\n      dup1\n      swap2\n      sub\n      swap1\n      return\n        /* \"contracts/project/Auction.sol\":245:263  uint256 public end */\n    tag_19:\n      tag_81\n      tag_82\n      jump\t// in\n    tag_81:\n      mload(0x40)\n      tag_83\n      swap2\n      swap1\n      tag_48\n      jump\t// in\n    tag_83:\n      mload(0x40)\n      dup1\n      swap2\n      sub\n      swap1\n      return\n        /* \"contracts/project/Auction.sol\":480:512  uint256 public highestBindingBid */\n    tag_20:\n      tag_84\n      tag_85\n      jump\t// in\n    tag_84:\n      mload(0x40)\n      tag_86\n      swap2\n      swap1\n      tag_48\n      jump\t// in\n    tag_86:\n      mload(0x40)\n      dup1\n      swap2\n      sub\n      swap1\n      return\n        /* \"contracts/project/Auction.sol\":3871:4742  function finalizeAuction() external {... */\n    tag_21:\n      tag_87\n      tag_88\n      jump\t// in\n    tag_87:\n      stop\n        /* \"contracts/project/Auction.sol\":351:370  Crypto public token */\n    tag_22:\n      tag_89\n      tag_90\n      jump\t// in\n    tag_89:\n      mload(0x40)\n      tag_91\n      swap2\n      swap1\n      tag_92\n      jump\t// in\n    tag_91:\n      mload(0x40)\n      dup1\n      swap2\n      sub\n      swap1\n      return\n        /* \"contracts/project/Auction.sol\":164:182  string public name */\n    tag_27:\n      0x01\n      dup1\n      sload\n      tag_93\n      swap1\n      tag_94\n      jump\t// in\n    tag_93:\n      dup1\n      0x1f\n      add\n      0x20\n      dup1\n      swap2\n      div\n      mul\n      0x20\n      add\n      mload(0x40)\n      swap1\n      dup2\n      add\n      0x40\n      mstore\n      dup1\n      swap3\n      swap2\n      swap1\n      dup2\n      dup2\n      mstore\n      0x20\n      add\n      dup3\n      dup1\n      sload\n      tag_95\n      swap1\n      tag_94\n      jump\t// in\n    tag_95:\n      dup1\n      iszero\n      tag_96\n      jumpi\n      dup1\n      0x1f\n      lt\n      tag_97\n      jumpi\n      0x0100\n      dup1\n      dup4\n      sload\n      div\n      mul\n      dup4\n      mstore\n      swap2\n      0x20\n      add\n      swap2\n      jump(tag_96)\n    tag_97:\n      dup3\n      add\n      swap2\n      swap1\n      0x00\n      mstore\n      keccak256(0x00, 0x20)\n      swap1\n    tag_98:\n      dup2\n      sload\n      dup2\n      mstore\n      swap1\n      0x01\n      add\n      swap1\n      0x20\n      add\n      dup1\n      dup4\n      gt\n      tag_98\n      jumpi\n      dup3\n      swap1\n      sub\n      0x1f\n      and\n      dup3\n      add\n      swap2\n    tag_96:\n      pop\n      pop\n      pop\n      pop\n      pop\n      dup2\n      jump\t// out\n        /* \"contracts/project/Auction.sol\":295:312  bool public ended */\n    tag_31:\n      0x05\n      0x01\n      swap1\n      sload\n      swap1\n      0x0100\n      exp\n      swap1\n      div\n      0xff\n      and\n      dup2\n      jump\t// out\n        /* \"contracts/project/Auction.sol\":5319:5462  function isActive() public view returns (bool) {... */\n    tag_35:\n        /* \"contracts/project/Auction.sol\":5360:5364  bool */\n      0x00\n        /* \"contracts/project/Auction.sol\":5384:5389  ended */\n      0x05\n      0x01\n      swap1\n      sload\n      swap1\n      0x0100\n      exp\n      swap1\n      div\n      0xff\n      and\n        /* \"contracts/project/Auction.sol\":5383:5389  !ended */\n      iszero\n        /* \"contracts/project/Auction.sol\":5383:5402  !ended && !canceled */\n      dup1\n      iszero\n      tag_100\n      jumpi\n      pop\n        /* \"contracts/project/Auction.sol\":5394:5402  canceled */\n      0x05\n      0x00\n      swap1\n      sload\n      swap1\n      0x0100\n      exp\n      swap1\n      div\n      0xff\n      and\n        /* \"contracts/project/Auction.sol\":5393:5402  !canceled */\n      iszero\n        /* \"contracts/project/Auction.sol\":5383:5402  !ended && !canceled */\n    tag_100:\n        /* \"contracts/project/Auction.sol\":5383:5430  !ended && !canceled && block.timestamp >= start */\n      dup1\n      iszero\n      tag_101\n      jumpi\n      pop\n        /* \"contracts/project/Auction.sol\":5425:5430  start */\n      sload(0x03)\n        /* \"contracts/project/Auction.sol\":5406:5421  block.timestamp */\n      timestamp\n        /* \"contracts/project/Auction.sol\":5406:5430  block.timestamp >= start */\n      lt\n      iszero\n        /* \"contracts/project/Auction.sol\":5383:5430  !ended && !canceled && block.timestamp >= start */\n    tag_101:\n        /* \"contracts/project/Auction.sol\":5383:5455  !ended && !canceled && block.timestamp >= start && block.timestamp < end */\n      dup1\n      iszero\n      tag_102\n      jumpi\n      pop\n        /* \"contracts/project/Auction.sol\":5452:5455  end */\n      sload(0x04)\n        /* \"contracts/project/Auction.sol\":5434:5449  block.timestamp */\n      timestamp\n        /* \"contracts/project/Auction.sol\":5434:5455  block.timestamp < end */\n      lt\n        /* \"contracts/project/Auction.sol\":5383:5455  !ended && !canceled && block.timestamp >= start && block.timestamp < end */\n    tag_102:\n        /* \"contracts/project/Auction.sol\":5376:5455  return !ended && !canceled && block.timestamp >= start && block.timestamp < end */\n      swap1\n      pop\n        /* \"contracts/project/Auction.sol\":5319:5462  function isActive() public view returns (bool) {... */\n      swap1\n      jump\t// out\n        /* \"contracts/project/Auction.sol\":4748:5058  function withdraw() external {... */\n    tag_38:\n        /* \"contracts/project/Auction.sol\":4795:4800  ended */\n      0x05\n      0x01\n      swap1\n      sload\n      swap1\n      0x0100\n      exp\n      swap1\n      div\n      0xff\n      and\n        /* \"contracts/project/Auction.sol\":4795:4812  ended || canceled */\n      dup1\n      tag_104\n      jumpi\n      pop\n        /* \"contracts/project/Auction.sol\":4804:4812  canceled */\n      0x05\n      0x00\n      swap1\n      sload\n      swap1\n      0x0100\n      exp\n      swap1\n      div\n      0xff\n      and\n        /* \"contracts/project/Auction.sol\":4795:4812  ended || canceled */\n    tag_104:\n        /* \"contracts/project/Auction.sol\":4787:4834  require(ended || canceled, \"Auction not ended\") */\n      tag_105\n      jumpi\n      mload(0x40)\n      0x08c379a000000000000000000000000000000000000000000000000000000000\n      dup2\n      mstore\n      0x04\n      add\n      tag_106\n      swap1\n      tag_107\n      jump\t// in\n    tag_106:\n      mload(0x40)\n      dup1\n      swap2\n      sub\n      swap1\n      revert\n    tag_105:\n        /* \"contracts/project/Auction.sol\":4844:4858  uint256 amount */\n      0x00\n        /* \"contracts/project/Auction.sol\":4861:4865  bids */\n      0x06\n        /* \"contracts/project/Auction.sol\":4861:4877  bids[msg.sender] */\n      0x00\n        /* \"contracts/project/Auction.sol\":4866:4876  msg.sender */\n      caller\n        /* \"contracts/project/Auction.sol\":4861:4877  bids[msg.sender] */\n      0xffffffffffffffffffffffffffffffffffffffff\n      and\n      0xffffffffffffffffffffffffffffffffffffffff\n      and\n      dup2\n      mstore\n      0x20\n      add\n      swap1\n      dup2\n      mstore\n      0x20\n      add\n      0x00\n      keccak256\n      sload\n        /* \"contracts/project/Auction.sol\":4844:4877  uint256 amount = bids[msg.sender] */\n      swap1\n      pop\n        /* \"contracts/project/Auction.sol\":4904:4905  0 */\n      0x00\n        /* \"contracts/project/Auction.sol\":4895:4901  amount */\n      dup2\n        /* \"contracts/project/Auction.sol\":4895:4905  amount > 0 */\n      gt\n        /* \"contracts/project/Auction.sol\":4887:4929  require(amount > 0, \"Nothing to withdraw\") */\n      tag_108\n      jumpi\n      mload(0x40)\n      0x08c379a000000000000000000000000000000000000000000000000000000000\n      dup2\n      mstore\n      0x04\n      add\n      tag_109\n      swap1\n      tag_110\n      jump\t// in\n    tag_109:\n      mload(0x40)\n      dup1\n      swap2\n      sub\n      swap1\n      revert\n    tag_108:\n        /* \"contracts/project/Auction.sol\":4967:4968  0 */\n      0x00\n        /* \"contracts/project/Auction.sol\":4948:4952  bids */\n      0x06\n        /* \"contracts/project/Auction.sol\":4948:4964  bids[msg.sender] */\n      0x00\n        /* \"contracts/project/Auction.sol\":4953:4963  msg.sender */\n      caller\n        /* \"contracts/project/Auction.sol\":4948:4964  bids[msg.sender] */\n      0xffffffffffffffffffffffffffffffffffffffff\n      and\n      0xffffffffffffffffffffffffffffffffffffffff\n      and\n      dup2\n      mstore\n      0x20\n      add\n      swap1\n      dup2\n      mstore\n      0x20\n      add\n      0x00\n      keccak256\n        /* \"contracts/project/Auction.sol\":4948:4968  bids[msg.sender] = 0 */\n      dup2\n      swap1\n      sstore\n      pop\n        /* \"contracts/project/Auction.sol\":4986:4991  token */\n      0x05\n      0x02\n      swap1\n      sload\n      swap1\n      0x0100\n      exp\n      swap1\n      div\n      0xffffffffffffffffffffffffffffffffffffffff\n      and\n        /* \"contracts/project/Auction.sol\":4986:5000  token.transfer */\n      0xffffffffffffffffffffffffffffffffffffffff\n      and\n      0xa9059cbb\n        /* \"contracts/project/Auction.sol\":5001:5011  msg.sender */\n      caller\n        /* \"contracts/project/Auction.sol\":5013:5019  amount */\n      dup4\n        /* \"contracts/project/Auction.sol\":4986:5020  token.transfer(msg.sender, amount) */\n      mload(0x40)\n      dup4\n      0xffffffff\n      and\n      0xe0\n      shl\n      dup2\n      mstore\n      0x04\n      add\n      tag_111\n      swap3\n      swap2\n      swap1\n      tag_112\n      jump\t// in\n    tag_111:\n      0x20\n      mload(0x40)\n      dup1\n      dup4\n      sub\n      dup2\n      0x00\n      dup8\n      gas\n      call\n      iszero\n      dup1\n      iszero\n      tag_114\n      jumpi\n      returndatacopy(0x00, 0x00, returndatasize)\n      revert(0x00, returndatasize)\n    tag_114:\n      pop\n      pop\n      pop\n      pop\n      mload(0x40)\n      returndatasize\n      not(0x1f)\n      0x1f\n      dup3\n      add\n      and\n      dup3\n      add\n      dup1\n      0x40\n      mstore\n      pop\n      dup2\n      add\n      swap1\n      tag_115\n      swap2\n      swap1\n      tag_116\n      jump\t// in\n    tag_115:\n        /* \"contracts/project/Auction.sol\":4978:5051  require(token.transfer(msg.sender, amount), \"Withdrawal transfer failed\") */\n      tag_117\n      jumpi\n      mload(0x40)\n      0x08c379a000000000000000000000000000000000000000000000000000000000\n      dup2\n      mstore\n      0x04\n      add\n      tag_118\n      swap1\n      tag_119\n      jump\t// in\n    tag_118:\n      mload(0x40)\n      dup1\n      swap2\n      sub\n      swap1\n      revert\n    tag_117:\n        /* \"contracts/project/Auction.sol\":4777:5058  {... */\n      pop\n        /* \"contracts/project/Auction.sol\":4748:5058  function withdraw() external {... */\n      jump\t// out\n        /* \"contracts/project/Auction.sol\":269:289  bool public canceled */\n    tag_40:\n      0x05\n      0x00\n      swap1\n      sload\n      swap1\n      0x0100\n      exp\n      swap1\n      div\n      0xff\n      and\n      dup2\n      jump\t// out\n        /* \"contracts/project/Auction.sol\":188:213  string public description */\n    tag_43:\n      0x02\n      dup1\n      sload\n      tag_120\n      swap1\n      tag_94\n      jump\t// in\n    tag_120:\n      dup1\n      0x1f\n      add\n      0x20\n      dup1\n      swap2\n      div\n      mul\n      0x20\n      add\n      mload(0x40)\n      swap1\n      dup2\n      add\n      0x40\n      mstore\n      dup1\n      swap3\n      swap2\n      swap1\n      dup2\n      dup2\n      mstore\n      0x20\n      add\n      dup3\n      dup1\n      sload\n      tag_121\n      swap1\n      tag_94\n      jump\t// in\n    tag_121:\n      dup1\n      iszero\n      tag_122\n      jumpi\n      dup1\n      0x1f\n      lt\n      tag_123\n      jumpi\n      0x0100\n      dup1\n      dup4\n      sload\n      div\n      mul\n      dup4\n      mstore\n      swap2\n      0x20\n      add\n      swap2\n      jump(tag_122)\n    tag_123:\n      dup3\n      add\n      swap2\n      swap1\n      0x00\n      mstore\n      keccak256(0x00, 0x20)\n      swap1\n    tag_124:\n      dup2\n      sload\n      dup2\n      mstore\n      swap1\n      0x01\n      add\n      swap1\n      0x20\n      add\n      dup1\n      dup4\n      gt\n      tag_124\n      jumpi\n      dup3\n      swap1\n      sub\n      0x1f\n      and\n      dup3\n      add\n      swap2\n    tag_122:\n      pop\n      pop\n      pop\n      pop\n      pop\n      dup2\n      jump\t// out\n        /* \"contracts/project/Auction.sol\":5196:5309  function getTokenBalance() external view returns (uint256) {... */\n    tag_46:\n        /* \"contracts/project/Auction.sol\":5246:5253  uint256 */\n      0x00\n        /* \"contracts/project/Auction.sol\":5272:5277  token */\n      0x05\n      0x02\n      swap1\n      sload\n      swap1\n      0x0100\n      exp\n      swap1\n      div\n      0xffffffffffffffffffffffffffffffffffffffff\n      and\n        /* \"contracts/project/Auction.sol\":5272:5287  token.balanceOf */\n      0xffffffffffffffffffffffffffffffffffffffff\n      and\n      0x70a08231\n        /* \"contracts/project/Auction.sol\":5296:5300  this */\n      address\n        /* \"contracts/project/Auction.sol\":5272:5302  token.balanceOf(address(this)) */\n      mload(0x40)\n      dup3\n      0xffffffff\n      and\n      0xe0\n      shl\n      dup2\n      mstore\n      0x04\n      add\n      tag_126\n      swap2\n      swap1\n      tag_58\n      jump\t// in\n    tag_126:\n      0x20\n      mload(0x40)\n      dup1\n      dup4\n      sub\n      dup2\n      dup7\n      gas\n      staticcall\n      iszero\n      dup1\n      iszero\n      tag_128\n      jumpi\n      returndatacopy(0x00, 0x00, returndatasize)\n      revert(0x00, returndatasize)\n    tag_128:\n      pop\n      pop\n      pop\n      pop\n      mload(0x40)\n      returndatasize\n      not(0x1f)\n      0x1f\n      dup3\n      add\n      and\n      dup3\n      add\n      dup1\n      0x40\n      mstore\n      pop\n      dup2\n      add\n      swap1\n      tag_129\n      swap2\n      swap1\n      tag_130\n      jump\t// in\n    tag_129:\n        /* \"contracts/project/Auction.sol\":5265:5302  return token.balanceOf(address(this)) */\n      swap1\n      pop\n        /* \"contracts/project/Auction.sol\":5196:5309  function getTokenBalance() external view returns (uint256) {... */\n      swap1\n      jump\t// out\n        /* \"contracts/project/Auction.sol\":130:158  address payable public owner */\n    tag_50:\n      0x00\n      0x00\n      swap1\n      sload\n      swap1\n      0x0100\n      exp\n      swap1\n      div\n      0xffffffffffffffffffffffffffffffffffffffff\n      and\n      dup2\n      jump\t// out\n        /* \"contracts/project/Auction.sol\":3348:3865  function cancelAuction() external {... */\n    tag_54:\n        /* \"contracts/project/Auction.sol\":3414:3419  owner */\n      0x00\n      0x00\n      swap1\n      sload\n      swap1\n      0x0100\n      exp\n      swap1\n      div\n      0xffffffffffffffffffffffffffffffffffffffff\n      and\n        /* \"contracts/project/Auction.sol\":3400:3419  msg.sender == owner */\n      0xffffffffffffffffffffffffffffffffffffffff\n      and\n        /* \"contracts/project/Auction.sol\":3400:3410  msg.sender */\n      caller\n        /* \"contracts/project/Auction.sol\":3400:3419  msg.sender == owner */\n      0xffffffffffffffffffffffffffffffffffffffff\n      and\n      eq\n        /* \"contracts/project/Auction.sol\":3392:3433  require(msg.sender == owner, \"Not owner\") */\n      tag_132\n      jumpi\n      mload(0x40)\n      0x08c379a000000000000000000000000000000000000000000000000000000000\n      dup2\n      mstore\n      0x04\n      add\n      tag_133\n      swap1\n      tag_134\n      jump\t// in\n    tag_133:\n      mload(0x40)\n      dup1\n      swap2\n      sub\n      swap1\n      revert\n    tag_132:\n        /* \"contracts/project/Auction.sol\":3452:3460  canceled */\n      0x05\n      0x00\n      swap1\n      sload\n      swap1\n      0x0100\n      exp\n      swap1\n      div\n      0xff\n      and\n        /* \"contracts/project/Auction.sol\":3451:3460  !canceled */\n      iszero\n        /* \"contracts/project/Auction.sol\":3443:3481  require(!canceled, \"Already canceled\") */\n      tag_135\n      jumpi\n      mload(0x40)\n      0x08c379a000000000000000000000000000000000000000000000000000000000\n      dup2\n      mstore\n      0x04\n      add\n      tag_136\n      swap1\n      tag_137\n      jump\t// in\n    tag_136:\n      mload(0x40)\n      dup1\n      swap2\n      sub\n      swap1\n      revert\n    tag_135:\n        /* \"contracts/project/Auction.sol\":3500:3505  ended */\n      0x05\n      0x01\n      swap1\n      sload\n      swap1\n      0x0100\n      exp\n      swap1\n      div\n      0xff\n      and\n        /* \"contracts/project/Auction.sol\":3499:3505  !ended */\n      iszero\n        /* \"contracts/project/Auction.sol\":3491:3523  require(!ended, \"Already ended\") */\n      tag_138\n      jumpi\n      mload(0x40)\n      0x08c379a000000000000000000000000000000000000000000000000000000000\n      dup2\n      mstore\n      0x04\n      add\n      tag_139\n      swap1\n      tag_140\n      jump\t// in\n    tag_139:\n      mload(0x40)\n      dup1\n      swap2\n      sub\n      swap1\n      revert\n    tag_138:\n        /* \"contracts/project/Auction.sol\":3553:3557  true */\n      0x01\n        /* \"contracts/project/Auction.sol\":3542:3550  canceled */\n      0x05\n      0x00\n        /* \"contracts/project/Auction.sol\":3542:3557  canceled = true */\n      0x0100\n      exp\n      dup2\n      sload\n      dup2\n      0xff\n      mul\n      not\n      and\n      swap1\n      dup4\n      iszero\n      iszero\n      mul\n      or\n      swap1\n      sstore\n      pop\n        /* \"contracts/project/Auction.sol\":3658:3659  0 */\n      0x00\n        /* \"contracts/project/Auction.sol\":3633:3660  highestBidder != address(0) */\n      0xffffffffffffffffffffffffffffffffffffffff\n      and\n        /* \"contracts/project/Auction.sol\":3633:3646  highestBidder */\n      0x07\n      0x00\n      swap1\n      sload\n      swap1\n      0x0100\n      exp\n      swap1\n      div\n      0xffffffffffffffffffffffffffffffffffffffff\n      and\n        /* \"contracts/project/Auction.sol\":3633:3660  highestBidder != address(0) */\n      0xffffffffffffffffffffffffffffffffffffffff\n      and\n      eq\n      iszero\n        /* \"contracts/project/Auction.sol\":3633:3678  highestBidder != address(0) && highestBid > 0 */\n      dup1\n      iszero\n      tag_141\n      jumpi\n      pop\n        /* \"contracts/project/Auction.sol\":3677:3678  0 */\n      0x00\n        /* \"contracts/project/Auction.sol\":3664:3674  highestBid */\n      sload(0x08)\n        /* \"contracts/project/Auction.sol\":3664:3678  highestBid > 0 */\n      gt\n        /* \"contracts/project/Auction.sol\":3633:3678  highestBidder != address(0) && highestBid > 0 */\n    tag_141:\n        /* \"contracts/project/Auction.sol\":3629:3818  if (highestBidder != address(0) && highestBid > 0) {... */\n      iszero\n      tag_142\n      jumpi\n        /* \"contracts/project/Auction.sol\":3702:3707  token */\n      0x05\n      0x02\n      swap1\n      sload\n      swap1\n      0x0100\n      exp\n      swap1\n      div\n      0xffffffffffffffffffffffffffffffffffffffff\n      and\n        /* \"contracts/project/Auction.sol\":3702:3716  token.transfer */\n      0xffffffffffffffffffffffffffffffffffffffff\n      and\n      0xa9059cbb\n        /* \"contracts/project/Auction.sol\":3717:3730  highestBidder */\n      0x07\n      0x00\n      swap1\n      sload\n      swap1\n      0x0100\n      exp\n      swap1\n      div\n      0xffffffffffffffffffffffffffffffffffffffff\n      and\n        /* \"contracts/project/Auction.sol\":3732:3742  highestBid */\n      sload(0x08)\n        /* \"contracts/project/Auction.sol\":3702:3743  token.transfer(highestBidder, highestBid) */\n      mload(0x40)\n      dup4\n      0xffffffff\n      and\n      0xe0\n      shl\n      dup2\n      mstore\n      0x04\n      add\n      tag_143\n      swap3\n      swap2\n      swap1\n      tag_112\n      jump\t// in\n    tag_143:\n      0x20\n      mload(0x40)\n      dup1\n      dup4\n      sub\n      dup2\n      0x00\n      dup8\n      gas\n      call\n      iszero\n      dup1\n      iszero\n      tag_145\n      jumpi\n      returndatacopy(0x00, 0x00, returndatasize)\n      revert(0x00, returndatasize)\n    tag_145:\n      pop\n      pop\n      pop\n      pop\n      mload(0x40)\n      returndatasize\n      not(0x1f)\n      0x1f\n      dup3\n      add\n      and\n      dup3\n      add\n      dup1\n      0x40\n      mstore\n      pop\n      dup2\n      add\n      swap1\n      tag_146\n      swap2\n      swap1\n      tag_116\n      jump\t// in\n    tag_146:\n        /* \"contracts/project/Auction.sol\":3694:3770  require(token.transfer(highestBidder, highestBid), \"Refund transfer failed\") */\n      tag_147\n      jumpi\n      mload(0x40)\n      0x08c379a000000000000000000000000000000000000000000000000000000000\n      dup2\n      mstore\n      0x04\n      add\n      tag_148\n      swap1\n      tag_149\n      jump\t// in\n    tag_148:\n      mload(0x40)\n      dup1\n      swap2\n      sub\n      swap1\n      revert\n    tag_147:\n        /* \"contracts/project/Auction.sol\":3806:3807  0 */\n      0x00\n        /* \"contracts/project/Auction.sol\":3784:3788  bids */\n      0x06\n        /* \"contracts/project/Auction.sol\":3784:3803  bids[highestBidder] */\n      0x00\n        /* \"contracts/project/Auction.sol\":3789:3802  highestBidder */\n      0x07\n      0x00\n      swap1\n      sload\n      swap1\n      0x0100\n      exp\n      swap1\n      div\n      0xffffffffffffffffffffffffffffffffffffffff\n      and\n        /* \"contracts/project/Auction.sol\":3784:3803  bids[highestBidder] */\n      0xffffffffffffffffffffffffffffffffffffffff\n      and\n      0xffffffffffffffffffffffffffffffffffffffff\n      and\n      dup2\n      mstore\n      0x20\n      add\n      swap1\n      dup2\n      mstore\n      0x20\n      add\n      0x00\n      keccak256\n        /* \"contracts/project/Auction.sol\":3784:3807  bids[highestBidder] = 0 */\n      dup2\n      swap1\n      sstore\n      pop\n        /* \"contracts/project/Auction.sol\":3629:3818  if (highestBidder != address(0) && highestBid > 0) {... */\n    tag_142:\n        /* \"contracts/project/Auction.sol\":3841:3858  AuctionCanceled() */\n      0x3edab9d02702b82c68bc3a966d302af41abe4f3d8e2408b27b94e5f9bf2d722c\n      mload(0x40)\n      mload(0x40)\n      dup1\n      swap2\n      sub\n      swap1\n      log1\n        /* \"contracts/project/Auction.sol\":3348:3865  function cancelAuction() external {... */\n      jump\t// out\n        /* \"contracts/project/Auction.sol\":415:443  address public highestBidder */\n    tag_56:\n      0x07\n      0x00\n      swap1\n      sload\n      swap1\n      0x0100\n      exp\n      swap1\n      div\n      0xffffffffffffffffffffffffffffffffffffffff\n      and\n      dup2\n      jump\t// out\n        /* \"contracts/project/Auction.sol\":1406:3342  function placeBid(uint256 bidAmount) public {... */\n    tag_62:\n        /* \"contracts/project/Auction.sol\":1482:1487  owner */\n      0x00\n      0x00\n      swap1\n      sload\n      swap1\n      0x0100\n      exp\n      swap1\n      div\n      0xffffffffffffffffffffffffffffffffffffffff\n      and\n        /* \"contracts/project/Auction.sol\":1468:1487  msg.sender != owner */\n      0xffffffffffffffffffffffffffffffffffffffff\n      and\n        /* \"contracts/project/Auction.sol\":1468:1478  msg.sender */\n      caller\n        /* \"contracts/project/Auction.sol\":1468:1487  msg.sender != owner */\n      0xffffffffffffffffffffffffffffffffffffffff\n      and\n      sub\n        /* \"contracts/project/Auction.sol\":1460:1508  require(msg.sender != owner, \"Owner cannot bid\") */\n      tag_151\n      jumpi\n      mload(0x40)\n      0x08c379a000000000000000000000000000000000000000000000000000000000\n      dup2\n      mstore\n      0x04\n      add\n      tag_152\n      swap1\n      tag_153\n      jump\t// in\n    tag_152:\n      mload(0x40)\n      dup1\n      swap2\n      sub\n      swap1\n      revert\n    tag_151:\n        /* \"contracts/project/Auction.sol\":1527:1532  ended */\n      0x05\n      0x01\n      swap1\n      sload\n      swap1\n      0x0100\n      exp\n      swap1\n      div\n      0xff\n      and\n        /* \"contracts/project/Auction.sol\":1526:1532  !ended */\n      iszero\n        /* \"contracts/project/Auction.sol\":1526:1545  !ended && !canceled */\n      dup1\n      iszero\n      tag_154\n      jumpi\n      pop\n        /* \"contracts/project/Auction.sol\":1537:1545  canceled */\n      0x05\n      0x00\n      swap1\n      sload\n      swap1\n      0x0100\n      exp\n      swap1\n      div\n      0xff\n      and\n        /* \"contracts/project/Auction.sol\":1536:1545  !canceled */\n      iszero\n        /* \"contracts/project/Auction.sol\":1526:1545  !ended && !canceled */\n    tag_154:\n        /* \"contracts/project/Auction.sol\":1518:1575  require(!ended && !canceled, \"Auction ended or canceled\") */\n      tag_155\n      jumpi\n      mload(0x40)\n      0x08c379a000000000000000000000000000000000000000000000000000000000\n      dup2\n      mstore\n      0x04\n      add\n      tag_156\n      swap1\n      tag_157\n      jump\t// in\n    tag_156:\n      mload(0x40)\n      dup1\n      swap2\n      sub\n      swap1\n      revert\n    tag_155:\n        /* \"contracts/project/Auction.sol\":1612:1617  start */\n      sload(0x03)\n        /* \"contracts/project/Auction.sol\":1593:1608  block.timestamp */\n      timestamp\n        /* \"contracts/project/Auction.sol\":1593:1617  block.timestamp >= start */\n      lt\n      iszero\n        /* \"contracts/project/Auction.sol\":1585:1641  require(block.timestamp >= start, \"Auction not started\") */\n      tag_158\n      jumpi\n      mload(0x40)\n      0x08c379a000000000000000000000000000000000000000000000000000000000\n      dup2\n      mstore\n      0x04\n      add\n      tag_159\n      swap1\n      tag_160\n      jump\t// in\n    tag_159:\n      mload(0x40)\n      dup1\n      swap2\n      sub\n      swap1\n      revert\n    tag_158:\n        /* \"contracts/project/Auction.sol\":1677:1680  end */\n      sload(0x04)\n        /* \"contracts/project/Auction.sol\":1659:1674  block.timestamp */\n      timestamp\n        /* \"contracts/project/Auction.sol\":1659:1680  block.timestamp < end */\n      lt\n        /* \"contracts/project/Auction.sol\":1651:1698  require(block.timestamp < end, \"Auction ended\") */\n      tag_161\n      jumpi\n      mload(0x40)\n      0x08c379a000000000000000000000000000000000000000000000000000000000\n      dup2\n      mstore\n      0x04\n      add\n      tag_162\n      swap1\n      tag_163\n      jump\t// in\n    tag_162:\n      mload(0x40)\n      dup1\n      swap2\n      sub\n      swap1\n      revert\n    tag_161:\n        /* \"contracts/project/Auction.sol\":1728:1729  0 */\n      0x00\n        /* \"contracts/project/Auction.sol\":1716:1725  bidAmount */\n      dup2\n        /* \"contracts/project/Auction.sol\":1716:1729  bidAmount > 0 */\n      gt\n        /* \"contracts/project/Auction.sol\":1708:1760  require(bidAmount > 0, \"Bid must be greater than 0\") */\n      tag_164\n      jumpi\n      mload(0x40)\n      0x08c379a000000000000000000000000000000000000000000000000000000000\n      dup2\n      mstore\n      0x04\n      add\n      tag_165\n      swap1\n      tag_166\n      jump\t// in\n    tag_165:\n      mload(0x40)\n      dup1\n      swap2\n      sub\n      swap1\n      revert\n    tag_164:\n        /* \"contracts/project/Auction.sol\":1863:1872  bidAmount */\n      dup1\n        /* \"contracts/project/Auction.sol\":1832:1837  token */\n      0x05\n      0x02\n      swap1\n      sload\n      swap1\n      0x0100\n      exp\n      swap1\n      div\n      0xffffffffffffffffffffffffffffffffffffffff\n      and\n        /* \"contracts/project/Auction.sol\":1832:1847  token.balanceOf */\n      0xffffffffffffffffffffffffffffffffffffffff\n      and\n      0x70a08231\n        /* \"contracts/project/Auction.sol\":1848:1858  msg.sender */\n      caller\n        /* \"contracts/project/Auction.sol\":1832:1859  token.balanceOf(msg.sender) */\n      mload(0x40)\n      dup3\n      0xffffffff\n      and\n      0xe0\n      shl\n      dup2\n      mstore\n      0x04\n      add\n      tag_167\n      swap2\n      swap1\n      tag_58\n      jump\t// in\n    tag_167:\n      0x20\n      mload(0x40)\n      dup1\n      dup4\n      sub\n      dup2\n      dup7\n      gas\n      staticcall\n      iszero\n      dup1\n      iszero\n      tag_169\n      jumpi\n      returndatacopy(0x00, 0x00, returndatasize)\n      revert(0x00, returndatasize)\n    tag_169:\n      pop\n      pop\n      pop\n      pop\n      mload(0x40)\n      returndatasize\n      not(0x1f)\n      0x1f\n      dup3\n      add\n      and\n      dup3\n      add\n      dup1\n      0x40\n      mstore\n      pop\n      dup2\n      add\n      swap1\n      tag_170\n      swap2\n      swap1\n      tag_130\n      jump\t// in\n    tag_170:\n        /* \"contracts/project/Auction.sol\":1832:1872  token.balanceOf(msg.sender) >= bidAmount */\n      lt\n      iszero\n        /* \"contracts/project/Auction.sol\":1824:1903  require(token.balanceOf(msg.sender) >= bidAmount, \"Insufficient token balance\") */\n      tag_171\n      jumpi\n      mload(0x40)\n      0x08c379a000000000000000000000000000000000000000000000000000000000\n      dup2\n      mstore\n      0x04\n      add\n      tag_172\n      swap1\n      tag_173\n      jump\t// in\n    tag_172:\n      mload(0x40)\n      dup1\n      swap2\n      sub\n      swap1\n      revert\n    tag_171:\n        /* \"contracts/project/Auction.sol\":1969:1985  uint256 totalBid */\n      0x00\n        /* \"contracts/project/Auction.sol\":2007:2016  bidAmount */\n      dup2\n        /* \"contracts/project/Auction.sol\":1988:1992  bids */\n      0x06\n        /* \"contracts/project/Auction.sol\":1988:2004  bids[msg.sender] */\n      0x00\n        /* \"contracts/project/Auction.sol\":1993:2003  msg.sender */\n      caller\n        /* \"contracts/project/Auction.sol\":1988:2004  bids[msg.sender] */\n      0xffffffffffffffffffffffffffffffffffffffff\n      and\n      0xffffffffffffffffffffffffffffffffffffffff\n      and\n      dup2\n      mstore\n      0x20\n      add\n      swap1\n      dup2\n      mstore\n      0x20\n      add\n      0x00\n      keccak256\n      sload\n        /* \"contracts/project/Auction.sol\":1988:2016  bids[msg.sender] + bidAmount */\n      tag_174\n      swap2\n      swap1\n      tag_175\n      jump\t// in\n    tag_174:\n        /* \"contracts/project/Auction.sol\":1969:2016  uint256 totalBid = bids[msg.sender] + bidAmount */\n      swap1\n      pop\n        /* \"contracts/project/Auction.sol\":2066:2075  increment */\n      sload(0x0a)\n        /* \"contracts/project/Auction.sol\":2046:2063  highestBindingBid */\n      sload(0x09)\n        /* \"contracts/project/Auction.sol\":2046:2075  highestBindingBid + increment */\n      tag_176\n      swap2\n      swap1\n      tag_175\n      jump\t// in\n    tag_176:\n        /* \"contracts/project/Auction.sol\":2034:2042  totalBid */\n      dup2\n        /* \"contracts/project/Auction.sol\":2034:2075  totalBid >= highestBindingBid + increment */\n      lt\n      iszero\n        /* \"contracts/project/Auction.sol\":2026:2094  require(totalBid >= highestBindingBid + increment, \"Bid is too low\") */\n      tag_177\n      jumpi\n      mload(0x40)\n      0x08c379a000000000000000000000000000000000000000000000000000000000\n      dup2\n      mstore\n      0x04\n      add\n      tag_178\n      swap1\n      tag_179\n      jump\t// in\n    tag_178:\n      mload(0x40)\n      dup1\n      swap2\n      sub\n      swap1\n      revert\n    tag_177:\n        /* \"contracts/project/Auction.sol\":2188:2193  token */\n      0x05\n      0x02\n      swap1\n      sload\n      swap1\n      0x0100\n      exp\n      swap1\n      div\n      0xffffffffffffffffffffffffffffffffffffffff\n      and\n        /* \"contracts/project/Auction.sol\":2188:2206  token.transferFrom */\n      0xffffffffffffffffffffffffffffffffffffffff\n      and\n      0x23b872dd\n        /* \"contracts/project/Auction.sol\":2207:2217  msg.sender */\n      caller\n        /* \"contracts/project/Auction.sol\":2227:2231  this */\n      address\n        /* \"contracts/project/Auction.sol\":2234:2243  bidAmount */\n      dup6\n        /* \"contracts/project/Auction.sol\":2188:2244  token.transferFrom(msg.sender, address(this), bidAmount) */\n      mload(0x40)\n      dup5\n      0xffffffff\n      and\n      0xe0\n      shl\n      dup2\n      mstore\n      0x04\n      add\n      tag_180\n      swap4\n      swap3\n      swap2\n      swap1\n      tag_181\n      jump\t// in\n    tag_180:\n      0x20\n      mload(0x40)\n      dup1\n      dup4\n      sub\n      dup2\n      0x00\n      dup8\n      gas\n      call\n      iszero\n      dup1\n      iszero\n      tag_183\n      jumpi\n      returndatacopy(0x00, 0x00, returndatasize)\n      revert(0x00, returndatasize)\n    tag_183:\n      pop\n      pop\n      pop\n      pop\n      mload(0x40)\n      returndatasize\n      not(0x1f)\n      0x1f\n      dup3\n      add\n      and\n      dup3\n      add\n      dup1\n      0x40\n      mstore\n      pop\n      dup2\n      add\n      swap1\n      tag_184\n      swap2\n      swap1\n      tag_116\n      jump\t// in\n    tag_184:\n        /* \"contracts/project/Auction.sol\":2180:2270  require(token.transferFrom(msg.sender, address(this), bidAmount), \"Token transfer failed\") */\n      tag_185\n      jumpi\n      mload(0x40)\n      0x08c379a000000000000000000000000000000000000000000000000000000000\n      dup2\n      mstore\n      0x04\n      add\n      tag_186\n      swap1\n      tag_187\n      jump\t// in\n    tag_186:\n      mload(0x40)\n      dup1\n      swap2\n      sub\n      swap1\n      revert\n    tag_185:\n        /* \"contracts/project/Auction.sol\":2337:2345  totalBid */\n      dup1\n        /* \"contracts/project/Auction.sol\":2318:2322  bids */\n      0x06\n        /* \"contracts/project/Auction.sol\":2318:2334  bids[msg.sender] */\n      0x00\n        /* \"contracts/project/Auction.sol\":2323:2333  msg.sender */\n      caller\n        /* \"contracts/project/Auction.sol\":2318:2334  bids[msg.sender] */\n      0xffffffffffffffffffffffffffffffffffffffff\n      and\n      0xffffffffffffffffffffffffffffffffffffffff\n      and\n      dup2\n      mstore\n      0x20\n      add\n      swap1\n      dup2\n      mstore\n      0x20\n      add\n      0x00\n      keccak256\n        /* \"contracts/project/Auction.sol\":2318:2345  bids[msg.sender] = totalBid */\n      dup2\n      swap1\n      sstore\n      pop\n        /* \"contracts/project/Auction.sol\":2402:2428  uint256 previousHighestBid */\n      0x00\n        /* \"contracts/project/Auction.sol\":2431:2441  highestBid */\n      sload(0x08)\n        /* \"contracts/project/Auction.sol\":2402:2441  uint256 previousHighestBid = highestBid */\n      swap1\n      pop\n        /* \"contracts/project/Auction.sol\":2451:2480  address previousHighestBidder */\n      0x00\n        /* \"contracts/project/Auction.sol\":2483:2496  highestBidder */\n      0x07\n      0x00\n      swap1\n      sload\n      swap1\n      0x0100\n      exp\n      swap1\n      div\n      0xffffffffffffffffffffffffffffffffffffffff\n      and\n        /* \"contracts/project/Auction.sol\":2451:2496  address previousHighestBidder = highestBidder */\n      swap1\n      pop\n        /* \"contracts/project/Auction.sol\":2558:2568  msg.sender */\n      caller\n        /* \"contracts/project/Auction.sol\":2542:2555  highestBidder */\n      0x07\n      0x00\n        /* \"contracts/project/Auction.sol\":2542:2568  highestBidder = msg.sender */\n      0x0100\n      exp\n      dup2\n      sload\n      dup2\n      0xffffffffffffffffffffffffffffffffffffffff\n      mul\n      not\n      and\n      swap1\n      dup4\n      0xffffffffffffffffffffffffffffffffffffffff\n      and\n      mul\n      or\n      swap1\n      sstore\n      pop\n        /* \"contracts/project/Auction.sol\":2591:2599  totalBid */\n      dup3\n        /* \"contracts/project/Auction.sol\":2578:2588  highestBid */\n      0x08\n        /* \"contracts/project/Auction.sol\":2578:2599  highestBid = totalBid */\n      dup2\n      swap1\n      sstore\n      pop\n        /* \"contracts/project/Auction.sol\":2700:2701  0 */\n      0x00\n        /* \"contracts/project/Auction.sol\":2667:2702  previousHighestBidder != address(0) */\n      0xffffffffffffffffffffffffffffffffffffffff\n      and\n        /* \"contracts/project/Auction.sol\":2667:2688  previousHighestBidder */\n      dup2\n        /* \"contracts/project/Auction.sol\":2667:2702  previousHighestBidder != address(0) */\n      0xffffffffffffffffffffffffffffffffffffffff\n      and\n      eq\n        /* \"contracts/project/Auction.sol\":2663:3289  if (previousHighestBidder != address(0)) {... */\n      tag_188\n      jumpi\n        /* \"contracts/project/Auction.sol\":2818:2819  0 */\n      0x00\n        /* \"contracts/project/Auction.sol\":2788:2792  bids */\n      0x06\n        /* \"contracts/project/Auction.sol\":2788:2815  bids[previousHighestBidder] */\n      0x00\n        /* \"contracts/project/Auction.sol\":2793:2814  previousHighestBidder */\n      dup4\n        /* \"contracts/project/Auction.sol\":2788:2815  bids[previousHighestBidder] */\n      0xffffffffffffffffffffffffffffffffffffffff\n      and\n      0xffffffffffffffffffffffffffffffffffffffff\n      and\n      dup2\n      mstore\n      0x20\n      add\n      swap1\n      dup2\n      mstore\n      0x20\n      add\n      0x00\n      keccak256\n        /* \"contracts/project/Auction.sol\":2788:2819  bids[previousHighestBidder] = 0 */\n      dup2\n      swap1\n      sstore\n      pop\n        /* \"contracts/project/Auction.sol\":2841:2846  token */\n      0x05\n      0x02\n      swap1\n      sload\n      swap1\n      0x0100\n      exp\n      swap1\n      div\n      0xffffffffffffffffffffffffffffffffffffffff\n      and\n        /* \"contracts/project/Auction.sol\":2841:2855  token.transfer */\n      0xffffffffffffffffffffffffffffffffffffffff\n      and\n      0xa9059cbb\n        /* \"contracts/project/Auction.sol\":2856:2877  previousHighestBidder */\n      dup3\n        /* \"contracts/project/Auction.sol\":2879:2897  previousHighestBid */\n      dup5\n        /* \"contracts/project/Auction.sol\":2841:2898  token.transfer(previousHighestBidder, previousHighestBid) */\n      mload(0x40)\n      dup4\n      0xffffffff\n      and\n      0xe0\n      shl\n      dup2\n      mstore\n      0x04\n      add\n      tag_189\n      swap3\n      swap2\n      swap1\n      tag_112\n      jump\t// in\n    tag_189:\n      0x20\n      mload(0x40)\n      dup1\n      dup4\n      sub\n      dup2\n      0x00\n      dup8\n      gas\n      call\n      iszero\n      dup1\n      iszero\n      tag_191\n      jumpi\n      returndatacopy(0x00, 0x00, returndatasize)\n      revert(0x00, returndatasize)\n    tag_191:\n      pop\n      pop\n      pop\n      pop\n      mload(0x40)\n      returndatasize\n      not(0x1f)\n      0x1f\n      dup3\n      add\n      and\n      dup3\n      add\n      dup1\n      0x40\n      mstore\n      pop\n      dup2\n      add\n      swap1\n      tag_192\n      swap2\n      swap1\n      tag_116\n      jump\t// in\n    tag_192:\n        /* \"contracts/project/Auction.sol\":2833:2925  require(token.transfer(previousHighestBidder, previousHighestBid), \"Refund transfer failed\") */\n      tag_193\n      jumpi\n      mload(0x40)\n      0x08c379a000000000000000000000000000000000000000000000000000000000\n      dup2\n      mstore\n      0x04\n      add\n      tag_194\n      swap1\n      tag_149\n      jump\t// in\n    tag_194:\n      mload(0x40)\n      dup1\n      swap2\n      sub\n      swap1\n      revert\n    tag_193:\n        /* \"contracts/project/Auction.sol\":3077:3086  increment */\n      sload(0x0a)\n        /* \"contracts/project/Auction.sol\":3056:3074  previousHighestBid */\n      dup3\n        /* \"contracts/project/Auction.sol\":3056:3086  previousHighestBid + increment */\n      tag_195\n      swap2\n      swap1\n      tag_175\n      jump\t// in\n    tag_195:\n        /* \"contracts/project/Auction.sol\":3036:3053  highestBindingBid */\n      0x09\n        /* \"contracts/project/Auction.sol\":3036:3086  highestBindingBid = previousHighestBid + increment */\n      dup2\n      swap1\n      sstore\n      pop\n        /* \"contracts/project/Auction.sol\":3124:3132  totalBid */\n      dup3\n        /* \"contracts/project/Auction.sol\":3104:3121  highestBindingBid */\n      sload(0x09)\n        /* \"contracts/project/Auction.sol\":3104:3132  highestBindingBid > totalBid */\n      gt\n        /* \"contracts/project/Auction.sol\":3100:3195  if (highestBindingBid > totalBid) {... */\n      iszero\n      tag_196\n      jumpi\n        /* \"contracts/project/Auction.sol\":3172:3180  totalBid */\n      dup3\n        /* \"contracts/project/Auction.sol\":3152:3169  highestBindingBid */\n      0x09\n        /* \"contracts/project/Auction.sol\":3152:3180  highestBindingBid = totalBid */\n      dup2\n      swap1\n      sstore\n      pop\n        /* \"contracts/project/Auction.sol\":3100:3195  if (highestBindingBid > totalBid) {... */\n    tag_196:\n        /* \"contracts/project/Auction.sol\":2663:3289  if (previousHighestBidder != address(0)) {... */\n      jump(tag_197)\n    tag_188:\n        /* \"contracts/project/Auction.sol\":3270:3278  totalBid */\n      dup3\n        /* \"contracts/project/Auction.sol\":3250:3267  highestBindingBid */\n      0x09\n        /* \"contracts/project/Auction.sol\":3250:3278  highestBindingBid = totalBid */\n      dup2\n      swap1\n      sstore\n      pop\n        /* \"contracts/project/Auction.sol\":2663:3289  if (previousHighestBidder != address(0)) {... */\n    tag_197:\n        /* \"contracts/project/Auction.sol\":3304:3335  BidPlaced(msg.sender, totalBid) */\n      0x3fabff0a9c3ecd6814702e247fa9733e5d0aa69e3a38590f92cb18f623a2254d\n        /* \"contracts/project/Auction.sol\":3314:3324  msg.sender */\n      caller\n        /* \"contracts/project/Auction.sol\":3326:3334  totalBid */\n      dup5\n        /* \"contracts/project/Auction.sol\":3304:3335  BidPlaced(msg.sender, totalBid) */\n      mload(0x40)\n      tag_198\n      swap3\n      swap2\n      swap1\n      tag_112\n      jump\t// in\n    tag_198:\n      mload(0x40)\n      dup1\n      swap2\n      sub\n      swap1\n      log1\n        /* \"contracts/project/Auction.sol\":1450:3342  {... */\n      pop\n      pop\n      pop\n        /* \"contracts/project/Auction.sol\":1406:3342  function placeBid(uint256 bidAmount) public {... */\n      pop\n      jump\t// out\n        /* \"contracts/project/Auction.sol\":219:239  uint256 public start */\n    tag_64:\n      sload(0x03)\n      dup2\n      jump\t// out\n        /* \"contracts/project/Auction.sol\":5086:5186  function getBid(address bidder) external view returns (uint256) {... */\n    tag_69:\n        /* \"contracts/project/Auction.sol\":5141:5148  uint256 */\n      0x00\n        /* \"contracts/project/Auction.sol\":5167:5171  bids */\n      0x06\n        /* \"contracts/project/Auction.sol\":5167:5179  bids[bidder] */\n      0x00\n        /* \"contracts/project/Auction.sol\":5172:5178  bidder */\n      dup4\n        /* \"contracts/project/Auction.sol\":5167:5179  bids[bidder] */\n      0xffffffffffffffffffffffffffffffffffffffff\n      and\n      0xffffffffffffffffffffffffffffffffffffffff\n      and\n      dup2\n      mstore\n      0x20\n      add\n      swap1\n      dup2\n      mstore\n      0x20\n      add\n      0x00\n      keccak256\n      sload\n        /* \"contracts/project/Auction.sol\":5160:5179  return bids[bidder] */\n      swap1\n      pop\n        /* \"contracts/project/Auction.sol\":5086:5186  function getBid(address bidder) external view returns (uint256) {... */\n      swap2\n      swap1\n      pop\n      jump\t// out\n        /* \"contracts/project/Auction.sol\":518:542  uint256 public increment */\n    tag_72:\n      sload(0x0a)\n      dup2\n      jump\t// out\n        /* \"contracts/project/Auction.sol\":449:474  uint256 public highestBid */\n    tag_75:\n      sload(0x08)\n      dup2\n      jump\t// out\n        /* \"contracts/project/Auction.sol\":5468:6062  function getAuctionInfo() external view returns (... */\n    tag_78:\n        /* \"contracts/project/Auction.sol\":5526:5545  string memory _name */\n      0x60\n        /* \"contracts/project/Auction.sol\":5555:5581  string memory _description */\n      dup1\n        /* \"contracts/project/Auction.sol\":5591:5605  address _owner */\n      0x00\n        /* \"contracts/project/Auction.sol\":5615:5629  uint256 _start */\n      0x00\n        /* \"contracts/project/Auction.sol\":5639:5651  uint256 _end */\n      0x00\n        /* \"contracts/project/Auction.sol\":5661:5680  uint256 _highestBid */\n      0x00\n        /* \"contracts/project/Auction.sol\":5690:5712  address _highestBidder */\n      0x00\n        /* \"contracts/project/Auction.sol\":5722:5736  bool _isActive */\n      0x00\n        /* \"contracts/project/Auction.sol\":5746:5757  bool _ended */\n      0x00\n        /* \"contracts/project/Auction.sol\":5767:5781  bool _canceled */\n      0x00\n        /* \"contracts/project/Auction.sol\":5798:5807  bool _act */\n      0x00\n        /* \"contracts/project/Auction.sol\":5810:5820  isActive() */\n      tag_201\n        /* \"contracts/project/Auction.sol\":5810:5818  isActive */\n      tag_35\n        /* \"contracts/project/Auction.sol\":5810:5820  isActive() */\n      jump\t// in\n    tag_201:\n        /* \"contracts/project/Auction.sol\":5798:5820  bool _act = isActive() */\n      swap1\n      pop\n        /* \"contracts/project/Auction.sol\":5851:5855  name */\n      0x01\n        /* \"contracts/project/Auction.sol\":5869:5880  description */\n      0x02\n        /* \"contracts/project/Auction.sol\":5894:5899  owner */\n      0x00\n      0x00\n      swap1\n      sload\n      swap1\n      0x0100\n      exp\n      swap1\n      div\n      0xffffffffffffffffffffffffffffffffffffffff\n      and\n        /* \"contracts/project/Auction.sol\":5913:5918  start */\n      sload(0x03)\n        /* \"contracts/project/Auction.sol\":5932:5935  end */\n      sload(0x04)\n        /* \"contracts/project/Auction.sol\":5949:5959  highestBid */\n      sload(0x08)\n        /* \"contracts/project/Auction.sol\":5973:5986  highestBidder */\n      0x07\n      0x00\n      swap1\n      sload\n      swap1\n      0x0100\n      exp\n      swap1\n      div\n      0xffffffffffffffffffffffffffffffffffffffff\n      and\n        /* \"contracts/project/Auction.sol\":6000:6004  _act */\n      dup8\n        /* \"contracts/project/Auction.sol\":6018:6023  ended */\n      0x05\n      0x01\n      swap1\n      sload\n      swap1\n      0x0100\n      exp\n      swap1\n      div\n      0xff\n      and\n        /* \"contracts/project/Auction.sol\":6037:6045  canceled */\n      0x05\n      0x00\n      swap1\n      sload\n      swap1\n      0x0100\n      exp\n      swap1\n      div\n      0xff\n      and\n        /* \"contracts/project/Auction.sol\":5830:6055  return (... */\n      dup10\n      dup1\n      sload\n      tag_202\n      swap1\n      tag_94\n      jump\t// in\n    tag_202:\n      dup1\n      0x1f\n      add\n      0x20\n      dup1\n      swap2\n      div\n      mul\n      0x20\n      add\n      mload(0x40)\n      swap1\n      dup2\n      add\n      0x40\n      mstore\n      dup1\n      swap3\n      swap2\n      swap1\n      dup2\n      dup2\n      mstore\n      0x20\n      add\n      dup3\n      dup1\n      sload\n      tag_203\n      swap1\n      tag_94\n      jump\t// in\n    tag_203:\n      dup1\n      iszero\n      tag_204\n      jumpi\n      dup1\n      0x1f\n      lt\n      tag_205\n      jumpi\n      0x0100\n      dup1\n      dup4\n      sload\n      div\n      mul\n      dup4\n      mstore\n      swap2\n      0x20\n      add\n      swap2\n      jump(tag_204)\n    tag_205:\n      dup3\n      add\n      swap2\n      swap1\n      0x00\n      mstore\n      keccak256(0x00, 0x20)\n      swap1\n    tag_206:\n      dup2\n      sload\n      dup2\n      mstore\n      swap1\n      0x01\n      add\n      swap1\n      0x20\n      add\n      dup1\n      dup4\n      gt\n      tag_206\n      jumpi\n      dup3\n      swap1\n      sub\n      0x1f\n      and\n      dup3\n      add\n      swap2\n    tag_204:\n      pop\n      pop\n      pop\n      pop\n      pop\n      swap10\n      pop\n      dup9\n      dup1\n      sload\n      tag_207\n      swap1\n      tag_94\n      jump\t// in\n    tag_207:\n      dup1\n      0x1f\n      add\n      0x20\n      dup1\n      swap2\n      div\n      mul\n      0x20\n      add\n      mload(0x40)\n      swap1\n      dup2\n      add\n      0x40\n      mstore\n      dup1\n      swap3\n      swap2\n      swap1\n      dup2\n      dup2\n      mstore\n      0x20\n      add\n      dup3\n      dup1\n      sload\n      tag_208\n      swap1\n      tag_94\n      jump\t// in\n    tag_208:\n      dup1\n      iszero\n      tag_209\n      jumpi\n      dup1\n      0x1f\n      lt\n      tag_210\n      jumpi\n      0x0100\n      dup1\n      dup4\n      sload\n      div\n      mul\n      dup4\n      mstore\n      swap2\n      0x20\n      add\n      swap2\n      jump(tag_209)\n    tag_210:\n      dup3\n      add\n      swap2\n      swap1\n      0x00\n      mstore\n      keccak256(0x00, 0x20)\n      swap1\n    tag_211:\n      dup2\n      sload\n      dup2\n      mstore\n      swap1\n      0x01\n      add\n      swap1\n      0x20\n      add\n      dup1\n      dup4\n      gt\n      tag_211\n      jumpi\n      dup3\n      swap1\n      sub\n      0x1f\n      and\n      dup3\n      add\n      swap2\n    tag_209:\n      pop\n      pop\n      pop\n      pop\n      pop\n      swap9\n      pop\n      swap11\n      pop\n      swap11\n      pop\n      swap11\n      pop\n      swap11\n      pop\n      swap11\n      pop\n      swap11\n      pop\n      swap11\n      pop\n      swap11\n      pop\n      swap11\n      pop\n      swap11\n      pop\n      pop\n        /* \"contracts/project/Auction.sol\":5468:6062  function getAuctionInfo() external view returns (... */\n      swap1\n      swap2\n      swap3\n      swap4\n      swap5\n      swap6\n      swap7\n      swap8\n      swap9\n      swap10\n      jump\t// out\n        /* \"contracts/project/Auction.sol\":245:263  uint256 public end */\n    tag_82:\n      sload(0x04)\n      dup2\n      jump\t// out\n        /* \"contracts/project/Auction.sol\":480:512  uint256 public highestBindingBid */\n    tag_85:\n      sload(0x09)\n      dup2\n      jump\t// out\n        /* \"contracts/project/Auction.sol\":3871:4742  function finalizeAuction() external {... */\n    tag_88:\n        /* \"contracts/project/Auction.sol\":3939:3944  owner */\n      0x00\n      0x00\n      swap1\n      sload\n      swap1\n      0x0100\n      exp\n      swap1\n      div\n      0xffffffffffffffffffffffffffffffffffffffff\n      and\n        /* \"contracts/project/Auction.sol\":3925:3944  msg.sender == owner */\n      0xffffffffffffffffffffffffffffffffffffffff\n      and\n        /* \"contracts/project/Auction.sol\":3925:3935  msg.sender */\n      caller\n        /* \"contracts/project/Auction.sol\":3925:3944  msg.sender == owner */\n      0xffffffffffffffffffffffffffffffffffffffff\n      and\n      eq\n        /* \"contracts/project/Auction.sol\":3917:3958  require(msg.sender == owner, \"Not owner\") */\n      tag_213\n      jumpi\n      mload(0x40)\n      0x08c379a000000000000000000000000000000000000000000000000000000000\n      dup2\n      mstore\n      0x04\n      add\n      tag_214\n      swap1\n      tag_134\n      jump\t// in\n    tag_214:\n      mload(0x40)\n      dup1\n      swap2\n      sub\n      swap1\n      revert\n    tag_213:\n        /* \"contracts/project/Auction.sol\":3994:3997  end */\n      sload(0x04)\n        /* \"contracts/project/Auction.sol\":3976:3991  block.timestamp */\n      timestamp\n        /* \"contracts/project/Auction.sol\":3976:3997  block.timestamp > end */\n      gt\n        /* \"contracts/project/Auction.sol\":3976:4009  block.timestamp > end || canceled */\n      dup1\n      tag_215\n      jumpi\n      pop\n        /* \"contracts/project/Auction.sol\":4001:4009  canceled */\n      0x05\n      0x00\n      swap1\n      sload\n      swap1\n      0x0100\n      exp\n      swap1\n      div\n      0xff\n      and\n        /* \"contracts/project/Auction.sol\":3976:4009  block.timestamp > end || canceled */\n    tag_215:\n        /* \"contracts/project/Auction.sol\":3968:4031  require(block.timestamp > end || canceled, \"Auction not ended\") */\n      tag_216\n      jumpi\n      mload(0x40)\n      0x08c379a000000000000000000000000000000000000000000000000000000000\n      dup2\n      mstore\n      0x04\n      add\n      tag_217\n      swap1\n      tag_107\n      jump\t// in\n    tag_217:\n      mload(0x40)\n      dup1\n      swap2\n      sub\n      swap1\n      revert\n    tag_216:\n        /* \"contracts/project/Auction.sol\":4050:4055  ended */\n      0x05\n      0x01\n      swap1\n      sload\n      swap1\n      0x0100\n      exp\n      swap1\n      div\n      0xff\n      and\n        /* \"contracts/project/Auction.sol\":4049:4055  !ended */\n      iszero\n        /* \"contracts/project/Auction.sol\":4041:4073  require(!ended, \"Already ended\") */\n      tag_218\n      jumpi\n      mload(0x40)\n      0x08c379a000000000000000000000000000000000000000000000000000000000\n      dup2\n      mstore\n      0x04\n      add\n      tag_219\n      swap1\n      tag_140\n      jump\t// in\n    tag_219:\n      mload(0x40)\n      dup1\n      swap2\n      sub\n      swap1\n      revert\n    tag_218:\n        /* \"contracts/project/Auction.sol\":4100:4104  true */\n      0x01\n        /* \"contracts/project/Auction.sol\":4092:4097  ended */\n      0x05\n      0x01\n        /* \"contracts/project/Auction.sol\":4092:4104  ended = true */\n      0x0100\n      exp\n      dup2\n      sload\n      dup2\n      0xff\n      mul\n      not\n      and\n      swap1\n      dup4\n      iszero\n      iszero\n      mul\n      or\n      swap1\n      sstore\n      pop\n        /* \"contracts/project/Auction.sol\":4144:4145  0 */\n      0x00\n        /* \"contracts/project/Auction.sol\":4119:4146  highestBidder != address(0) */\n      0xffffffffffffffffffffffffffffffffffffffff\n      and\n        /* \"contracts/project/Auction.sol\":4119:4132  highestBidder */\n      0x07\n      0x00\n      swap1\n      sload\n      swap1\n      0x0100\n      exp\n      swap1\n      div\n      0xffffffffffffffffffffffffffffffffffffffff\n      and\n        /* \"contracts/project/Auction.sol\":4119:4146  highestBidder != address(0) */\n      0xffffffffffffffffffffffffffffffffffffffff\n      and\n      eq\n      iszero\n        /* \"contracts/project/Auction.sol\":4119:4159  highestBidder != address(0) && !canceled */\n      dup1\n      iszero\n      tag_220\n      jumpi\n      pop\n        /* \"contracts/project/Auction.sol\":4151:4159  canceled */\n      0x05\n      0x00\n      swap1\n      sload\n      swap1\n      0x0100\n      exp\n      swap1\n      div\n      0xff\n      and\n        /* \"contracts/project/Auction.sol\":4150:4159  !canceled */\n      iszero\n        /* \"contracts/project/Auction.sol\":4119:4159  highestBidder != address(0) && !canceled */\n    tag_220:\n        /* \"contracts/project/Auction.sol\":4115:4662  if (highestBidder != address(0) && !canceled) {... */\n      iszero\n      tag_221\n      jumpi\n        /* \"contracts/project/Auction.sol\":4239:4244  token */\n      0x05\n      0x02\n      swap1\n      sload\n      swap1\n      0x0100\n      exp\n      swap1\n      div\n      0xffffffffffffffffffffffffffffffffffffffff\n      and\n        /* \"contracts/project/Auction.sol\":4239:4253  token.transfer */\n      0xffffffffffffffffffffffffffffffffffffffff\n      and\n      0xa9059cbb\n        /* \"contracts/project/Auction.sol\":4254:4259  owner */\n      0x00\n      0x00\n      swap1\n      sload\n      swap1\n      0x0100\n      exp\n      swap1\n      div\n      0xffffffffffffffffffffffffffffffffffffffff\n      and\n        /* \"contracts/project/Auction.sol\":4261:4278  highestBindingBid */\n      sload(0x09)\n        /* \"contracts/project/Auction.sol\":4239:4279  token.transfer(owner, highestBindingBid) */\n      mload(0x40)\n      dup4\n      0xffffffff\n      and\n      0xe0\n      shl\n      dup2\n      mstore\n      0x04\n      add\n      tag_222\n      swap3\n      swap2\n      swap1\n      tag_223\n      jump\t// in\n    tag_222:\n      0x20\n      mload(0x40)\n      dup1\n      dup4\n      sub\n      dup2\n      0x00\n      dup8\n      gas\n      call\n      iszero\n      dup1\n      iszero\n      tag_225\n      jumpi\n      returndatacopy(0x00, 0x00, returndatasize)\n      revert(0x00, returndatasize)\n    tag_225:\n      pop\n      pop\n      pop\n      pop\n      mload(0x40)\n      returndatasize\n      not(0x1f)\n      0x1f\n      dup3\n      add\n      and\n      dup3\n      add\n      dup1\n      0x40\n      mstore\n      pop\n      dup2\n      add\n      swap1\n      tag_226\n      swap2\n      swap1\n      tag_116\n      jump\t// in\n    tag_226:\n        /* \"contracts/project/Auction.sol\":4231:4307  require(token.transfer(owner, highestBindingBid), \"Payment transfer failed\") */\n      tag_227\n      jumpi\n      mload(0x40)\n      0x08c379a000000000000000000000000000000000000000000000000000000000\n      dup2\n      mstore\n      0x04\n      add\n      tag_228\n      swap1\n      tag_229\n      jump\t// in\n    tag_228:\n      mload(0x40)\n      dup1\n      swap2\n      sub\n      swap1\n      revert\n    tag_227:\n        /* \"contracts/project/Auction.sol\":4420:4434  uint256 refund */\n      0x00\n        /* \"contracts/project/Auction.sol\":4450:4467  highestBindingBid */\n      sload(0x09)\n        /* \"contracts/project/Auction.sol\":4437:4447  highestBid */\n      sload(0x08)\n        /* \"contracts/project/Auction.sol\":4437:4467  highestBid - highestBindingBid */\n      tag_230\n      swap2\n      swap1\n      tag_231\n      jump\t// in\n    tag_230:\n        /* \"contracts/project/Auction.sol\":4420:4467  uint256 refund = highestBid - highestBindingBid */\n      swap1\n      pop\n        /* \"contracts/project/Auction.sol\":4494:4495  0 */\n      0x00\n        /* \"contracts/project/Auction.sol\":4485:4491  refund */\n      dup2\n        /* \"contracts/project/Auction.sol\":4485:4495  refund > 0 */\n      gt\n        /* \"contracts/project/Auction.sol\":4481:4602  if (refund > 0) {... */\n      iszero\n      tag_232\n      jumpi\n        /* \"contracts/project/Auction.sol\":4523:4528  token */\n      0x05\n      0x02\n      swap1\n      sload\n      swap1\n      0x0100\n      exp\n      swap1\n      div\n      0xffffffffffffffffffffffffffffffffffffffff\n      and\n        /* \"contracts/project/Auction.sol\":4523:4537  token.transfer */\n      0xffffffffffffffffffffffffffffffffffffffff\n      and\n      0xa9059cbb\n        /* \"contracts/project/Auction.sol\":4538:4551  highestBidder */\n      0x07\n      0x00\n      swap1\n      sload\n      swap1\n      0x0100\n      exp\n      swap1\n      div\n      0xffffffffffffffffffffffffffffffffffffffff\n      and\n        /* \"contracts/project/Auction.sol\":4553:4559  refund */\n      dup4\n        /* \"contracts/project/Auction.sol\":4523:4560  token.transfer(highestBidder, refund) */\n      mload(0x40)\n      dup4\n      0xffffffff\n      and\n      0xe0\n      shl\n      dup2\n      mstore\n      0x04\n      add\n      tag_233\n      swap3\n      swap2\n      swap1\n      tag_112\n      jump\t// in\n    tag_233:\n      0x20\n      mload(0x40)\n      dup1\n      dup4\n      sub\n      dup2\n      0x00\n      dup8\n      gas\n      call\n      iszero\n      dup1\n      iszero\n      tag_235\n      jumpi\n      returndatacopy(0x00, 0x00, returndatasize)\n      revert(0x00, returndatasize)\n    tag_235:\n      pop\n      pop\n      pop\n      pop\n      mload(0x40)\n      returndatasize\n      not(0x1f)\n      0x1f\n      dup3\n      add\n      and\n      dup3\n      add\n      dup1\n      0x40\n      mstore\n      pop\n      dup2\n      add\n      swap1\n      tag_236\n      swap2\n      swap1\n      tag_116\n      jump\t// in\n    tag_236:\n        /* \"contracts/project/Auction.sol\":4515:4587  require(token.transfer(highestBidder, refund), \"Refund transfer failed\") */\n      tag_237\n      jumpi\n      mload(0x40)\n      0x08c379a000000000000000000000000000000000000000000000000000000000\n      dup2\n      mstore\n      0x04\n      add\n      tag_238\n      swap1\n      tag_149\n      jump\t// in\n    tag_238:\n      mload(0x40)\n      dup1\n      swap2\n      sub\n      swap1\n      revert\n    tag_237:\n        /* \"contracts/project/Auction.sol\":4481:4602  if (refund > 0) {... */\n    tag_232:\n        /* \"contracts/project/Auction.sol\":4650:4651  0 */\n      0x00\n        /* \"contracts/project/Auction.sol\":4628:4632  bids */\n      0x06\n        /* \"contracts/project/Auction.sol\":4628:4647  bids[highestBidder] */\n      0x00\n        /* \"contracts/project/Auction.sol\":4633:4646  highestBidder */\n      0x07\n      0x00\n      swap1\n      sload\n      swap1\n      0x0100\n      exp\n      swap1\n      div\n      0xffffffffffffffffffffffffffffffffffffffff\n      and\n        /* \"contracts/project/Auction.sol\":4628:4647  bids[highestBidder] */\n      0xffffffffffffffffffffffffffffffffffffffff\n      and\n      0xffffffffffffffffffffffffffffffffffffffff\n      and\n      dup2\n      mstore\n      0x20\n      add\n      swap1\n      dup2\n      mstore\n      0x20\n      add\n      0x00\n      keccak256\n        /* \"contracts/project/Auction.sol\":4628:4651  bids[highestBidder] = 0 */\n      dup2\n      swap1\n      sstore\n      pop\n        /* \"contracts/project/Auction.sol\":4161:4662  {... */\n      pop\n        /* \"contracts/project/Auction.sol\":4115:4662  if (highestBidder != address(0) && !canceled) {... */\n    tag_221:\n        /* \"contracts/project/Auction.sol\":4685:4735  AuctionFinalized(highestBidder, highestBindingBid) */\n      0x357afab190ee87fe0ef1c717f2728d2904d9e415a069d99f4d9382873cb3279d\n        /* \"contracts/project/Auction.sol\":4702:4715  highestBidder */\n      0x07\n      0x00\n      swap1\n      sload\n      swap1\n      0x0100\n      exp\n      swap1\n      div\n      0xffffffffffffffffffffffffffffffffffffffff\n      and\n        /* \"contracts/project/Auction.sol\":4717:4734  highestBindingBid */\n      sload(0x09)\n        /* \"contracts/project/Auction.sol\":4685:4735  AuctionFinalized(highestBidder, highestBindingBid) */\n      mload(0x40)\n      tag_239\n      swap3\n      swap2\n      swap1\n      tag_112\n      jump\t// in\n    tag_239:\n      mload(0x40)\n      dup1\n      swap2\n      sub\n      swap1\n      log1\n        /* \"contracts/project/Auction.sol\":3871:4742  function finalizeAuction() external {... */\n      jump\t// out\n        /* \"contracts/project/Auction.sol\":351:370  Crypto public token */\n    tag_90:\n      0x05\n      0x02\n      swap1\n      sload\n      swap1\n      0x0100\n      exp\n      swap1\n      div\n      0xffffffffffffffffffffffffffffffffffffffff\n      and\n      dup2\n      jump\t// out\n        /* \"#utility.yul\":7:106   */\n    tag_240:\n        /* \"#utility.yul\":59:65   */\n      0x00\n        /* \"#utility.yul\":93:98   */\n      dup2\n        /* \"#utility.yul\":87:99   */\n      mload\n        /* \"#utility.yul\":77:99   */\n      swap1\n      pop\n        /* \"#utility.yul\":7:106   */\n      swap2\n      swap1\n      pop\n      jump\t// out\n        /* \"#utility.yul\":112:281   */\n    tag_241:\n        /* \"#utility.yul\":196:207   */\n      0x00\n        /* \"#utility.yul\":230:236   */\n      dup3\n        /* \"#utility.yul\":225:228   */\n      dup3\n        /* \"#utility.yul\":218:237   */\n      mstore\n        /* \"#utility.yul\":270:274   */\n      0x20\n        /* \"#utility.yul\":265:268   */\n      dup3\n        /* \"#utility.yul\":261:275   */\n      add\n        /* \"#utility.yul\":246:275   */\n      swap1\n      pop\n        /* \"#utility.yul\":112:281   */\n      swap3\n      swap2\n      pop\n      pop\n      jump\t// out\n        /* \"#utility.yul\":287:426   */\n    tag_242:\n        /* \"#utility.yul\":376:382   */\n      dup3\n        /* \"#utility.yul\":371:374   */\n      dup2\n        /* \"#utility.yul\":366:369   */\n      dup4\n        /* \"#utility.yul\":360:383   */\n      mcopy\n        /* \"#utility.yul\":417:418   */\n      0x00\n        /* \"#utility.yul\":408:414   */\n      dup4\n        /* \"#utility.yul\":403:406   */\n      dup4\n        /* \"#utility.yul\":399:415   */\n      add\n        /* \"#utility.yul\":392:419   */\n      mstore\n        /* \"#utility.yul\":287:426   */\n      pop\n      pop\n      pop\n      jump\t// out\n        /* \"#utility.yul\":432:534   */\n    tag_243:\n        /* \"#utility.yul\":473:479   */\n      0x00\n        /* \"#utility.yul\":524:526   */\n      0x1f\n        /* \"#utility.yul\":520:527   */\n      not\n        /* \"#utility.yul\":515:517   */\n      0x1f\n        /* \"#utility.yul\":508:513   */\n      dup4\n        /* \"#utility.yul\":504:518   */\n      add\n        /* \"#utility.yul\":500:528   */\n      and\n        /* \"#utility.yul\":490:528   */\n      swap1\n      pop\n        /* \"#utility.yul\":432:534   */\n      swap2\n      swap1\n      pop\n      jump\t// out\n        /* \"#utility.yul\":540:917   */\n    tag_244:\n        /* \"#utility.yul\":628:631   */\n      0x00\n        /* \"#utility.yul\":656:695   */\n      tag_311\n        /* \"#utility.yul\":689:694   */\n      dup3\n        /* \"#utility.yul\":656:695   */\n      tag_240\n      jump\t// in\n    tag_311:\n        /* \"#utility.yul\":711:782   */\n      tag_312\n        /* \"#utility.yul\":775:781   */\n      dup2\n        /* \"#utility.yul\":770:773   */\n      dup6\n        /* \"#utility.yul\":711:782   */\n      tag_241\n      jump\t// in\n    tag_312:\n        /* \"#utility.yul\":704:782   */\n      swap4\n      pop\n        /* \"#utility.yul\":791:856   */\n      tag_313\n        /* \"#utility.yul\":849:855   */\n      dup2\n        /* \"#utility.yul\":844:847   */\n      dup6\n        /* \"#utility.yul\":837:841   */\n      0x20\n        /* \"#utility.yul\":830:835   */\n      dup7\n        /* \"#utility.yul\":826:842   */\n      add\n        /* \"#utility.yul\":791:856   */\n      tag_242\n      jump\t// in\n    tag_313:\n        /* \"#utility.yul\":881:910   */\n      tag_314\n        /* \"#utility.yul\":903:909   */\n      dup2\n        /* \"#utility.yul\":881:910   */\n      tag_243\n      jump\t// in\n    tag_314:\n        /* \"#utility.yul\":876:879   */\n      dup5\n        /* \"#utility.yul\":872:911   */\n      add\n        /* \"#utility.yul\":865:911   */\n      swap2\n      pop\n        /* \"#utility.yul\":632:917   */\n      pop\n        /* \"#utility.yul\":540:917   */\n      swap3\n      swap2\n      pop\n      pop\n      jump\t// out\n        /* \"#utility.yul\":923:1236   */\n    tag_29:\n        /* \"#utility.yul\":1036:1040   */\n      0x00\n        /* \"#utility.yul\":1074:1076   */\n      0x20\n        /* \"#utility.yul\":1063:1072   */\n      dup3\n        /* \"#utility.yul\":1059:1077   */\n      add\n        /* \"#utility.yul\":1051:1077   */\n      swap1\n      pop\n        /* \"#utility.yul\":1123:1132   */\n      dup2\n        /* \"#utility.yul\":1117:1121   */\n      dup2\n        /* \"#utility.yul\":1113:1133   */\n      sub\n        /* \"#utility.yul\":1109:1110   */\n      0x00\n        /* \"#utility.yul\":1098:1107   */\n      dup4\n        /* \"#utility.yul\":1094:1111   */\n      add\n        /* \"#utility.yul\":1087:1134   */\n      mstore\n        /* \"#utility.yul\":1151:1229   */\n      tag_316\n        /* \"#utility.yul\":1224:1228   */\n      dup2\n        /* \"#utility.yul\":1215:1221   */\n      dup5\n        /* \"#utility.yul\":1151:1229   */\n      tag_244\n      jump\t// in\n    tag_316:\n        /* \"#utility.yul\":1143:1229   */\n      swap1\n      pop\n        /* \"#utility.yul\":923:1236   */\n      swap3\n      swap2\n      pop\n      pop\n      jump\t// out\n        /* \"#utility.yul\":1242:1332   */\n    tag_245:\n        /* \"#utility.yul\":1276:1283   */\n      0x00\n        /* \"#utility.yul\":1319:1324   */\n      dup2\n        /* \"#utility.yul\":1312:1325   */\n      iszero\n        /* \"#utility.yul\":1305:1326   */\n      iszero\n        /* \"#utility.yul\":1294:1326   */\n      swap1\n      pop\n        /* \"#utility.yul\":1242:1332   */\n      swap2\n      swap1\n      pop\n      jump\t// out\n        /* \"#utility.yul\":1338:1447   */\n    tag_246:\n        /* \"#utility.yul\":1419:1440   */\n      tag_319\n        /* \"#utility.yul\":1434:1439   */\n      dup2\n        /* \"#utility.yul\":1419:1440   */\n      tag_245\n      jump\t// in\n    tag_319:\n        /* \"#utility.yul\":1414:1417   */\n      dup3\n        /* \"#utility.yul\":1407:1441   */\n      mstore\n        /* \"#utility.yul\":1338:1447   */\n      pop\n      pop\n      jump\t// out\n        /* \"#utility.yul\":1453:1663   */\n    tag_33:\n        /* \"#utility.yul\":1540:1544   */\n      0x00\n        /* \"#utility.yul\":1578:1580   */\n      0x20\n        /* \"#utility.yul\":1567:1576   */\n      dup3\n        /* \"#utility.yul\":1563:1581   */\n      add\n        /* \"#utility.yul\":1555:1581   */\n      swap1\n      pop\n        /* \"#utility.yul\":1591:1656   */\n      tag_321\n        /* \"#utility.yul\":1653:1654   */\n      0x00\n        /* \"#utility.yul\":1642:1651   */\n      dup4\n        /* \"#utility.yul\":1638:1655   */\n      add\n        /* \"#utility.yul\":1629:1635   */\n      dup5\n        /* \"#utility.yul\":1591:1656   */\n      tag_246\n      jump\t// in\n    tag_321:\n        /* \"#utility.yul\":1453:1663   */\n      swap3\n      swap2\n      pop\n      pop\n      jump\t// out\n        /* \"#utility.yul\":1669:1746   */\n    tag_247:\n        /* \"#utility.yul\":1706:1713   */\n      0x00\n        /* \"#utility.yul\":1735:1740   */\n      dup2\n        /* \"#utility.yul\":1724:1740   */\n      swap1\n      pop\n        /* \"#utility.yul\":1669:1746   */\n      swap2\n      swap1\n      pop\n      jump\t// out\n        /* \"#utility.yul\":1752:1870   */\n    tag_248:\n        /* \"#utility.yul\":1839:1863   */\n      tag_324\n        /* \"#utility.yul\":1857:1862   */\n      dup2\n        /* \"#utility.yul\":1839:1863   */\n      tag_247\n      jump\t// in\n    tag_324:\n        /* \"#utility.yul\":1834:1837   */\n      dup3\n        /* \"#utility.yul\":1827:1864   */\n      mstore\n        /* \"#utility.yul\":1752:1870   */\n      pop\n      pop\n      jump\t// out\n        /* \"#utility.yul\":1876:2098   */\n    tag_48:\n        /* \"#utility.yul\":1969:1973   */\n      0x00\n        /* \"#utility.yul\":2007:2009   */\n      0x20\n        /* \"#utility.yul\":1996:2005   */\n      dup3\n        /* \"#utility.yul\":1992:2010   */\n      add\n        /* \"#utility.yul\":1984:2010   */\n      swap1\n      pop\n        /* \"#utility.yul\":2020:2091   */\n      tag_326\n        /* \"#utility.yul\":2088:2089   */\n      0x00\n        /* \"#utility.yul\":2077:2086   */\n      dup4\n        /* \"#utility.yul\":2073:2090   */\n      add\n        /* \"#utility.yul\":2064:2070   */\n      dup5\n        /* \"#utility.yul\":2020:2091   */\n      tag_248\n      jump\t// in\n    tag_326:\n        /* \"#utility.yul\":1876:2098   */\n      swap3\n      swap2\n      pop\n      pop\n      jump\t// out\n        /* \"#utility.yul\":2104:2230   */\n    tag_249:\n        /* \"#utility.yul\":2141:2148   */\n      0x00\n        /* \"#utility.yul\":2181:2223   */\n      0xffffffffffffffffffffffffffffffffffffffff\n        /* \"#utility.yul\":2174:2179   */\n      dup3\n        /* \"#utility.yul\":2170:2224   */\n      and\n        /* \"#utility.yul\":2159:2224   */\n      swap1\n      pop\n        /* \"#utility.yul\":2104:2230   */\n      swap2\n      swap1\n      pop\n      jump\t// out\n        /* \"#utility.yul\":2236:2340   */\n    tag_250:\n        /* \"#utility.yul\":2281:2288   */\n      0x00\n        /* \"#utility.yul\":2310:2334   */\n      tag_329\n        /* \"#utility.yul\":2328:2333   */\n      dup3\n        /* \"#utility.yul\":2310:2334   */\n      tag_249\n      jump\t// in\n    tag_329:\n        /* \"#utility.yul\":2299:2334   */\n      swap1\n      pop\n        /* \"#utility.yul\":2236:2340   */\n      swap2\n      swap1\n      pop\n      jump\t// out\n        /* \"#utility.yul\":2346:2488   */\n    tag_251:\n        /* \"#utility.yul\":2449:2481   */\n      tag_331\n        /* \"#utility.yul\":2475:2480   */\n      dup2\n        /* \"#utility.yul\":2449:2481   */\n      tag_250\n      jump\t// in\n    tag_331:\n        /* \"#utility.yul\":2444:2447   */\n      dup3\n        /* \"#utility.yul\":2437:2482   */\n      mstore\n        /* \"#utility.yul\":2346:2488   */\n      pop\n      pop\n      jump\t// out\n        /* \"#utility.yul\":2494:2748   */\n    tag_52:\n        /* \"#utility.yul\":2603:2607   */\n      0x00\n        /* \"#utility.yul\":2641:2643   */\n      0x20\n        /* \"#utility.yul\":2630:2639   */\n      dup3\n        /* \"#utility.yul\":2626:2644   */\n      add\n        /* \"#utility.yul\":2618:2644   */\n      swap1\n      pop\n        /* \"#utility.yul\":2654:2741   */\n      tag_333\n        /* \"#utility.yul\":2738:2739   */\n      0x00\n        /* \"#utility.yul\":2727:2736   */\n      dup4\n        /* \"#utility.yul\":2723:2740   */\n      add\n        /* \"#utility.yul\":2714:2720   */\n      dup5\n        /* \"#utility.yul\":2654:2741   */\n      tag_251\n      jump\t// in\n    tag_333:\n        /* \"#utility.yul\":2494:2748   */\n      swap3\n      swap2\n      pop\n      pop\n      jump\t// out\n        /* \"#utility.yul\":2754:2850   */\n    tag_252:\n        /* \"#utility.yul\":2791:2798   */\n      0x00\n        /* \"#utility.yul\":2820:2844   */\n      tag_335\n        /* \"#utility.yul\":2838:2843   */\n      dup3\n        /* \"#utility.yul\":2820:2844   */\n      tag_249\n      jump\t// in\n    tag_335:\n        /* \"#utility.yul\":2809:2844   */\n      swap1\n      pop\n        /* \"#utility.yul\":2754:2850   */\n      swap2\n      swap1\n      pop\n      jump\t// out\n        /* \"#utility.yul\":2856:2974   */\n    tag_253:\n        /* \"#utility.yul\":2943:2967   */\n      tag_337\n        /* \"#utility.yul\":2961:2966   */\n      dup2\n        /* \"#utility.yul\":2943:2967   */\n      tag_252\n      jump\t// in\n    tag_337:\n        /* \"#utility.yul\":2938:2941   */\n      dup3\n        /* \"#utility.yul\":2931:2968   */\n      mstore\n        /* \"#utility.yul\":2856:2974   */\n      pop\n      pop\n      jump\t// out\n        /* \"#utility.yul\":2980:3202   */\n    tag_58:\n        /* \"#utility.yul\":3073:3077   */\n      0x00\n        /* \"#utility.yul\":3111:3113   */\n      0x20\n        /* \"#utility.yul\":3100:3109   */\n      dup3\n        /* \"#utility.yul\":3096:3114   */\n      add\n        /* \"#utility.yul\":3088:3114   */\n      swap1\n      pop\n        /* \"#utility.yul\":3124:3195   */\n      tag_339\n        /* \"#utility.yul\":3192:3193   */\n      0x00\n        /* \"#utility.yul\":3181:3190   */\n      dup4\n        /* \"#utility.yul\":3177:3194   */\n      add\n        /* \"#utility.yul\":3168:3174   */\n      dup5\n        /* \"#utility.yul\":3124:3195   */\n      tag_253\n      jump\t// in\n    tag_339:\n        /* \"#utility.yul\":2980:3202   */\n      swap3\n      swap2\n      pop\n      pop\n      jump\t// out\n        /* \"#utility.yul\":3289:3406   */\n    tag_255:\n        /* \"#utility.yul\":3398:3399   */\n      0x00\n        /* \"#utility.yul\":3395:3396   */\n      0x00\n        /* \"#utility.yul\":3388:3400   */\n      revert\n        /* \"#utility.yul\":3535:3657   */\n    tag_257:\n        /* \"#utility.yul\":3608:3632   */\n      tag_344\n        /* \"#utility.yul\":3626:3631   */\n      dup2\n        /* \"#utility.yul\":3608:3632   */\n      tag_247\n      jump\t// in\n    tag_344:\n        /* \"#utility.yul\":3601:3606   */\n      dup2\n        /* \"#utility.yul\":3598:3633   */\n      eq\n        /* \"#utility.yul\":3588:3651   */\n      tag_345\n      jumpi\n        /* \"#utility.yul\":3647:3648   */\n      0x00\n        /* \"#utility.yul\":3644:3645   */\n      0x00\n        /* \"#utility.yul\":3637:3649   */\n      revert\n        /* \"#utility.yul\":3588:3651   */\n    tag_345:\n        /* \"#utility.yul\":3535:3657   */\n      pop\n      jump\t// out\n        /* \"#utility.yul\":3663:3802   */\n    tag_258:\n        /* \"#utility.yul\":3709:3714   */\n      0x00\n        /* \"#utility.yul\":3747:3753   */\n      dup2\n        /* \"#utility.yul\":3734:3754   */\n      calldataload\n        /* \"#utility.yul\":3725:3754   */\n      swap1\n      pop\n        /* \"#utility.yul\":3763:3796   */\n      tag_347\n        /* \"#utility.yul\":3790:3795   */\n      dup2\n        /* \"#utility.yul\":3763:3796   */\n      tag_257\n      jump\t// in\n    tag_347:\n        /* \"#utility.yul\":3663:3802   */\n      swap3\n      swap2\n      pop\n      pop\n      jump\t// out\n        /* \"#utility.yul\":3808:4137   */\n    tag_61:\n        /* \"#utility.yul\":3867:3873   */\n      0x00\n        /* \"#utility.yul\":3916:3918   */\n      0x20\n        /* \"#utility.yul\":3904:3913   */\n      dup3\n        /* \"#utility.yul\":3895:3902   */\n      dup5\n        /* \"#utility.yul\":3891:3914   */\n      sub\n        /* \"#utility.yul\":3887:3919   */\n      slt\n        /* \"#utility.yul\":3884:4003   */\n      iszero\n      tag_349\n      jumpi\n        /* \"#utility.yul\":3922:4001   */\n      tag_350\n      tag_255\n      jump\t// in\n    tag_350:\n        /* \"#utility.yul\":3884:4003   */\n    tag_349:\n        /* \"#utility.yul\":4042:4043   */\n      0x00\n        /* \"#utility.yul\":4067:4120   */\n      tag_351\n        /* \"#utility.yul\":4112:4119   */\n      dup5\n        /* \"#utility.yul\":4103:4109   */\n      dup3\n        /* \"#utility.yul\":4092:4101   */\n      dup6\n        /* \"#utility.yul\":4088:4110   */\n      add\n        /* \"#utility.yul\":4067:4120   */\n      tag_258\n      jump\t// in\n    tag_351:\n        /* \"#utility.yul\":4057:4120   */\n      swap2\n      pop\n        /* \"#utility.yul\":4013:4130   */\n      pop\n        /* \"#utility.yul\":3808:4137   */\n      swap3\n      swap2\n      pop\n      pop\n      jump\t// out\n        /* \"#utility.yul\":4143:4265   */\n    tag_259:\n        /* \"#utility.yul\":4216:4240   */\n      tag_353\n        /* \"#utility.yul\":4234:4239   */\n      dup2\n        /* \"#utility.yul\":4216:4240   */\n      tag_252\n      jump\t// in\n    tag_353:\n        /* \"#utility.yul\":4209:4214   */\n      dup2\n        /* \"#utility.yul\":4206:4241   */\n      eq\n        /* \"#utility.yul\":4196:4259   */\n      tag_354\n      jumpi\n        /* \"#utility.yul\":4255:4256   */\n      0x00\n        /* \"#utility.yul\":4252:4253   */\n      0x00\n        /* \"#utility.yul\":4245:4257   */\n      revert\n        /* \"#utility.yul\":4196:4259   */\n    tag_354:\n        /* \"#utility.yul\":4143:4265   */\n      pop\n      jump\t// out\n        /* \"#utility.yul\":4271:4410   */\n    tag_260:\n        /* \"#utility.yul\":4317:4322   */\n      0x00\n        /* \"#utility.yul\":4355:4361   */\n      dup2\n        /* \"#utility.yul\":4342:4362   */\n      calldataload\n        /* \"#utility.yul\":4333:4362   */\n      swap1\n      pop\n        /* \"#utility.yul\":4371:4404   */\n      tag_356\n        /* \"#utility.yul\":4398:4403   */\n      dup2\n        /* \"#utility.yul\":4371:4404   */\n      tag_259\n      jump\t// in\n    tag_356:\n        /* \"#utility.yul\":4271:4410   */\n      swap3\n      swap2\n      pop\n      pop\n      jump\t// out\n        /* \"#utility.yul\":4416:4745   */\n    tag_68:\n        /* \"#utility.yul\":4475:4481   */\n      0x00\n        /* \"#utility.yul\":4524:4526   */\n      0x20\n        /* \"#utility.yul\":4512:4521   */\n      dup3\n        /* \"#utility.yul\":4503:4510   */\n      dup5\n        /* \"#utility.yul\":4499:4522   */\n      sub\n        /* \"#utility.yul\":4495:4527   */\n      slt\n        /* \"#utility.yul\":4492:4611   */\n      iszero\n      tag_358\n      jumpi\n        /* \"#utility.yul\":4530:4609   */\n      tag_359\n      tag_255\n      jump\t// in\n    tag_359:\n        /* \"#utility.yul\":4492:4611   */\n    tag_358:\n        /* \"#utility.yul\":4650:4651   */\n      0x00\n        /* \"#utility.yul\":4675:4728   */\n      tag_360\n        /* \"#utility.yul\":4720:4727   */\n      dup5\n        /* \"#utility.yul\":4711:4717   */\n      dup3\n        /* \"#utility.yul\":4700:4709   */\n      dup6\n        /* \"#utility.yul\":4696:4718   */\n      add\n        /* \"#utility.yul\":4675:4728   */\n      tag_260\n      jump\t// in\n    tag_360:\n        /* \"#utility.yul\":4665:4728   */\n      swap2\n      pop\n        /* \"#utility.yul\":4621:4738   */\n      pop\n        /* \"#utility.yul\":4416:4745   */\n      swap3\n      swap2\n      pop\n      pop\n      jump\t// out\n        /* \"#utility.yul\":4751:6116   */\n    tag_80:\n        /* \"#utility.yul\":5118:5122   */\n      0x00\n        /* \"#utility.yul\":5156:5159   */\n      0x0140\n        /* \"#utility.yul\":5145:5154   */\n      dup3\n        /* \"#utility.yul\":5141:5160   */\n      add\n        /* \"#utility.yul\":5133:5160   */\n      swap1\n      pop\n        /* \"#utility.yul\":5206:5215   */\n      dup2\n        /* \"#utility.yul\":5200:5204   */\n      dup2\n        /* \"#utility.yul\":5196:5216   */\n      sub\n        /* \"#utility.yul\":5192:5193   */\n      0x00\n        /* \"#utility.yul\":5181:5190   */\n      dup4\n        /* \"#utility.yul\":5177:5194   */\n      add\n        /* \"#utility.yul\":5170:5217   */\n      mstore\n        /* \"#utility.yul\":5234:5312   */\n      tag_362\n        /* \"#utility.yul\":5307:5311   */\n      dup2\n        /* \"#utility.yul\":5298:5304   */\n      dup14\n        /* \"#utility.yul\":5234:5312   */\n      tag_244\n      jump\t// in\n    tag_362:\n        /* \"#utility.yul\":5226:5312   */\n      swap1\n      pop\n        /* \"#utility.yul\":5359:5368   */\n      dup2\n        /* \"#utility.yul\":5353:5357   */\n      dup2\n        /* \"#utility.yul\":5349:5369   */\n      sub\n        /* \"#utility.yul\":5344:5346   */\n      0x20\n        /* \"#utility.yul\":5333:5342   */\n      dup4\n        /* \"#utility.yul\":5329:5347   */\n      add\n        /* \"#utility.yul\":5322:5370   */\n      mstore\n        /* \"#utility.yul\":5387:5465   */\n      tag_363\n        /* \"#utility.yul\":5460:5464   */\n      dup2\n        /* \"#utility.yul\":5451:5457   */\n      dup13\n        /* \"#utility.yul\":5387:5465   */\n      tag_244\n      jump\t// in\n    tag_363:\n        /* \"#utility.yul\":5379:5465   */\n      swap1\n      pop\n        /* \"#utility.yul\":5475:5547   */\n      tag_364\n        /* \"#utility.yul\":5543:5545   */\n      0x40\n        /* \"#utility.yul\":5532:5541   */\n      dup4\n        /* \"#utility.yul\":5528:5546   */\n      add\n        /* \"#utility.yul\":5519:5525   */\n      dup12\n        /* \"#utility.yul\":5475:5547   */\n      tag_253\n      jump\t// in\n    tag_364:\n        /* \"#utility.yul\":5557:5629   */\n      tag_365\n        /* \"#utility.yul\":5625:5627   */\n      0x60\n        /* \"#utility.yul\":5614:5623   */\n      dup4\n        /* \"#utility.yul\":5610:5628   */\n      add\n        /* \"#utility.yul\":5601:5607   */\n      dup11\n        /* \"#utility.yul\":5557:5629   */\n      tag_248\n      jump\t// in\n    tag_365:\n        /* \"#utility.yul\":5639:5712   */\n      tag_366\n        /* \"#utility.yul\":5707:5710   */\n      0x80\n        /* \"#utility.yul\":5696:5705   */\n      dup4\n        /* \"#utility.yul\":5692:5711   */\n      add\n        /* \"#utility.yul\":5683:5689   */\n      dup10\n        /* \"#utility.yul\":5639:5712   */\n      tag_248\n      jump\t// in\n    tag_366:\n        /* \"#utility.yul\":5722:5795   */\n      tag_367\n        /* \"#utility.yul\":5790:5793   */\n      0xa0\n        /* \"#utility.yul\":5779:5788   */\n      dup4\n        /* \"#utility.yul\":5775:5794   */\n      add\n        /* \"#utility.yul\":5766:5772   */\n      dup9\n        /* \"#utility.yul\":5722:5795   */\n      tag_248\n      jump\t// in\n    tag_367:\n        /* \"#utility.yul\":5805:5878   */\n      tag_368\n        /* \"#utility.yul\":5873:5876   */\n      0xc0\n        /* \"#utility.yul\":5862:5871   */\n      dup4\n        /* \"#utility.yul\":5858:5877   */\n      add\n        /* \"#utility.yul\":5849:5855   */\n      dup8\n        /* \"#utility.yul\":5805:5878   */\n      tag_253\n      jump\t// in\n    tag_368:\n        /* \"#utility.yul\":5888:5955   */\n      tag_369\n        /* \"#utility.yul\":5950:5953   */\n      0xe0\n        /* \"#utility.yul\":5939:5948   */\n      dup4\n        /* \"#utility.yul\":5935:5954   */\n      add\n        /* \"#utility.yul\":5926:5932   */\n      dup7\n        /* \"#utility.yul\":5888:5955   */\n      tag_246\n      jump\t// in\n    tag_369:\n        /* \"#utility.yul\":5965:6032   */\n      tag_370\n        /* \"#utility.yul\":6027:6030   */\n      0x0100\n        /* \"#utility.yul\":6016:6025   */\n      dup4\n        /* \"#utility.yul\":6012:6031   */\n      add\n        /* \"#utility.yul\":6003:6009   */\n      dup6\n        /* \"#utility.yul\":5965:6032   */\n      tag_246\n      jump\t// in\n    tag_370:\n        /* \"#utility.yul\":6042:6109   */\n      tag_371\n        /* \"#utility.yul\":6104:6107   */\n      0x0120\n        /* \"#utility.yul\":6093:6102   */\n      dup4\n        /* \"#utility.yul\":6089:6108   */\n      add\n        /* \"#utility.yul\":6080:6086   */\n      dup5\n        /* \"#utility.yul\":6042:6109   */\n      tag_246\n      jump\t// in\n    tag_371:\n        /* \"#utility.yul\":4751:6116   */\n      swap12\n      swap11\n      pop\n      pop\n      pop\n      pop\n      pop\n      pop\n      pop\n      pop\n      pop\n      pop\n      pop\n      jump\t// out\n        /* \"#utility.yul\":6122:6182   */\n    tag_261:\n        /* \"#utility.yul\":6150:6153   */\n      0x00\n        /* \"#utility.yul\":6171:6176   */\n      dup2\n        /* \"#utility.yul\":6164:6176   */\n      swap1\n      pop\n        /* \"#utility.yul\":6122:6182   */\n      swap2\n      swap1\n      pop\n      jump\t// out\n        /* \"#utility.yul\":6188:6330   */\n    tag_262:\n        /* \"#utility.yul\":6238:6247   */\n      0x00\n        /* \"#utility.yul\":6271:6324   */\n      tag_374\n        /* \"#utility.yul\":6289:6323   */\n      tag_375\n        /* \"#utility.yul\":6298:6322   */\n      tag_376\n        /* \"#utility.yul\":6316:6321   */\n      dup5\n        /* \"#utility.yul\":6298:6322   */\n      tag_249\n      jump\t// in\n    tag_376:\n        /* \"#utility.yul\":6289:6323   */\n      tag_261\n      jump\t// in\n    tag_375:\n        /* \"#utility.yul\":6271:6324   */\n      tag_249\n      jump\t// in\n    tag_374:\n        /* \"#utility.yul\":6258:6324   */\n      swap1\n      pop\n        /* \"#utility.yul\":6188:6330   */\n      swap2\n      swap1\n      pop\n      jump\t// out\n        /* \"#utility.yul\":6336:6462   */\n    tag_263:\n        /* \"#utility.yul\":6386:6395   */\n      0x00\n        /* \"#utility.yul\":6419:6456   */\n      tag_378\n        /* \"#utility.yul\":6450:6455   */\n      dup3\n        /* \"#utility.yul\":6419:6456   */\n      tag_262\n      jump\t// in\n    tag_378:\n        /* \"#utility.yul\":6406:6456   */\n      swap1\n      pop\n        /* \"#utility.yul\":6336:6462   */\n      swap2\n      swap1\n      pop\n      jump\t// out\n        /* \"#utility.yul\":6468:6608   */\n    tag_264:\n        /* \"#utility.yul\":6532:6541   */\n      0x00\n        /* \"#utility.yul\":6565:6602   */\n      tag_380\n        /* \"#utility.yul\":6596:6601   */\n      dup3\n        /* \"#utility.yul\":6565:6602   */\n      tag_263\n      jump\t// in\n    tag_380:\n        /* \"#utility.yul\":6552:6602   */\n      swap1\n      pop\n        /* \"#utility.yul\":6468:6608   */\n      swap2\n      swap1\n      pop\n      jump\t// out\n        /* \"#utility.yul\":6614:6773   */\n    tag_265:\n        /* \"#utility.yul\":6715:6766   */\n      tag_382\n        /* \"#utility.yul\":6760:6765   */\n      dup2\n        /* \"#utility.yul\":6715:6766   */\n      tag_264\n      jump\t// in\n    tag_382:\n        /* \"#utility.yul\":6710:6713   */\n      dup3\n        /* \"#utility.yul\":6703:6767   */\n      mstore\n        /* \"#utility.yul\":6614:6773   */\n      pop\n      pop\n      jump\t// out\n        /* \"#utility.yul\":6779:7029   */\n    tag_92:\n        /* \"#utility.yul\":6886:6890   */\n      0x00\n        /* \"#utility.yul\":6924:6926   */\n      0x20\n        /* \"#utility.yul\":6913:6922   */\n      dup3\n        /* \"#utility.yul\":6909:6927   */\n      add\n        /* \"#utility.yul\":6901:6927   */\n      swap1\n      pop\n        /* \"#utility.yul\":6937:7022   */\n      tag_384\n        /* \"#utility.yul\":7019:7020   */\n      0x00\n        /* \"#utility.yul\":7008:7017   */\n      dup4\n        /* \"#utility.yul\":7004:7021   */\n      add\n        /* \"#utility.yul\":6995:7001   */\n      dup5\n        /* \"#utility.yul\":6937:7022   */\n      tag_265\n      jump\t// in\n    tag_384:\n        /* \"#utility.yul\":6779:7029   */\n      swap3\n      swap2\n      pop\n      pop\n      jump\t// out\n        /* \"#utility.yul\":7035:7215   */\n    tag_266:\n        /* \"#utility.yul\":7083:7160   */\n      0x4e487b7100000000000000000000000000000000000000000000000000000000\n        /* \"#utility.yul\":7080:7081   */\n      0x00\n        /* \"#utility.yul\":7073:7161   */\n      mstore\n        /* \"#utility.yul\":7180:7184   */\n      0x22\n        /* \"#utility.yul\":7177:7178   */\n      0x04\n        /* \"#utility.yul\":7170:7185   */\n      mstore\n        /* \"#utility.yul\":7204:7208   */\n      0x24\n        /* \"#utility.yul\":7201:7202   */\n      0x00\n        /* \"#utility.yul\":7194:7209   */\n      revert\n        /* \"#utility.yul\":7221:7541   */\n    tag_94:\n        /* \"#utility.yul\":7265:7271   */\n      0x00\n        /* \"#utility.yul\":7302:7303   */\n      0x02\n        /* \"#utility.yul\":7296:7300   */\n      dup3\n        /* \"#utility.yul\":7292:7304   */\n      div\n        /* \"#utility.yul\":7282:7304   */\n      swap1\n      pop\n        /* \"#utility.yul\":7349:7350   */\n      0x01\n        /* \"#utility.yul\":7343:7347   */\n      dup3\n        /* \"#utility.yul\":7339:7351   */\n      and\n        /* \"#utility.yul\":7370:7388   */\n      dup1\n        /* \"#utility.yul\":7360:7441   */\n      tag_387\n      jumpi\n        /* \"#utility.yul\":7426:7430   */\n      0x7f\n        /* \"#utility.yul\":7418:7424   */\n      dup3\n        /* \"#utility.yul\":7414:7431   */\n      and\n        /* \"#utility.yul\":7404:7431   */\n      swap2\n      pop\n        /* \"#utility.yul\":7360:7441   */\n    tag_387:\n        /* \"#utility.yul\":7488:7490   */\n      0x20\n        /* \"#utility.yul\":7480:7486   */\n      dup3\n        /* \"#utility.yul\":7477:7491   */\n      lt\n        /* \"#utility.yul\":7457:7475   */\n      dup2\n        /* \"#utility.yul\":7454:7492   */\n      sub\n        /* \"#utility.yul\":7451:7535   */\n      tag_388\n      jumpi\n        /* \"#utility.yul\":7507:7525   */\n      tag_389\n      tag_266\n      jump\t// in\n    tag_389:\n        /* \"#utility.yul\":7451:7535   */\n    tag_388:\n        /* \"#utility.yul\":7272:7541   */\n      pop\n        /* \"#utility.yul\":7221:7541   */\n      swap2\n      swap1\n      pop\n      jump\t// out\n        /* \"#utility.yul\":7547:7714   */\n    tag_267:\n        /* \"#utility.yul\":7687:7706   */\n      0x41756374696f6e206e6f7420656e646564000000000000000000000000000000\n        /* \"#utility.yul\":7683:7684   */\n      0x00\n        /* \"#utility.yul\":7675:7681   */\n      dup3\n        /* \"#utility.yul\":7671:7685   */\n      add\n        /* \"#utility.yul\":7664:7707   */\n      mstore\n        /* \"#utility.yul\":7547:7714   */\n      pop\n      jump\t// out\n        /* \"#utility.yul\":7720:8086   */\n    tag_268:\n        /* \"#utility.yul\":7862:7865   */\n      0x00\n        /* \"#utility.yul\":7883:7950   */\n      tag_392\n        /* \"#utility.yul\":7947:7949   */\n      0x11\n        /* \"#utility.yul\":7942:7945   */\n      dup4\n        /* \"#utility.yul\":7883:7950   */\n      tag_241\n      jump\t// in\n    tag_392:\n        /* \"#utility.yul\":7876:7950   */\n      swap2\n      pop\n        /* \"#utility.yul\":7959:8052   */\n      tag_393\n        /* \"#utility.yul\":8048:8051   */\n      dup3\n        /* \"#utility.yul\":7959:8052   */\n      tag_267\n      jump\t// in\n    tag_393:\n        /* \"#utility.yul\":8077:8079   */\n      0x20\n        /* \"#utility.yul\":8072:8075   */\n      dup3\n        /* \"#utility.yul\":8068:8080   */\n      add\n        /* \"#utility.yul\":8061:8080   */\n      swap1\n      pop\n        /* \"#utility.yul\":7720:8086   */\n      swap2\n      swap1\n      pop\n      jump\t// out\n        /* \"#utility.yul\":8092:8511   */\n    tag_107:\n        /* \"#utility.yul\":8258:8262   */\n      0x00\n        /* \"#utility.yul\":8296:8298   */\n      0x20\n        /* \"#utility.yul\":8285:8294   */\n      dup3\n        /* \"#utility.yul\":8281:8299   */\n      add\n        /* \"#utility.yul\":8273:8299   */\n      swap1\n      pop\n        /* \"#utility.yul\":8345:8354   */\n      dup2\n        /* \"#utility.yul\":8339:8343   */\n      dup2\n        /* \"#utility.yul\":8335:8355   */\n      sub\n        /* \"#utility.yul\":8331:8332   */\n      0x00\n        /* \"#utility.yul\":8320:8329   */\n      dup4\n        /* \"#utility.yul\":8316:8333   */\n      add\n        /* \"#utility.yul\":8309:8356   */\n      mstore\n        /* \"#utility.yul\":8373:8504   */\n      tag_395\n        /* \"#utility.yul\":8499:8503   */\n      dup2\n        /* \"#utility.yul\":8373:8504   */\n      tag_268\n      jump\t// in\n    tag_395:\n        /* \"#utility.yul\":8365:8504   */\n      swap1\n      pop\n        /* \"#utility.yul\":8092:8511   */\n      swap2\n      swap1\n      pop\n      jump\t// out\n        /* \"#utility.yul\":8517:8686   */\n    tag_269:\n        /* \"#utility.yul\":8657:8678   */\n      0x4e6f7468696e6720746f20776974686472617700000000000000000000000000\n        /* \"#utility.yul\":8653:8654   */\n      0x00\n        /* \"#utility.yul\":8645:8651   */\n      dup3\n        /* \"#utility.yul\":8641:8655   */\n      add\n        /* \"#utility.yul\":8634:8679   */\n      mstore\n        /* \"#utility.yul\":8517:8686   */\n      pop\n      jump\t// out\n        /* \"#utility.yul\":8692:9058   */\n    tag_270:\n        /* \"#utility.yul\":8834:8837   */\n      0x00\n        /* \"#utility.yul\":8855:8922   */\n      tag_398\n        /* \"#utility.yul\":8919:8921   */\n      0x13\n        /* \"#utility.yul\":8914:8917   */\n      dup4\n        /* \"#utility.yul\":8855:8922   */\n      tag_241\n      jump\t// in\n    tag_398:\n        /* \"#utility.yul\":8848:8922   */\n      swap2\n      pop\n        /* \"#utility.yul\":8931:9024   */\n      tag_399\n        /* \"#utility.yul\":9020:9023   */\n      dup3\n        /* \"#utility.yul\":8931:9024   */\n      tag_269\n      jump\t// in\n    tag_399:\n        /* \"#utility.yul\":9049:9051   */\n      0x20\n        /* \"#utility.yul\":9044:9047   */\n      dup3\n        /* \"#utility.yul\":9040:9052   */\n      add\n        /* \"#utility.yul\":9033:9052   */\n      swap1\n      pop\n        /* \"#utility.yul\":8692:9058   */\n      swap2\n      swap1\n      pop\n      jump\t// out\n        /* \"#utility.yul\":9064:9483   */\n    tag_110:\n        /* \"#utility.yul\":9230:9234   */\n      0x00\n        /* \"#utility.yul\":9268:9270   */\n      0x20\n        /* \"#utility.yul\":9257:9266   */\n      dup3\n        /* \"#utility.yul\":9253:9271   */\n      add\n        /* \"#utility.yul\":9245:9271   */\n      swap1\n      pop\n        /* \"#utility.yul\":9317:9326   */\n      dup2\n        /* \"#utility.yul\":9311:9315   */\n      dup2\n        /* \"#utility.yul\":9307:9327   */\n      sub\n        /* \"#utility.yul\":9303:9304   */\n      0x00\n        /* \"#utility.yul\":9292:9301   */\n      dup4\n        /* \"#utility.yul\":9288:9305   */\n      add\n        /* \"#utility.yul\":9281:9328   */\n      mstore\n        /* \"#utility.yul\":9345:9476   */\n      tag_401\n        /* \"#utility.yul\":9471:9475   */\n      dup2\n        /* \"#utility.yul\":9345:9476   */\n      tag_270\n      jump\t// in\n    tag_401:\n        /* \"#utility.yul\":9337:9476   */\n      swap1\n      pop\n        /* \"#utility.yul\":9064:9483   */\n      swap2\n      swap1\n      pop\n      jump\t// out\n        /* \"#utility.yul\":9489:9821   */\n    tag_112:\n        /* \"#utility.yul\":9610:9614   */\n      0x00\n        /* \"#utility.yul\":9648:9650   */\n      0x40\n        /* \"#utility.yul\":9637:9646   */\n      dup3\n        /* \"#utility.yul\":9633:9651   */\n      add\n        /* \"#utility.yul\":9625:9651   */\n      swap1\n      pop\n        /* \"#utility.yul\":9661:9732   */\n      tag_403\n        /* \"#utility.yul\":9729:9730   */\n      0x00\n        /* \"#utility.yul\":9718:9727   */\n      dup4\n        /* \"#utility.yul\":9714:9731   */\n      add\n        /* \"#utility.yul\":9705:9711   */\n      dup6\n        /* \"#utility.yul\":9661:9732   */\n      tag_253\n      jump\t// in\n    tag_403:\n        /* \"#utility.yul\":9742:9814   */\n      tag_404\n        /* \"#utility.yul\":9810:9812   */\n      0x20\n        /* \"#utility.yul\":9799:9808   */\n      dup4\n        /* \"#utility.yul\":9795:9813   */\n      add\n        /* \"#utility.yul\":9786:9792   */\n      dup5\n        /* \"#utility.yul\":9742:9814   */\n      tag_248\n      jump\t// in\n    tag_404:\n        /* \"#utility.yul\":9489:9821   */\n      swap4\n      swap3\n      pop\n      pop\n      pop\n      jump\t// out\n        /* \"#utility.yul\":9827:9943   */\n    tag_271:\n        /* \"#utility.yul\":9897:9918   */\n      tag_406\n        /* \"#utility.yul\":9912:9917   */\n      dup2\n        /* \"#utility.yul\":9897:9918   */\n      tag_245\n      jump\t// in\n    tag_406:\n        /* \"#utility.yul\":9890:9895   */\n      dup2\n        /* \"#utility.yul\":9887:9919   */\n      eq\n        /* \"#utility.yul\":9877:9937   */\n      tag_407\n      jumpi\n        /* \"#utility.yul\":9933:9934   */\n      0x00\n        /* \"#utility.yul\":9930:9931   */\n      0x00\n        /* \"#utility.yul\":9923:9935   */\n      revert\n        /* \"#utility.yul\":9877:9937   */\n    tag_407:\n        /* \"#utility.yul\":9827:9943   */\n      pop\n      jump\t// out\n        /* \"#utility.yul\":9949:10086   */\n    tag_272:\n        /* \"#utility.yul\":10003:10008   */\n      0x00\n        /* \"#utility.yul\":10034:10040   */\n      dup2\n        /* \"#utility.yul\":10028:10041   */\n      mload\n        /* \"#utility.yul\":10019:10041   */\n      swap1\n      pop\n        /* \"#utility.yul\":10050:10080   */\n      tag_409\n        /* \"#utility.yul\":10074:10079   */\n      dup2\n        /* \"#utility.yul\":10050:10080   */\n      tag_271\n      jump\t// in\n    tag_409:\n        /* \"#utility.yul\":9949:10086   */\n      swap3\n      swap2\n      pop\n      pop\n      jump\t// out\n        /* \"#utility.yul\":10092:10437   */\n    tag_116:\n        /* \"#utility.yul\":10159:10165   */\n      0x00\n        /* \"#utility.yul\":10208:10210   */\n      0x20\n        /* \"#utility.yul\":10196:10205   */\n      dup3\n        /* \"#utility.yul\":10187:10194   */\n      dup5\n        /* \"#utility.yul\":10183:10206   */\n      sub\n        /* \"#utility.yul\":10179:10211   */\n      slt\n        /* \"#utility.yul\":10176:10295   */\n      iszero\n      tag_411\n      jumpi\n        /* \"#utility.yul\":10214:10293   */\n      tag_412\n      tag_255\n      jump\t// in\n    tag_412:\n        /* \"#utility.yul\":10176:10295   */\n    tag_411:\n        /* \"#utility.yul\":10334:10335   */\n      0x00\n        /* \"#utility.yul\":10359:10420   */\n      tag_413\n        /* \"#utility.yul\":10412:10419   */\n      dup5\n        /* \"#utility.yul\":10403:10409   */\n      dup3\n        /* \"#utility.yul\":10392:10401   */\n      dup6\n        /* \"#utility.yul\":10388:10410   */\n      add\n        /* \"#utility.yul\":10359:10420   */\n      tag_272\n      jump\t// in\n    tag_413:\n        /* \"#utility.yul\":10349:10420   */\n      swap2\n      pop\n        /* \"#utility.yul\":10305:10430   */\n      pop\n        /* \"#utility.yul\":10092:10437   */\n      swap3\n      swap2\n      pop\n      pop\n      jump\t// out\n        /* \"#utility.yul\":10443:10619   */\n    tag_273:\n        /* \"#utility.yul\":10583:10611   */\n      0x5769746864726177616c207472616e73666572206661696c6564000000000000\n        /* \"#utility.yul\":10579:10580   */\n      0x00\n        /* \"#utility.yul\":10571:10577   */\n      dup3\n        /* \"#utility.yul\":10567:10581   */\n      add\n        /* \"#utility.yul\":10560:10612   */\n      mstore\n        /* \"#utility.yul\":10443:10619   */\n      pop\n      jump\t// out\n        /* \"#utility.yul\":10625:10991   */\n    tag_274:\n        /* \"#utility.yul\":10767:10770   */\n      0x00\n        /* \"#utility.yul\":10788:10855   */\n      tag_416\n        /* \"#utility.yul\":10852:10854   */\n      0x1a\n        /* \"#utility.yul\":10847:10850   */\n      dup4\n        /* \"#utility.yul\":10788:10855   */\n      tag_241\n      jump\t// in\n    tag_416:\n        /* \"#utility.yul\":10781:10855   */\n      swap2\n      pop\n        /* \"#utility.yul\":10864:10957   */\n      tag_417\n        /* \"#utility.yul\":10953:10956   */\n      dup3\n        /* \"#utility.yul\":10864:10957   */\n      tag_273\n      jump\t// in\n    tag_417:\n        /* \"#utility.yul\":10982:10984   */\n      0x20\n        /* \"#utility.yul\":10977:10980   */\n      dup3\n        /* \"#utility.yul\":10973:10985   */\n      add\n        /* \"#utility.yul\":10966:10985   */\n      swap1\n      pop\n        /* \"#utility.yul\":10625:10991   */\n      swap2\n      swap1\n      pop\n      jump\t// out\n        /* \"#utility.yul\":10997:11416   */\n    tag_119:\n        /* \"#utility.yul\":11163:11167   */\n      0x00\n        /* \"#utility.yul\":11201:11203   */\n      0x20\n        /* \"#utility.yul\":11190:11199   */\n      dup3\n        /* \"#utility.yul\":11186:11204   */\n      add\n        /* \"#utility.yul\":11178:11204   */\n      swap1\n      pop\n        /* \"#utility.yul\":11250:11259   */\n      dup2\n        /* \"#utility.yul\":11244:11248   */\n      dup2\n        /* \"#utility.yul\":11240:11260   */\n      sub\n        /* \"#utility.yul\":11236:11237   */\n      0x00\n        /* \"#utility.yul\":11225:11234   */\n      dup4\n        /* \"#utility.yul\":11221:11238   */\n      add\n        /* \"#utility.yul\":11214:11261   */\n      mstore\n        /* \"#utility.yul\":11278:11409   */\n      tag_419\n        /* \"#utility.yul\":11404:11408   */\n      dup2\n        /* \"#utility.yul\":11278:11409   */\n      tag_274\n      jump\t// in\n    tag_419:\n        /* \"#utility.yul\":11270:11409   */\n      swap1\n      pop\n        /* \"#utility.yul\":10997:11416   */\n      swap2\n      swap1\n      pop\n      jump\t// out\n        /* \"#utility.yul\":11422:11565   */\n    tag_275:\n        /* \"#utility.yul\":11479:11484   */\n      0x00\n        /* \"#utility.yul\":11510:11516   */\n      dup2\n        /* \"#utility.yul\":11504:11517   */\n      mload\n        /* \"#utility.yul\":11495:11517   */\n      swap1\n      pop\n        /* \"#utility.yul\":11526:11559   */\n      tag_421\n        /* \"#utility.yul\":11553:11558   */\n      dup2\n        /* \"#utility.yul\":11526:11559   */\n      tag_257\n      jump\t// in\n    tag_421:\n        /* \"#utility.yul\":11422:11565   */\n      swap3\n      swap2\n      pop\n      pop\n      jump\t// out\n        /* \"#utility.yul\":11571:11922   */\n    tag_130:\n        /* \"#utility.yul\":11641:11647   */\n      0x00\n        /* \"#utility.yul\":11690:11692   */\n      0x20\n        /* \"#utility.yul\":11678:11687   */\n      dup3\n        /* \"#utility.yul\":11669:11676   */\n      dup5\n        /* \"#utility.yul\":11665:11688   */\n      sub\n        /* \"#utility.yul\":11661:11693   */\n      slt\n        /* \"#utility.yul\":11658:11777   */\n      iszero\n      tag_423\n      jumpi\n        /* \"#utility.yul\":11696:11775   */\n      tag_424\n      tag_255\n      jump\t// in\n    tag_424:\n        /* \"#utility.yul\":11658:11777   */\n    tag_423:\n        /* \"#utility.yul\":11816:11817   */\n      0x00\n        /* \"#utility.yul\":11841:11905   */\n      tag_425\n        /* \"#utility.yul\":11897:11904   */\n      dup5\n        /* \"#utility.yul\":11888:11894   */\n      dup3\n        /* \"#utility.yul\":11877:11886   */\n      dup6\n        /* \"#utility.yul\":11873:11895   */\n      add\n        /* \"#utility.yul\":11841:11905   */\n      tag_275\n      jump\t// in\n    tag_425:\n        /* \"#utility.yul\":11831:11905   */\n      swap2\n      pop\n        /* \"#utility.yul\":11787:11915   */\n      pop\n        /* \"#utility.yul\":11571:11922   */\n      swap3\n      swap2\n      pop\n      pop\n      jump\t// out\n        /* \"#utility.yul\":11928:12087   */\n    tag_276:\n        /* \"#utility.yul\":12068:12079   */\n      0x4e6f74206f776e65720000000000000000000000000000000000000000000000\n        /* \"#utility.yul\":12064:12065   */\n      0x00\n        /* \"#utility.yul\":12056:12062   */\n      dup3\n        /* \"#utility.yul\":12052:12066   */\n      add\n        /* \"#utility.yul\":12045:12080   */\n      mstore\n        /* \"#utility.yul\":11928:12087   */\n      pop\n      jump\t// out\n        /* \"#utility.yul\":12093:12458   */\n    tag_277:\n        /* \"#utility.yul\":12235:12238   */\n      0x00\n        /* \"#utility.yul\":12256:12322   */\n      tag_428\n        /* \"#utility.yul\":12320:12321   */\n      0x09\n        /* \"#utility.yul\":12315:12318   */\n      dup4\n        /* \"#utility.yul\":12256:12322   */\n      tag_241\n      jump\t// in\n    tag_428:\n        /* \"#utility.yul\":12249:12322   */\n      swap2\n      pop\n        /* \"#utility.yul\":12331:12424   */\n      tag_429\n        /* \"#utility.yul\":12420:12423   */\n      dup3\n        /* \"#utility.yul\":12331:12424   */\n      tag_276\n      jump\t// in\n    tag_429:\n        /* \"#utility.yul\":12449:12451   */\n      0x20\n        /* \"#utility.yul\":12444:12447   */\n      dup3\n        /* \"#utility.yul\":12440:12452   */\n      add\n        /* \"#utility.yul\":12433:12452   */\n      swap1\n      pop\n        /* \"#utility.yul\":12093:12458   */\n      swap2\n      swap1\n      pop\n      jump\t// out\n        /* \"#utility.yul\":12464:12883   */\n    tag_134:\n        /* \"#utility.yul\":12630:12634   */\n      0x00\n        /* \"#utility.yul\":12668:12670   */\n      0x20\n        /* \"#utility.yul\":12657:12666   */\n      dup3\n        /* \"#utility.yul\":12653:12671   */\n      add\n        /* \"#utility.yul\":12645:12671   */\n      swap1\n      pop\n        /* \"#utility.yul\":12717:12726   */\n      dup2\n        /* \"#utility.yul\":12711:12715   */\n      dup2\n        /* \"#utility.yul\":12707:12727   */\n      sub\n        /* \"#utility.yul\":12703:12704   */\n      0x00\n        /* \"#utility.yul\":12692:12701   */\n      dup4\n        /* \"#utility.yul\":12688:12705   */\n      add\n        /* \"#utility.yul\":12681:12728   */\n      mstore\n        /* \"#utility.yul\":12745:12876   */\n      tag_431\n        /* \"#utility.yul\":12871:12875   */\n      dup2\n        /* \"#utility.yul\":12745:12876   */\n      tag_277\n      jump\t// in\n    tag_431:\n        /* \"#utility.yul\":12737:12876   */\n      swap1\n      pop\n        /* \"#utility.yul\":12464:12883   */\n      swap2\n      swap1\n      pop\n      jump\t// out\n        /* \"#utility.yul\":12889:13055   */\n    tag_278:\n        /* \"#utility.yul\":13029:13047   */\n      0x416c72656164792063616e63656c656400000000000000000000000000000000\n        /* \"#utility.yul\":13025:13026   */\n      0x00\n        /* \"#utility.yul\":13017:13023   */\n      dup3\n        /* \"#utility.yul\":13013:13027   */\n      add\n        /* \"#utility.yul\":13006:13048   */\n      mstore\n        /* \"#utility.yul\":12889:13055   */\n      pop\n      jump\t// out\n        /* \"#utility.yul\":13061:13427   */\n    tag_279:\n        /* \"#utility.yul\":13203:13206   */\n      0x00\n        /* \"#utility.yul\":13224:13291   */\n      tag_434\n        /* \"#utility.yul\":13288:13290   */\n      0x10\n        /* \"#utility.yul\":13283:13286   */\n      dup4\n        /* \"#utility.yul\":13224:13291   */\n      tag_241\n      jump\t// in\n    tag_434:\n        /* \"#utility.yul\":13217:13291   */\n      swap2\n      pop\n        /* \"#utility.yul\":13300:13393   */\n      tag_435\n        /* \"#utility.yul\":13389:13392   */\n      dup3\n        /* \"#utility.yul\":13300:13393   */\n      tag_278\n      jump\t// in\n    tag_435:\n        /* \"#utility.yul\":13418:13420   */\n      0x20\n        /* \"#utility.yul\":13413:13416   */\n      dup3\n        /* \"#utility.yul\":13409:13421   */\n      add\n        /* \"#utility.yul\":13402:13421   */\n      swap1\n      pop\n        /* \"#utility.yul\":13061:13427   */\n      swap2\n      swap1\n      pop\n      jump\t// out\n        /* \"#utility.yul\":13433:13852   */\n    tag_137:\n        /* \"#utility.yul\":13599:13603   */\n      0x00\n        /* \"#utility.yul\":13637:13639   */\n      0x20\n        /* \"#utility.yul\":13626:13635   */\n      dup3\n        /* \"#utility.yul\":13622:13640   */\n      add\n        /* \"#utility.yul\":13614:13640   */\n      swap1\n      pop\n        /* \"#utility.yul\":13686:13695   */\n      dup2\n        /* \"#utility.yul\":13680:13684   */\n      dup2\n        /* \"#utility.yul\":13676:13696   */\n      sub\n        /* \"#utility.yul\":13672:13673   */\n      0x00\n        /* \"#utility.yul\":13661:13670   */\n      dup4\n        /* \"#utility.yul\":13657:13674   */\n      add\n        /* \"#utility.yul\":13650:13697   */\n      mstore\n        /* \"#utility.yul\":13714:13845   */\n      tag_437\n        /* \"#utility.yul\":13840:13844   */\n      dup2\n        /* \"#utility.yul\":13714:13845   */\n      tag_279\n      jump\t// in\n    tag_437:\n        /* \"#utility.yul\":13706:13845   */\n      swap1\n      pop\n        /* \"#utility.yul\":13433:13852   */\n      swap2\n      swap1\n      pop\n      jump\t// out\n        /* \"#utility.yul\":13858:14021   */\n    tag_280:\n        /* \"#utility.yul\":13998:14013   */\n      0x416c726561647920656e64656400000000000000000000000000000000000000\n        /* \"#utility.yul\":13994:13995   */\n      0x00\n        /* \"#utility.yul\":13986:13992   */\n      dup3\n        /* \"#utility.yul\":13982:13996   */\n      add\n        /* \"#utility.yul\":13975:14014   */\n      mstore\n        /* \"#utility.yul\":13858:14021   */\n      pop\n      jump\t// out\n        /* \"#utility.yul\":14027:14393   */\n    tag_281:\n        /* \"#utility.yul\":14169:14172   */\n      0x00\n        /* \"#utility.yul\":14190:14257   */\n      tag_440\n        /* \"#utility.yul\":14254:14256   */\n      0x0d\n        /* \"#utility.yul\":14249:14252   */\n      dup4\n        /* \"#utility.yul\":14190:14257   */\n      tag_241\n      jump\t// in\n    tag_440:\n        /* \"#utility.yul\":14183:14257   */\n      swap2\n      pop\n        /* \"#utility.yul\":14266:14359   */\n      tag_441\n        /* \"#utility.yul\":14355:14358   */\n      dup3\n        /* \"#utility.yul\":14266:14359   */\n      tag_280\n      jump\t// in\n    tag_441:\n        /* \"#utility.yul\":14384:14386   */\n      0x20\n        /* \"#utility.yul\":14379:14382   */\n      dup3\n        /* \"#utility.yul\":14375:14387   */\n      add\n        /* \"#utility.yul\":14368:14387   */\n      swap1\n      pop\n        /* \"#utility.yul\":14027:14393   */\n      swap2\n      swap1\n      pop\n      jump\t// out\n        /* \"#utility.yul\":14399:14818   */\n    tag_140:\n        /* \"#utility.yul\":14565:14569   */\n      0x00\n        /* \"#utility.yul\":14603:14605   */\n      0x20\n        /* \"#utility.yul\":14592:14601   */\n      dup3\n        /* \"#utility.yul\":14588:14606   */\n      add\n        /* \"#utility.yul\":14580:14606   */\n      swap1\n      pop\n        /* \"#utility.yul\":14652:14661   */\n      dup2\n        /* \"#utility.yul\":14646:14650   */\n      dup2\n        /* \"#utility.yul\":14642:14662   */\n      sub\n        /* \"#utility.yul\":14638:14639   */\n      0x00\n        /* \"#utility.yul\":14627:14636   */\n      dup4\n        /* \"#utility.yul\":14623:14640   */\n      add\n        /* \"#utility.yul\":14616:14663   */\n      mstore\n        /* \"#utility.yul\":14680:14811   */\n      tag_443\n        /* \"#utility.yul\":14806:14810   */\n      dup2\n        /* \"#utility.yul\":14680:14811   */\n      tag_281\n      jump\t// in\n    tag_443:\n        /* \"#utility.yul\":14672:14811   */\n      swap1\n      pop\n        /* \"#utility.yul\":14399:14818   */\n      swap2\n      swap1\n      pop\n      jump\t// out\n        /* \"#utility.yul\":14824:14996   */\n    tag_282:\n        /* \"#utility.yul\":14964:14988   */\n      0x526566756e64207472616e73666572206661696c656400000000000000000000\n        /* \"#utility.yul\":14960:14961   */\n      0x00\n        /* \"#utility.yul\":14952:14958   */\n      dup3\n        /* \"#utility.yul\":14948:14962   */\n      add\n        /* \"#utility.yul\":14941:14989   */\n      mstore\n        /* \"#utility.yul\":14824:14996   */\n      pop\n      jump\t// out\n        /* \"#utility.yul\":15002:15368   */\n    tag_283:\n        /* \"#utility.yul\":15144:15147   */\n      0x00\n        /* \"#utility.yul\":15165:15232   */\n      tag_446\n        /* \"#utility.yul\":15229:15231   */\n      0x16\n        /* \"#utility.yul\":15224:15227   */\n      dup4\n        /* \"#utility.yul\":15165:15232   */\n      tag_241\n      jump\t// in\n    tag_446:\n        /* \"#utility.yul\":15158:15232   */\n      swap2\n      pop\n        /* \"#utility.yul\":15241:15334   */\n      tag_447\n        /* \"#utility.yul\":15330:15333   */\n      dup3\n        /* \"#utility.yul\":15241:15334   */\n      tag_282\n      jump\t// in\n    tag_447:\n        /* \"#utility.yul\":15359:15361   */\n      0x20\n        /* \"#utility.yul\":15354:15357   */\n      dup3\n        /* \"#utility.yul\":15350:15362   */\n      add\n        /* \"#utility.yul\":15343:15362   */\n      swap1\n      pop\n        /* \"#utility.yul\":15002:15368   */\n      swap2\n      swap1\n      pop\n      jump\t// out\n        /* \"#utility.yul\":15374:15793   */\n    tag_149:\n        /* \"#utility.yul\":15540:15544   */\n      0x00\n        /* \"#utility.yul\":15578:15580   */\n      0x20\n        /* \"#utility.yul\":15567:15576   */\n      dup3\n        /* \"#utility.yul\":15563:15581   */\n      add\n        /* \"#utility.yul\":15555:15581   */\n      swap1\n      pop\n        /* \"#utility.yul\":15627:15636   */\n      dup2\n        /* \"#utility.yul\":15621:15625   */\n      dup2\n        /* \"#utility.yul\":15617:15637   */\n      sub\n        /* \"#utility.yul\":15613:15614   */\n      0x00\n        /* \"#utility.yul\":15602:15611   */\n      dup4\n        /* \"#utility.yul\":15598:15615   */\n      add\n        /* \"#utility.yul\":15591:15638   */\n      mstore\n        /* \"#utility.yul\":15655:15786   */\n      tag_449\n        /* \"#utility.yul\":15781:15785   */\n      dup2\n        /* \"#utility.yul\":15655:15786   */\n      tag_283\n      jump\t// in\n    tag_449:\n        /* \"#utility.yul\":15647:15786   */\n      swap1\n      pop\n        /* \"#utility.yul\":15374:15793   */\n      swap2\n      swap1\n      pop\n      jump\t// out\n        /* \"#utility.yul\":15799:15965   */\n    tag_284:\n        /* \"#utility.yul\":15939:15957   */\n      0x4f776e65722063616e6e6f742062696400000000000000000000000000000000\n        /* \"#utility.yul\":15935:15936   */\n      0x00\n        /* \"#utility.yul\":15927:15933   */\n      dup3\n        /* \"#utility.yul\":15923:15937   */\n      add\n        /* \"#utility.yul\":15916:15958   */\n      mstore\n        /* \"#utility.yul\":15799:15965   */\n      pop\n      jump\t// out\n        /* \"#utility.yul\":15971:16337   */\n    tag_285:\n        /* \"#utility.yul\":16113:16116   */\n      0x00\n        /* \"#utility.yul\":16134:16201   */\n      tag_452\n        /* \"#utility.yul\":16198:16200   */\n      0x10\n        /* \"#utility.yul\":16193:16196   */\n      dup4\n        /* \"#utility.yul\":16134:16201   */\n      tag_241\n      jump\t// in\n    tag_452:\n        /* \"#utility.yul\":16127:16201   */\n      swap2\n      pop\n        /* \"#utility.yul\":16210:16303   */\n      tag_453\n        /* \"#utility.yul\":16299:16302   */\n      dup3\n        /* \"#utility.yul\":16210:16303   */\n      tag_284\n      jump\t// in\n    tag_453:\n        /* \"#utility.yul\":16328:16330   */\n      0x20\n        /* \"#utility.yul\":16323:16326   */\n      dup3\n        /* \"#utility.yul\":16319:16331   */\n      add\n        /* \"#utility.yul\":16312:16331   */\n      swap1\n      pop\n        /* \"#utility.yul\":15971:16337   */\n      swap2\n      swap1\n      pop\n      jump\t// out\n        /* \"#utility.yul\":16343:16762   */\n    tag_153:\n        /* \"#utility.yul\":16509:16513   */\n      0x00\n        /* \"#utility.yul\":16547:16549   */\n      0x20\n        /* \"#utility.yul\":16536:16545   */\n      dup3\n        /* \"#utility.yul\":16532:16550   */\n      add\n        /* \"#utility.yul\":16524:16550   */\n      swap1\n      pop\n        /* \"#utility.yul\":16596:16605   */\n      dup2\n        /* \"#utility.yul\":16590:16594   */\n      dup2\n        /* \"#utility.yul\":16586:16606   */\n      sub\n        /* \"#utility.yul\":16582:16583   */\n      0x00\n        /* \"#utility.yul\":16571:16580   */\n      dup4\n        /* \"#utility.yul\":16567:16584   */\n      add\n        /* \"#utility.yul\":16560:16607   */\n      mstore\n        /* \"#utility.yul\":16624:16755   */\n      tag_455\n        /* \"#utility.yul\":16750:16754   */\n      dup2\n        /* \"#utility.yul\":16624:16755   */\n      tag_285\n      jump\t// in\n    tag_455:\n        /* \"#utility.yul\":16616:16755   */\n      swap1\n      pop\n        /* \"#utility.yul\":16343:16762   */\n      swap2\n      swap1\n      pop\n      jump\t// out\n        /* \"#utility.yul\":16768:16943   */\n    tag_286:\n        /* \"#utility.yul\":16908:16935   */\n      0x41756374696f6e20656e646564206f722063616e63656c656400000000000000\n        /* \"#utility.yul\":16904:16905   */\n      0x00\n        /* \"#utility.yul\":16896:16902   */\n      dup3\n        /* \"#utility.yul\":16892:16906   */\n      add\n        /* \"#utility.yul\":16885:16936   */\n      mstore\n        /* \"#utility.yul\":16768:16943   */\n      pop\n      jump\t// out\n        /* \"#utility.yul\":16949:17315   */\n    tag_287:\n        /* \"#utility.yul\":17091:17094   */\n      0x00\n        /* \"#utility.yul\":17112:17179   */\n      tag_458\n        /* \"#utility.yul\":17176:17178   */\n      0x19\n        /* \"#utility.yul\":17171:17174   */\n      dup4\n        /* \"#utility.yul\":17112:17179   */\n      tag_241\n      jump\t// in\n    tag_458:\n        /* \"#utility.yul\":17105:17179   */\n      swap2\n      pop\n        /* \"#utility.yul\":17188:17281   */\n      tag_459\n        /* \"#utility.yul\":17277:17280   */\n      dup3\n        /* \"#utility.yul\":17188:17281   */\n      tag_286\n      jump\t// in\n    tag_459:\n        /* \"#utility.yul\":17306:17308   */\n      0x20\n        /* \"#utility.yul\":17301:17304   */\n      dup3\n        /* \"#utility.yul\":17297:17309   */\n      add\n        /* \"#utility.yul\":17290:17309   */\n      swap1\n      pop\n        /* \"#utility.yul\":16949:17315   */\n      swap2\n      swap1\n      pop\n      jump\t// out\n        /* \"#utility.yul\":17321:17740   */\n    tag_157:\n        /* \"#utility.yul\":17487:17491   */\n      0x00\n        /* \"#utility.yul\":17525:17527   */\n      0x20\n        /* \"#utility.yul\":17514:17523   */\n      dup3\n        /* \"#utility.yul\":17510:17528   */\n      add\n        /* \"#utility.yul\":17502:17528   */\n      swap1\n      pop\n        /* \"#utility.yul\":17574:17583   */\n      dup2\n        /* \"#utility.yul\":17568:17572   */\n      dup2\n        /* \"#utility.yul\":17564:17584   */\n      sub\n        /* \"#utility.yul\":17560:17561   */\n      0x00\n        /* \"#utility.yul\":17549:17558   */\n      dup4\n        /* \"#utility.yul\":17545:17562   */\n      add\n        /* \"#utility.yul\":17538:17585   */\n      mstore\n        /* \"#utility.yul\":17602:17733   */\n      tag_461\n        /* \"#utility.yul\":17728:17732   */\n      dup2\n        /* \"#utility.yul\":17602:17733   */\n      tag_287\n      jump\t// in\n    tag_461:\n        /* \"#utility.yul\":17594:17733   */\n      swap1\n      pop\n        /* \"#utility.yul\":17321:17740   */\n      swap2\n      swap1\n      pop\n      jump\t// out\n        /* \"#utility.yul\":17746:17915   */\n    tag_288:\n        /* \"#utility.yul\":17886:17907   */\n      0x41756374696f6e206e6f74207374617274656400000000000000000000000000\n        /* \"#utility.yul\":17882:17883   */\n      0x00\n        /* \"#utility.yul\":17874:17880   */\n      dup3\n        /* \"#utility.yul\":17870:17884   */\n      add\n        /* \"#utility.yul\":17863:17908   */\n      mstore\n        /* \"#utility.yul\":17746:17915   */\n      pop\n      jump\t// out\n        /* \"#utility.yul\":17921:18287   */\n    tag_289:\n        /* \"#utility.yul\":18063:18066   */\n      0x00\n        /* \"#utility.yul\":18084:18151   */\n      tag_464\n        /* \"#utility.yul\":18148:18150   */\n      0x13\n        /* \"#utility.yul\":18143:18146   */\n      dup4\n        /* \"#utility.yul\":18084:18151   */\n      tag_241\n      jump\t// in\n    tag_464:\n        /* \"#utility.yul\":18077:18151   */\n      swap2\n      pop\n        /* \"#utility.yul\":18160:18253   */\n      tag_465\n        /* \"#utility.yul\":18249:18252   */\n      dup3\n        /* \"#utility.yul\":18160:18253   */\n      tag_288\n      jump\t// in\n    tag_465:\n        /* \"#utility.yul\":18278:18280   */\n      0x20\n        /* \"#utility.yul\":18273:18276   */\n      dup3\n        /* \"#utility.yul\":18269:18281   */\n      add\n        /* \"#utility.yul\":18262:18281   */\n      swap1\n      pop\n        /* \"#utility.yul\":17921:18287   */\n      swap2\n      swap1\n      pop\n      jump\t// out\n        /* \"#utility.yul\":18293:18712   */\n    tag_160:\n        /* \"#utility.yul\":18459:18463   */\n      0x00\n        /* \"#utility.yul\":18497:18499   */\n      0x20\n        /* \"#utility.yul\":18486:18495   */\n      dup3\n        /* \"#utility.yul\":18482:18500   */\n      add\n        /* \"#utility.yul\":18474:18500   */\n      swap1\n      pop\n        /* \"#utility.yul\":18546:18555   */\n      dup2\n        /* \"#utility.yul\":18540:18544   */\n      dup2\n        /* \"#utility.yul\":18536:18556   */\n      sub\n        /* \"#utility.yul\":18532:18533   */\n      0x00\n        /* \"#utility.yul\":18521:18530   */\n      dup4\n        /* \"#utility.yul\":18517:18534   */\n      add\n        /* \"#utility.yul\":18510:18557   */\n      mstore\n        /* \"#utility.yul\":18574:18705   */\n      tag_467\n        /* \"#utility.yul\":18700:18704   */\n      dup2\n        /* \"#utility.yul\":18574:18705   */\n      tag_289\n      jump\t// in\n    tag_467:\n        /* \"#utility.yul\":18566:18705   */\n      swap1\n      pop\n        /* \"#utility.yul\":18293:18712   */\n      swap2\n      swap1\n      pop\n      jump\t// out\n        /* \"#utility.yul\":18718:18881   */\n    tag_290:\n        /* \"#utility.yul\":18858:18873   */\n      0x41756374696f6e20656e64656400000000000000000000000000000000000000\n        /* \"#utility.yul\":18854:18855   */\n      0x00\n        /* \"#utility.yul\":18846:18852   */\n      dup3\n        /* \"#utility.yul\":18842:18856   */\n      add\n        /* \"#utility.yul\":18835:18874   */\n      mstore\n        /* \"#utility.yul\":18718:18881   */\n      pop\n      jump\t// out\n        /* \"#utility.yul\":18887:19253   */\n    tag_291:\n        /* \"#utility.yul\":19029:19032   */\n      0x00\n        /* \"#utility.yul\":19050:19117   */\n      tag_470\n        /* \"#utility.yul\":19114:19116   */\n      0x0d\n        /* \"#utility.yul\":19109:19112   */\n      dup4\n        /* \"#utility.yul\":19050:19117   */\n      tag_241\n      jump\t// in\n    tag_470:\n        /* \"#utility.yul\":19043:19117   */\n      swap2\n      pop\n        /* \"#utility.yul\":19126:19219   */\n      tag_471\n        /* \"#utility.yul\":19215:19218   */\n      dup3\n        /* \"#utility.yul\":19126:19219   */\n      tag_290\n      jump\t// in\n    tag_471:\n        /* \"#utility.yul\":19244:19246   */\n      0x20\n        /* \"#utility.yul\":19239:19242   */\n      dup3\n        /* \"#utility.yul\":19235:19247   */\n      add\n        /* \"#utility.yul\":19228:19247   */\n      swap1\n      pop\n        /* \"#utility.yul\":18887:19253   */\n      swap2\n      swap1\n      pop\n      jump\t// out\n        /* \"#utility.yul\":19259:19678   */\n    tag_163:\n        /* \"#utility.yul\":19425:19429   */\n      0x00\n        /* \"#utility.yul\":19463:19465   */\n      0x20\n        /* \"#utility.yul\":19452:19461   */\n      dup3\n        /* \"#utility.yul\":19448:19466   */\n      add\n        /* \"#utility.yul\":19440:19466   */\n      swap1\n      pop\n        /* \"#utility.yul\":19512:19521   */\n      dup2\n        /* \"#utility.yul\":19506:19510   */\n      dup2\n        /* \"#utility.yul\":19502:19522   */\n      sub\n        /* \"#utility.yul\":19498:19499   */\n      0x00\n        /* \"#utility.yul\":19487:19496   */\n      dup4\n        /* \"#utility.yul\":19483:19500   */\n      add\n        /* \"#utility.yul\":19476:19523   */\n      mstore\n        /* \"#utility.yul\":19540:19671   */\n      tag_473\n        /* \"#utility.yul\":19666:19670   */\n      dup2\n        /* \"#utility.yul\":19540:19671   */\n      tag_291\n      jump\t// in\n    tag_473:\n        /* \"#utility.yul\":19532:19671   */\n      swap1\n      pop\n        /* \"#utility.yul\":19259:19678   */\n      swap2\n      swap1\n      pop\n      jump\t// out\n        /* \"#utility.yul\":19684:19860   */\n    tag_292:\n        /* \"#utility.yul\":19824:19852   */\n      0x426964206d7573742062652067726561746572207468616e2030000000000000\n        /* \"#utility.yul\":19820:19821   */\n      0x00\n        /* \"#utility.yul\":19812:19818   */\n      dup3\n        /* \"#utility.yul\":19808:19822   */\n      add\n        /* \"#utility.yul\":19801:19853   */\n      mstore\n        /* \"#utility.yul\":19684:19860   */\n      pop\n      jump\t// out\n        /* \"#utility.yul\":19866:20232   */\n    tag_293:\n        /* \"#utility.yul\":20008:20011   */\n      0x00\n        /* \"#utility.yul\":20029:20096   */\n      tag_476\n        /* \"#utility.yul\":20093:20095   */\n      0x1a\n        /* \"#utility.yul\":20088:20091   */\n      dup4\n        /* \"#utility.yul\":20029:20096   */\n      tag_241\n      jump\t// in\n    tag_476:\n        /* \"#utility.yul\":20022:20096   */\n      swap2\n      pop\n        /* \"#utility.yul\":20105:20198   */\n      tag_477\n        /* \"#utility.yul\":20194:20197   */\n      dup3\n        /* \"#utility.yul\":20105:20198   */\n      tag_292\n      jump\t// in\n    tag_477:\n        /* \"#utility.yul\":20223:20225   */\n      0x20\n        /* \"#utility.yul\":20218:20221   */\n      dup3\n        /* \"#utility.yul\":20214:20226   */\n      add\n        /* \"#utility.yul\":20207:20226   */\n      swap1\n      pop\n        /* \"#utility.yul\":19866:20232   */\n      swap2\n      swap1\n      pop\n      jump\t// out\n        /* \"#utility.yul\":20238:20657   */\n    tag_166:\n        /* \"#utility.yul\":20404:20408   */\n      0x00\n        /* \"#utility.yul\":20442:20444   */\n      0x20\n        /* \"#utility.yul\":20431:20440   */\n      dup3\n        /* \"#utility.yul\":20427:20445   */\n      add\n        /* \"#utility.yul\":20419:20445   */\n      swap1\n      pop\n        /* \"#utility.yul\":20491:20500   */\n      dup2\n        /* \"#utility.yul\":20485:20489   */\n      dup2\n        /* \"#utility.yul\":20481:20501   */\n      sub\n        /* \"#utility.yul\":20477:20478   */\n      0x00\n        /* \"#utility.yul\":20466:20475   */\n      dup4\n        /* \"#utility.yul\":20462:20479   */\n      add\n        /* \"#utility.yul\":20455:20502   */\n      mstore\n        /* \"#utility.yul\":20519:20650   */\n      tag_479\n        /* \"#utility.yul\":20645:20649   */\n      dup2\n        /* \"#utility.yul\":20519:20650   */\n      tag_293\n      jump\t// in\n    tag_479:\n        /* \"#utility.yul\":20511:20650   */\n      swap1\n      pop\n        /* \"#utility.yul\":20238:20657   */\n      swap2\n      swap1\n      pop\n      jump\t// out\n        /* \"#utility.yul\":20663:20839   */\n    tag_294:\n        /* \"#utility.yul\":20803:20831   */\n      0x496e73756666696369656e7420746f6b656e2062616c616e6365000000000000\n        /* \"#utility.yul\":20799:20800   */\n      0x00\n        /* \"#utility.yul\":20791:20797   */\n      dup3\n        /* \"#utility.yul\":20787:20801   */\n      add\n        /* \"#utility.yul\":20780:20832   */\n      mstore\n        /* \"#utility.yul\":20663:20839   */\n      pop\n      jump\t// out\n        /* \"#utility.yul\":20845:21211   */\n    tag_295:\n        /* \"#utility.yul\":20987:20990   */\n      0x00\n        /* \"#utility.yul\":21008:21075   */\n      tag_482\n        /* \"#utility.yul\":21072:21074   */\n      0x1a\n        /* \"#utility.yul\":21067:21070   */\n      dup4\n        /* \"#utility.yul\":21008:21075   */\n      tag_241\n      jump\t// in\n    tag_482:\n        /* \"#utility.yul\":21001:21075   */\n      swap2\n      pop\n        /* \"#utility.yul\":21084:21177   */\n      tag_483\n        /* \"#utility.yul\":21173:21176   */\n      dup3\n        /* \"#utility.yul\":21084:21177   */\n      tag_294\n      jump\t// in\n    tag_483:\n        /* \"#utility.yul\":21202:21204   */\n      0x20\n        /* \"#utility.yul\":21197:21200   */\n      dup3\n        /* \"#utility.yul\":21193:21205   */\n      add\n        /* \"#utility.yul\":21186:21205   */\n      swap1\n      pop\n        /* \"#utility.yul\":20845:21211   */\n      swap2\n      swap1\n      pop\n      jump\t// out\n        /* \"#utility.yul\":21217:21636   */\n    tag_173:\n        /* \"#utility.yul\":21383:21387   */\n      0x00\n        /* \"#utility.yul\":21421:21423   */\n      0x20\n        /* \"#utility.yul\":21410:21419   */\n      dup3\n        /* \"#utility.yul\":21406:21424   */\n      add\n        /* \"#utility.yul\":21398:21424   */\n      swap1\n      pop\n        /* \"#utility.yul\":21470:21479   */\n      dup2\n        /* \"#utility.yul\":21464:21468   */\n      dup2\n        /* \"#utility.yul\":21460:21480   */\n      sub\n        /* \"#utility.yul\":21456:21457   */\n      0x00\n        /* \"#utility.yul\":21445:21454   */\n      dup4\n        /* \"#utility.yul\":21441:21458   */\n      add\n        /* \"#utility.yul\":21434:21481   */\n      mstore\n        /* \"#utility.yul\":21498:21629   */\n      tag_485\n        /* \"#utility.yul\":21624:21628   */\n      dup2\n        /* \"#utility.yul\":21498:21629   */\n      tag_295\n      jump\t// in\n    tag_485:\n        /* \"#utility.yul\":21490:21629   */\n      swap1\n      pop\n        /* \"#utility.yul\":21217:21636   */\n      swap2\n      swap1\n      pop\n      jump\t// out\n        /* \"#utility.yul\":21642:21822   */\n    tag_296:\n        /* \"#utility.yul\":21690:21767   */\n      0x4e487b7100000000000000000000000000000000000000000000000000000000\n        /* \"#utility.yul\":21687:21688   */\n      0x00\n        /* \"#utility.yul\":21680:21768   */\n      mstore\n        /* \"#utility.yul\":21787:21791   */\n      0x11\n        /* \"#utility.yul\":21784:21785   */\n      0x04\n        /* \"#utility.yul\":21777:21792   */\n      mstore\n        /* \"#utility.yul\":21811:21815   */\n      0x24\n        /* \"#utility.yul\":21808:21809   */\n      0x00\n        /* \"#utility.yul\":21801:21816   */\n      revert\n        /* \"#utility.yul\":21828:22019   */\n    tag_175:\n        /* \"#utility.yul\":21868:21871   */\n      0x00\n        /* \"#utility.yul\":21887:21907   */\n      tag_488\n        /* \"#utility.yul\":21905:21906   */\n      dup3\n        /* \"#utility.yul\":21887:21907   */\n      tag_247\n      jump\t// in\n    tag_488:\n        /* \"#utility.yul\":21882:21907   */\n      swap2\n      pop\n        /* \"#utility.yul\":21921:21941   */\n      tag_489\n        /* \"#utility.yul\":21939:21940   */\n      dup4\n        /* \"#utility.yul\":21921:21941   */\n      tag_247\n      jump\t// in\n    tag_489:\n        /* \"#utility.yul\":21916:21941   */\n      swap3\n      pop\n        /* \"#utility.yul\":21964:21965   */\n      dup3\n        /* \"#utility.yul\":21961:21962   */\n      dup3\n        /* \"#utility.yul\":21957:21966   */\n      add\n        /* \"#utility.yul\":21950:21966   */\n      swap1\n      pop\n        /* \"#utility.yul\":21985:21988   */\n      dup1\n        /* \"#utility.yul\":21982:21983   */\n      dup3\n        /* \"#utility.yul\":21979:21989   */\n      gt\n        /* \"#utility.yul\":21976:22012   */\n      iszero\n      tag_490\n      jumpi\n        /* \"#utility.yul\":21992:22010   */\n      tag_491\n      tag_296\n      jump\t// in\n    tag_491:\n        /* \"#utility.yul\":21976:22012   */\n    tag_490:\n        /* \"#utility.yul\":21828:22019   */\n      swap3\n      swap2\n      pop\n      pop\n      jump\t// out\n        /* \"#utility.yul\":22025:22189   */\n    tag_297:\n        /* \"#utility.yul\":22165:22181   */\n      0x42696420697320746f6f206c6f77000000000000000000000000000000000000\n        /* \"#utility.yul\":22161:22162   */\n      0x00\n        /* \"#utility.yul\":22153:22159   */\n      dup3\n        /* \"#utility.yul\":22149:22163   */\n      add\n        /* \"#utility.yul\":22142:22182   */\n      mstore\n        /* \"#utility.yul\":22025:22189   */\n      pop\n      jump\t// out\n        /* \"#utility.yul\":22195:22561   */\n    tag_298:\n        /* \"#utility.yul\":22337:22340   */\n      0x00\n        /* \"#utility.yul\":22358:22425   */\n      tag_494\n        /* \"#utility.yul\":22422:22424   */\n      0x0e\n        /* \"#utility.yul\":22417:22420   */\n      dup4\n        /* \"#utility.yul\":22358:22425   */\n      tag_241\n      jump\t// in\n    tag_494:\n        /* \"#utility.yul\":22351:22425   */\n      swap2\n      pop\n        /* \"#utility.yul\":22434:22527   */\n      tag_495\n        /* \"#utility.yul\":22523:22526   */\n      dup3\n        /* \"#utility.yul\":22434:22527   */\n      tag_297\n      jump\t// in\n    tag_495:\n        /* \"#utility.yul\":22552:22554   */\n      0x20\n        /* \"#utility.yul\":22547:22550   */\n      dup3\n        /* \"#utility.yul\":22543:22555   */\n      add\n        /* \"#utility.yul\":22536:22555   */\n      swap1\n      pop\n        /* \"#utility.yul\":22195:22561   */\n      swap2\n      swap1\n      pop\n      jump\t// out\n        /* \"#utility.yul\":22567:22986   */\n    tag_179:\n        /* \"#utility.yul\":22733:22737   */\n      0x00\n        /* \"#utility.yul\":22771:22773   */\n      0x20\n        /* \"#utility.yul\":22760:22769   */\n      dup3\n        /* \"#utility.yul\":22756:22774   */\n      add\n        /* \"#utility.yul\":22748:22774   */\n      swap1\n      pop\n        /* \"#utility.yul\":22820:22829   */\n      dup2\n        /* \"#utility.yul\":22814:22818   */\n      dup2\n        /* \"#utility.yul\":22810:22830   */\n      sub\n        /* \"#utility.yul\":22806:22807   */\n      0x00\n        /* \"#utility.yul\":22795:22804   */\n      dup4\n        /* \"#utility.yul\":22791:22808   */\n      add\n        /* \"#utility.yul\":22784:22831   */\n      mstore\n        /* \"#utility.yul\":22848:22979   */\n      tag_497\n        /* \"#utility.yul\":22974:22978   */\n      dup2\n        /* \"#utility.yul\":22848:22979   */\n      tag_298\n      jump\t// in\n    tag_497:\n        /* \"#utility.yul\":22840:22979   */\n      swap1\n      pop\n        /* \"#utility.yul\":22567:22986   */\n      swap2\n      swap1\n      pop\n      jump\t// out\n        /* \"#utility.yul\":22992:23434   */\n    tag_181:\n        /* \"#utility.yul\":23141:23145   */\n      0x00\n        /* \"#utility.yul\":23179:23181   */\n      0x60\n        /* \"#utility.yul\":23168:23177   */\n      dup3\n        /* \"#utility.yul\":23164:23182   */\n      add\n        /* \"#utility.yul\":23156:23182   */\n      swap1\n      pop\n        /* \"#utility.yul\":23192:23263   */\n      tag_499\n        /* \"#utility.yul\":23260:23261   */\n      0x00\n        /* \"#utility.yul\":23249:23258   */\n      dup4\n        /* \"#utility.yul\":23245:23262   */\n      add\n        /* \"#utility.yul\":23236:23242   */\n      dup7\n        /* \"#utility.yul\":23192:23263   */\n      tag_253\n      jump\t// in\n    tag_499:\n        /* \"#utility.yul\":23273:23345   */\n      tag_500\n        /* \"#utility.yul\":23341:23343   */\n      0x20\n        /* \"#utility.yul\":23330:23339   */\n      dup4\n        /* \"#utility.yul\":23326:23344   */\n      add\n        /* \"#utility.yul\":23317:23323   */\n      dup6\n        /* \"#utility.yul\":23273:23345   */\n      tag_253\n      jump\t// in\n    tag_500:\n        /* \"#utility.yul\":23355:23427   */\n      tag_501\n        /* \"#utility.yul\":23423:23425   */\n      0x40\n        /* \"#utility.yul\":23412:23421   */\n      dup4\n        /* \"#utility.yul\":23408:23426   */\n      add\n        /* \"#utility.yul\":23399:23405   */\n      dup5\n        /* \"#utility.yul\":23355:23427   */\n      tag_248\n      jump\t// in\n    tag_501:\n        /* \"#utility.yul\":22992:23434   */\n      swap5\n      swap4\n      pop\n      pop\n      pop\n      pop\n      jump\t// out\n        /* \"#utility.yul\":23440:23611   */\n    tag_299:\n        /* \"#utility.yul\":23580:23603   */\n      0x546f6b656e207472616e73666572206661696c65640000000000000000000000\n        /* \"#utility.yul\":23576:23577   */\n      0x00\n        /* \"#utility.yul\":23568:23574   */\n      dup3\n        /* \"#utility.yul\":23564:23578   */\n      add\n        /* \"#utility.yul\":23557:23604   */\n      mstore\n        /* \"#utility.yul\":23440:23611   */\n      pop\n      jump\t// out\n        /* \"#utility.yul\":23617:23983   */\n    tag_300:\n        /* \"#utility.yul\":23759:23762   */\n      0x00\n        /* \"#utility.yul\":23780:23847   */\n      tag_504\n        /* \"#utility.yul\":23844:23846   */\n      0x15\n        /* \"#utility.yul\":23839:23842   */\n      dup4\n        /* \"#utility.yul\":23780:23847   */\n      tag_241\n      jump\t// in\n    tag_504:\n        /* \"#utility.yul\":23773:23847   */\n      swap2\n      pop\n        /* \"#utility.yul\":23856:23949   */\n      tag_505\n        /* \"#utility.yul\":23945:23948   */\n      dup3\n        /* \"#utility.yul\":23856:23949   */\n      tag_299\n      jump\t// in\n    tag_505:\n        /* \"#utility.yul\":23974:23976   */\n      0x20\n        /* \"#utility.yul\":23969:23972   */\n      dup3\n        /* \"#utility.yul\":23965:23977   */\n      add\n        /* \"#utility.yul\":23958:23977   */\n      swap1\n      pop\n        /* \"#utility.yul\":23617:23983   */\n      swap2\n      swap1\n      pop\n      jump\t// out\n        /* \"#utility.yul\":23989:24408   */\n    tag_187:\n        /* \"#utility.yul\":24155:24159   */\n      0x00\n        /* \"#utility.yul\":24193:24195   */\n      0x20\n        /* \"#utility.yul\":24182:24191   */\n      dup3\n        /* \"#utility.yul\":24178:24196   */\n      add\n        /* \"#utility.yul\":24170:24196   */\n      swap1\n      pop\n        /* \"#utility.yul\":24242:24251   */\n      dup2\n        /* \"#utility.yul\":24236:24240   */\n      dup2\n        /* \"#utility.yul\":24232:24252   */\n      sub\n        /* \"#utility.yul\":24228:24229   */\n      0x00\n        /* \"#utility.yul\":24217:24226   */\n      dup4\n        /* \"#utility.yul\":24213:24230   */\n      add\n        /* \"#utility.yul\":24206:24253   */\n      mstore\n        /* \"#utility.yul\":24270:24401   */\n      tag_507\n        /* \"#utility.yul\":24396:24400   */\n      dup2\n        /* \"#utility.yul\":24270:24401   */\n      tag_300\n      jump\t// in\n    tag_507:\n        /* \"#utility.yul\":24262:24401   */\n      swap1\n      pop\n        /* \"#utility.yul\":23989:24408   */\n      swap2\n      swap1\n      pop\n      jump\t// out\n        /* \"#utility.yul\":24414:24548   */\n    tag_301:\n        /* \"#utility.yul\":24472:24481   */\n      0x00\n        /* \"#utility.yul\":24505:24542   */\n      tag_509\n        /* \"#utility.yul\":24536:24541   */\n      dup3\n        /* \"#utility.yul\":24505:24542   */\n      tag_263\n      jump\t// in\n    tag_509:\n        /* \"#utility.yul\":24492:24542   */\n      swap1\n      pop\n        /* \"#utility.yul\":24414:24548   */\n      swap2\n      swap1\n      pop\n      jump\t// out\n        /* \"#utility.yul\":24554:24701   */\n    tag_302:\n        /* \"#utility.yul\":24649:24694   */\n      tag_511\n        /* \"#utility.yul\":24688:24693   */\n      dup2\n        /* \"#utility.yul\":24649:24694   */\n      tag_301\n      jump\t// in\n    tag_511:\n        /* \"#utility.yul\":24644:24647   */\n      dup3\n        /* \"#utility.yul\":24637:24695   */\n      mstore\n        /* \"#utility.yul\":24554:24701   */\n      pop\n      pop\n      jump\t// out\n        /* \"#utility.yul\":24707:25055   */\n    tag_223:\n        /* \"#utility.yul\":24836:24840   */\n      0x00\n        /* \"#utility.yul\":24874:24876   */\n      0x40\n        /* \"#utility.yul\":24863:24872   */\n      dup3\n        /* \"#utility.yul\":24859:24877   */\n      add\n        /* \"#utility.yul\":24851:24877   */\n      swap1\n      pop\n        /* \"#utility.yul\":24887:24966   */\n      tag_513\n        /* \"#utility.yul\":24963:24964   */\n      0x00\n        /* \"#utility.yul\":24952:24961   */\n      dup4\n        /* \"#utility.yul\":24948:24965   */\n      add\n        /* \"#utility.yul\":24939:24945   */\n      dup6\n        /* \"#utility.yul\":24887:24966   */\n      tag_302\n      jump\t// in\n    tag_513:\n        /* \"#utility.yul\":24976:25048   */\n      tag_514\n        /* \"#utility.yul\":25044:25046   */\n      0x20\n        /* \"#utility.yul\":25033:25042   */\n      dup4\n        /* \"#utility.yul\":25029:25047   */\n      add\n        /* \"#utility.yul\":25020:25026   */\n      dup5\n        /* \"#utility.yul\":24976:25048   */\n      tag_248\n      jump\t// in\n    tag_514:\n        /* \"#utility.yul\":24707:25055   */\n      swap4\n      swap3\n      pop\n      pop\n      pop\n      jump\t// out\n        /* \"#utility.yul\":25061:25234   */\n    tag_303:\n        /* \"#utility.yul\":25201:25226   */\n      0x5061796d656e74207472616e73666572206661696c6564000000000000000000\n        /* \"#utility.yul\":25197:25198   */\n      0x00\n        /* \"#utility.yul\":25189:25195   */\n      dup3\n        /* \"#utility.yul\":25185:25199   */\n      add\n        /* \"#utility.yul\":25178:25227   */\n      mstore\n        /* \"#utility.yul\":25061:25234   */\n      pop\n      jump\t// out\n        /* \"#utility.yul\":25240:25606   */\n    tag_304:\n        /* \"#utility.yul\":25382:25385   */\n      0x00\n        /* \"#utility.yul\":25403:25470   */\n      tag_517\n        /* \"#utility.yul\":25467:25469   */\n      0x17\n        /* \"#utility.yul\":25462:25465   */\n      dup4\n        /* \"#utility.yul\":25403:25470   */\n      tag_241\n      jump\t// in\n    tag_517:\n        /* \"#utility.yul\":25396:25470   */\n      swap2\n      pop\n        /* \"#utility.yul\":25479:25572   */\n      tag_518\n        /* \"#utility.yul\":25568:25571   */\n      dup3\n        /* \"#utility.yul\":25479:25572   */\n      tag_303\n      jump\t// in\n    tag_518:\n        /* \"#utility.yul\":25597:25599   */\n      0x20\n        /* \"#utility.yul\":25592:25595   */\n      dup3\n        /* \"#utility.yul\":25588:25600   */\n      add\n        /* \"#utility.yul\":25581:25600   */\n      swap1\n      pop\n        /* \"#utility.yul\":25240:25606   */\n      swap2\n      swap1\n      pop\n      jump\t// out\n        /* \"#utility.yul\":25612:26031   */\n    tag_229:\n        /* \"#utility.yul\":25778:25782   */\n      0x00\n        /* \"#utility.yul\":25816:25818   */\n      0x20\n        /* \"#utility.yul\":25805:25814   */\n      dup3\n        /* \"#utility.yul\":25801:25819   */\n      add\n        /* \"#utility.yul\":25793:25819   */\n      swap1\n      pop\n        /* \"#utility.yul\":25865:25874   */\n      dup2\n        /* \"#utility.yul\":25859:25863   */\n      dup2\n        /* \"#utility.yul\":25855:25875   */\n      sub\n        /* \"#utility.yul\":25851:25852   */\n      0x00\n        /* \"#utility.yul\":25840:25849   */\n      dup4\n        /* \"#utility.yul\":25836:25853   */\n      add\n        /* \"#utility.yul\":25829:25876   */\n      mstore\n        /* \"#utility.yul\":25893:26024   */\n      tag_520\n        /* \"#utility.yul\":26019:26023   */\n      dup2\n        /* \"#utility.yul\":25893:26024   */\n      tag_304\n      jump\t// in\n    tag_520:\n        /* \"#utility.yul\":25885:26024   */\n      swap1\n      pop\n        /* \"#utility.yul\":25612:26031   */\n      swap2\n      swap1\n      pop\n      jump\t// out\n        /* \"#utility.yul\":26037:26231   */\n    tag_231:\n        /* \"#utility.yul\":26077:26081   */\n      0x00\n        /* \"#utility.yul\":26097:26117   */\n      tag_522\n        /* \"#utility.yul\":26115:26116   */\n      dup3\n        /* \"#utility.yul\":26097:26117   */\n      tag_247\n      jump\t// in\n    tag_522:\n        /* \"#utility.yul\":26092:26117   */\n      swap2\n      pop\n        /* \"#utility.yul\":26131:26151   */\n      tag_523\n        /* \"#utility.yul\":26149:26150   */\n      dup4\n        /* \"#utility.yul\":26131:26151   */\n      tag_247\n      jump\t// in\n    tag_523:\n        /* \"#utility.yul\":26126:26151   */\n      swap3\n      pop\n        /* \"#utility.yul\":26175:26176   */\n      dup3\n        /* \"#utility.yul\":26172:26173   */\n      dup3\n        /* \"#utility.yul\":26168:26177   */\n      sub\n        /* \"#utility.yul\":26160:26177   */\n      swap1\n      pop\n        /* \"#utility.yul\":26199:26200   */\n      dup2\n        /* \"#utility.yul\":26193:26197   */\n      dup2\n        /* \"#utility.yul\":26190:26201   */\n      gt\n        /* \"#utility.yul\":26187:26224   */\n      iszero\n      tag_524\n      jumpi\n        /* \"#utility.yul\":26204:26222   */\n      tag_525\n      tag_296\n      jump\t// in\n    tag_525:\n        /* \"#utility.yul\":26187:26224   */\n    tag_524:\n        /* \"#utility.yul\":26037:26231   */\n      swap3\n      swap2\n      pop\n      pop\n      jump\t// out\n\n    auxdata: 0xa26469706673582212207d0edb36eb6690344600d13dd35724b4927bb3fe10bafeef1cf1d869a14b72e764736f6c634300081e0033\n}\n",
				"bytecode": {
					"linkReferences": {},
					"object": "608060405234801561000f575f5ffd5b50604051612e1d380380612e1d83398181016040528101906100319190610402565b828410610073576040517f08c379a000000000000000000000000000000000000000000000000000000000815260040161006a90610531565b60405180910390fd5b5f73ffffffffffffffffffffffffffffffffffffffff168573ffffffffffffffffffffffffffffffffffffffff16036100e1576040517f08c379a00000000000000000000000000000000000000000000000000000000081526004016100d890610599565b60405180910390fd5b5f875111610124576040517f08c379a000000000000000000000000000000000000000000000000000000000815260040161011b90610601565b60405180910390fd5b5f865111610167576040517f08c379a000000000000000000000000000000000000000000000000000000000815260040161015e90610669565b60405180910390fd5b8660019081610176919061088e565b508560029081610186919061088e565b50805f5f6101000a81548173ffffffffffffffffffffffffffffffffffffffff021916908373ffffffffffffffffffffffffffffffffffffffff16021790555084600560026101000a81548173ffffffffffffffffffffffffffffffffffffffff021916908373ffffffffffffffffffffffffffffffffffffffff160217905550836003819055508260048190555081600a819055505050505050505061095d565b5f604051905090565b5f5ffd5b5f5ffd5b5f5ffd5b5f5ffd5b5f601f19601f8301169050919050565b7f4e487b71000000000000000000000000000000000000000000000000000000005f52604160045260245ffd5b61028782610241565b810181811067ffffffffffffffff821117156102a6576102a5610251565b5b80604052505050565b5f6102b8610228565b90506102c4828261027e565b919050565b5f67ffffffffffffffff8211156102e3576102e2610251565b5b6102ec82610241565b9050602081019050919050565b8281835e5f83830152505050565b5f610319610314846102c9565b6102af565b9050828152602081018484840111156103355761033461023d565b5b6103408482856102f9565b509392505050565b5f82601f83011261035c5761035b610239565b5b815161036c848260208601610307565b91505092915050565b5f73ffffffffffffffffffffffffffffffffffffffff82169050919050565b5f61039e82610375565b9050919050565b6103ae81610394565b81146103b8575f5ffd5b50565b5f815190506103c9816103a5565b92915050565b5f819050919050565b6103e1816103cf565b81146103eb575f5ffd5b50565b5f815190506103fc816103d8565b92915050565b5f5f5f5f5f5f5f60e0888a03121561041d5761041c610231565b5b5f88015167ffffffffffffffff81111561043a57610439610235565b5b6104468a828b01610348565b975050602088015167ffffffffffffffff81111561046757610466610235565b5b6104738a828b01610348565b96505060406104848a828b016103bb565b95505060606104958a828b016103ee565b94505060806104a68a828b016103ee565b93505060a06104b78a828b016103ee565b92505060c06104c88a828b016103bb565b91505092959891949750929550565b5f82825260208201905092915050565b7f496e76616c69642074696d6573000000000000000000000000000000000000005f82015250565b5f61051b600d836104d7565b9150610526826104e7565b602082019050919050565b5f6020820190508181035f8301526105488161050f565b9050919050565b7f496e76616c696420746f6b656e206164647265737300000000000000000000005f82015250565b5f6105836015836104d7565b915061058e8261054f565b602082019050919050565b5f6020820190508181035f8301526105b081610577565b9050919050565b7f4e616d652063616e6e6f7420626520656d7074790000000000000000000000005f82015250565b5f6105eb6014836104d7565b91506105f6826105b7565b602082019050919050565b5f6020820190508181035f830152610618816105df565b9050919050565b7f4465736372697074696f6e2063616e6e6f7420626520656d70747900000000005f82015250565b5f610653601b836104d7565b915061065e8261061f565b602082019050919050565b5f6020820190508181035f83015261068081610647565b9050919050565b5f81519050919050565b7f4e487b71000000000000000000000000000000000000000000000000000000005f52602260045260245ffd5b5f60028204905060018216806106d557607f821691505b6020821081036106e8576106e7610691565b5b50919050565b5f819050815f5260205f209050919050565b5f6020601f8301049050919050565b5f82821b905092915050565b5f6008830261074a7fffffffffffffffffffffffffffffffffffffffffffffffffffffffffffffffff8261070f565b610754868361070f565b95508019841693508086168417925050509392505050565b5f819050919050565b5f61078f61078a610785846103cf565b61076c565b6103cf565b9050919050565b5f819050919050565b6107a883610775565b6107bc6107b482610796565b84845461071b565b825550505050565b5f5f905090565b6107d36107c4565b6107de81848461079f565b505050565b5b81811015610801576107f65f826107cb565b6001810190506107e4565b5050565b601f82111561084657610817816106ee565b61082084610700565b8101602085101561082f578190505b61084361083b85610700565b8301826107e3565b50505b505050565b5f82821c905092915050565b5f6108665f198460080261084b565b1980831691505092915050565b5f61087e8383610857565b9150826002028217905092915050565b61089782610687565b67ffffffffffffffff8111156108b0576108af610251565b5b6108ba82546106be565b6108c5828285610805565b5f60209050601f8311600181146108f6575f84156108e4578287015190505b6108ee8582610873565b865550610955565b601f198416610904866106ee565b5f5b8281101561092b57848901518255600182019150602085019450602081019050610906565b868310156109485784890151610944601f891682610857565b8355505b6001600288020188555050505b505050505050565b6124b38061096a5f395ff3fe608060405234801561000f575f5ffd5b506004361061012a575f3560e01c80639979ef45116100ab578063d94a35051161006f578063d94a3505146102d8578063efbe1c1c146102ff578063f5b56c561461031d578063f77282ab1461033b578063fc0c546a146103455761012a565b80639979ef4514610232578063be9a65551461024e578063c8b342ab1461026c578063d09de08a1461029c578063d57bde79146102ba5761012a565b80637284e416116100f25780637284e416146101b057806382b2e257146101ce5780638da5cb5b146101ec5780638fa8b7901461020a57806391f90157146102145761012a565b806306fdde031461012e57806312fa6feb1461014c57806322f3e2d41461016a5780633ccfd60b146101885780633f9942ff14610192575b5f5ffd5b610136610363565b60405161014391906118f7565b60405180910390f35b6101546103ef565b6040516101619190611931565b60405180910390f35b610172610402565b60405161017f9190611931565b60405180910390f35b61019061044c565b005b61019a610655565b6040516101a79190611931565b60405180910390f35b6101b8610667565b6040516101c591906118f7565b60405180910390f35b6101d66106f3565b6040516101e39190611962565b60405180910390f35b6101f4610793565b60405161020191906119ba565b60405180910390f35b6102126107b7565b005b61021c610af2565b60405161022991906119f3565b60405180910390f35b61024c60048036038101906102479190611a3a565b610b17565b005b6102566111a7565b6040516102639190611962565b60405180910390f35b61028660048036038101906102819190611a8f565b6111ad565b6040516102939190611962565b60405180910390f35b6102a46111f3565b6040516102b19190611962565b60405180910390f35b6102c26111f9565b6040516102cf9190611962565b60405180910390f35b6102e06111ff565b6040516102f69a99989796959493929190611aba565b60405180910390f35b6103076113ba565b6040516103149190611962565b60405180910390f35b6103256113c0565b6040516103329190611962565b60405180910390f35b6103436113c6565b005b61034d611861565b60405161035a9190611bbd565b60405180910390f35b6001805461037090611c03565b80601f016020809104026020016040519081016040528092919081815260200182805461039c90611c03565b80156103e75780601f106103be576101008083540402835291602001916103e7565b820191905f5260205f20905b8154815290600101906020018083116103ca57829003601f168201915b505050505081565b600560019054906101000a900460ff1681565b5f600560019054906101000a900460ff1615801561042c575060055f9054906101000a900460ff16155b801561043a57506003544210155b8015610447575060045442105b905090565b600560019054906101000a900460ff1680610472575060055f9054906101000a900460ff165b6104b1576040517f08c379a00000000000000000000000000000000000000000000000000000000081526004016104a890611c7d565b60405180910390fd5b5f60065f3373ffffffffffffffffffffffffffffffffffffffff1673ffffffffffffffffffffffffffffffffffffffff1681526020019081526020015f205490505f8111610534576040517f08c379a000000000000000000000000000000000000000000000000000000000815260040161052b90611ce5565b60405180910390fd5b5f60065f3373ffffffffffffffffffffffffffffffffffffffff1673ffffffffffffffffffffffffffffffffffffffff1681526020019081526020015f2081905550600560029054906101000a900473ffffffffffffffffffffffffffffffffffffffff1673ffffffffffffffffffffffffffffffffffffffff1663a9059cbb33836040518363ffffffff1660e01b81526004016105d3929190611d03565b6020604051808303815f875af11580156105ef573d5f5f3e3d5ffd5b505050506040513d601f19601f820116820180604052508101906106139190611d54565b610652576040517f08c379a000000000000000000000000000000000000000000000000000000000815260040161064990611dc9565b60405180910390fd5b50565b60055f9054906101000a900460ff1681565b6002805461067490611c03565b80601f01602080910402602001604051908101604052809291908181526020018280546106a090611c03565b80156106eb5780601f106106c2576101008083540402835291602001916106eb565b820191905f5260205f20905b8154815290600101906020018083116106ce57829003601f168201915b505050505081565b5f600560029054906101000a900473ffffffffffffffffffffffffffffffffffffffff1673ffffffffffffffffffffffffffffffffffffffff166370a08231306040518263ffffffff1660e01b815260040161074f91906119f3565b602060405180830381865afa15801561076a573d5f5f3e3d5ffd5b505050506040513d601f19601f8201168201806040525081019061078e9190611dfb565b905090565b5f5f9054906101000a900473ffffffffffffffffffffffffffffffffffffffff1681565b5f5f9054906101000a900473ffffffffffffffffffffffffffffffffffffffff1673ffffffffffffffffffffffffffffffffffffffff163373ffffffffffffffffffffffffffffffffffffffff1614610845576040517f08c379a000000000000000000000000000000000000000000000000000000000815260040161083c90611e70565b60405180910390fd5b60055f9054906101000a900460ff1615610894576040517f08c379a000000000000000000000000000000000000000000000000000000000815260040161088b90611ed8565b60405180910390fd5b600560019054906101000a900460ff16156108e4576040517f08c379a00000000000000000000000000000000000000000000000000000000081526004016108db90611f40565b60405180910390fd5b600160055f6101000a81548160ff0219169083151502179055505f73ffffffffffffffffffffffffffffffffffffffff1660075f9054906101000a900473ffffffffffffffffffffffffffffffffffffffff1673ffffffffffffffffffffffffffffffffffffffff161415801561095c57505f600854115b15610ac457600560029054906101000a900473ffffffffffffffffffffffffffffffffffffffff1673ffffffffffffffffffffffffffffffffffffffff1663a9059cbb60075f9054906101000a900473ffffffffffffffffffffffffffffffffffffffff166008546040518363ffffffff1660e01b81526004016109e1929190611d03565b6020604051808303815f875af11580156109fd573d5f5f3e3d5ffd5b505050506040513d601f19601f82011682018060405250810190610a219190611d54565b610a60576040517f08c379a0000000000000000000000000000000000000000000000000000000008152600401610a5790611fa8565b60405180910390fd5b5f60065f60075f9054906101000a900473ffffffffffffffffffffffffffffffffffffffff1673ffffffffffffffffffffffffffffffffffffffff1673ffffffffffffffffffffffffffffffffffffffff1681526020019081526020015f20819055505b7f3edab9d02702b82c68bc3a966d302af41abe4f3d8e2408b27b94e5f9bf2d722c60405160405180910390a1565b60075f9054906101000a900473ffffffffffffffffffffffffffffffffffffffff1681565b5f5f9054906101000a900473ffffffffffffffffffffffffffffffffffffffff1673ffffffffffffffffffffffffffffffffffffffff163373ffffffffffffffffffffffffffffffffffffffff1603610ba5576040517f08c379a0000000000000000000000000000000000000000000000000000000008152600401610b9c90612010565b60405180910390fd5b600560019054906101000a900460ff16158015610bce575060055f9054906101000a900460ff16155b610c0d576040517f08c379a0000000000000000000000000000000000000000000000000000000008152600401610c0490612078565b60405180910390fd5b600354421015610c52576040517f08c379a0000000000000000000000000000000000000000000000000000000008152600401610c49906120e0565b60405180910390fd5b6004544210610c96576040517f08c379a0000000000000000000000000000000000000000000000000000000008152600401610c8d90612148565b60405180910390fd5b5f8111610cd8576040517f08c379a0000000000000000000000000000000000000000000000000000000008152600401610ccf906121b0565b60405180910390fd5b80600560029054906101000a900473ffffffffffffffffffffffffffffffffffffffff1673ffffffffffffffffffffffffffffffffffffffff166370a08231336040518263ffffffff1660e01b8152600401610d3491906119f3565b602060405180830381865afa158015610d4f573d5f5f3e3d5ffd5b505050506040513d601f19601f82011682018060405250810190610d739190611dfb565b1015610db4576040517f08c379a0000000000000000000000000000000000000000000000000000000008152600401610dab90612218565b60405180910390fd5b5f8160065f3373ffffffffffffffffffffffffffffffffffffffff1673ffffffffffffffffffffffffffffffffffffffff1681526020019081526020015f2054610dfe9190612263565b9050600a54600954610e109190612263565b811015610e52576040517f08c379a0000000000000000000000000000000000000000000000000000000008152600401610e49906122e0565b60405180910390fd5b600560029054906101000a900473ffffffffffffffffffffffffffffffffffffffff1673ffffffffffffffffffffffffffffffffffffffff166323b872dd3330856040518463ffffffff1660e01b8152600401610eb1939291906122fe565b6020604051808303815f875af1158015610ecd573d5f5f3e3d5ffd5b505050506040513d601f19601f82011682018060405250810190610ef19190611d54565b610f30576040517f08c379a0000000000000000000000000000000000000000000000000000000008152600401610f279061237d565b60405180910390fd5b8060065f3373ffffffffffffffffffffffffffffffffffffffff1673ffffffffffffffffffffffffffffffffffffffff1681526020019081526020015f20819055505f60085490505f60075f9054906101000a900473ffffffffffffffffffffffffffffffffffffffff1690503360075f6101000a81548173ffffffffffffffffffffffffffffffffffffffff021916908373ffffffffffffffffffffffffffffffffffffffff160217905550826008819055505f73ffffffffffffffffffffffffffffffffffffffff168173ffffffffffffffffffffffffffffffffffffffff1614611160575f60065f8373ffffffffffffffffffffffffffffffffffffffff1673ffffffffffffffffffffffffffffffffffffffff1681526020019081526020015f2081905550600560029054906101000a900473ffffffffffffffffffffffffffffffffffffffff1673ffffffffffffffffffffffffffffffffffffffff1663a9059cbb82846040518363ffffffff1660e01b81526004016110b6929190611d03565b6020604051808303815f875af11580156110d2573d5f5f3e3d5ffd5b505050506040513d601f19601f820116820180604052508101906110f69190611d54565b611135576040517f08c379a000000000000000000000000000000000000000000000000000000000815260040161112c90611fa8565b60405180910390fd5b600a54826111439190612263565b60098190555082600954111561115b57826009819055505b611168565b826009819055505b7f3fabff0a9c3ecd6814702e247fa9733e5d0aa69e3a38590f92cb18f623a2254d3384604051611199929190611d03565b60405180910390a150505050565b60035481565b5f60065f8373ffffffffffffffffffffffffffffffffffffffff1673ffffffffffffffffffffffffffffffffffffffff1681526020019081526020015f20549050919050565b600a5481565b60085481565b6060805f5f5f5f5f5f5f5f5f611213610402565b9050600160025f5f9054906101000a900473ffffffffffffffffffffffffffffffffffffffff1660035460045460085460075f9054906101000a900473ffffffffffffffffffffffffffffffffffffffff1687600560019054906101000a900460ff1660055f9054906101000a900460ff1689805461129190611c03565b80601f01602080910402602001604051908101604052809291908181526020018280546112bd90611c03565b80156113085780601f106112df57610100808354040283529160200191611308565b820191905f5260205f20905b8154815290600101906020018083116112eb57829003601f168201915b5050505050995088805461131b90611c03565b80601f016020809104026020016040519081016040528092919081815260200182805461134790611c03565b80156113925780601f1061136957610100808354040283529160200191611392565b820191905f5260205f20905b81548152906001019060200180831161137557829003601f168201915b505050505098509a509a509a509a509a509a509a509a509a509a505090919293949596979899565b60045481565b60095481565b5f5f9054906101000a900473ffffffffffffffffffffffffffffffffffffffff1673ffffffffffffffffffffffffffffffffffffffff163373ffffffffffffffffffffffffffffffffffffffff1614611454576040517f08c379a000000000000000000000000000000000000000000000000000000000815260040161144b90611e70565b60405180910390fd5b60045442118061146f575060055f9054906101000a900460ff165b6114ae576040517f08c379a00000000000000000000000000000000000000000000000000000000081526004016114a590611c7d565b60405180910390fd5b600560019054906101000a900460ff16156114fe576040517f08c379a00000000000000000000000000000000000000000000000000000000081526004016114f590611f40565b60405180910390fd5b6001600560016101000a81548160ff0219169083151502179055505f73ffffffffffffffffffffffffffffffffffffffff1660075f9054906101000a900473ffffffffffffffffffffffffffffffffffffffff1673ffffffffffffffffffffffffffffffffffffffff1614158015611582575060055f9054906101000a900460ff16155b1561180357600560029054906101000a900473ffffffffffffffffffffffffffffffffffffffff1673ffffffffffffffffffffffffffffffffffffffff1663a9059cbb5f5f9054906101000a900473ffffffffffffffffffffffffffffffffffffffff166009546040518363ffffffff1660e01b81526004016116069291906123bb565b6020604051808303815f875af1158015611622573d5f5f3e3d5ffd5b505050506040513d601f19601f820116820180604052508101906116469190611d54565b611685576040517f08c379a000000000000000000000000000000000000000000000000000000000815260040161167c9061242c565b60405180910390fd5b5f600954600854611696919061244a565b90505f81111561179e57600560029054906101000a900473ffffffffffffffffffffffffffffffffffffffff1673ffffffffffffffffffffffffffffffffffffffff1663a9059cbb60075f9054906101000a900473ffffffffffffffffffffffffffffffffffffffff16836040518363ffffffff1660e01b815260040161171e929190611d03565b6020604051808303815f875af115801561173a573d5f5f3e3d5ffd5b505050506040513d601f19601f8201168201806040525081019061175e9190611d54565b61179d576040517f08c379a000000000000000000000000000000000000000000000000000000000815260040161179490611fa8565b60405180910390fd5b5b5f60065f60075f9054906101000a900473ffffffffffffffffffffffffffffffffffffffff1673ffffffffffffffffffffffffffffffffffffffff1673ffffffffffffffffffffffffffffffffffffffff1681526020019081526020015f2081905550505b7f357afab190ee87fe0ef1c717f2728d2904d9e415a069d99f4d9382873cb3279d60075f9054906101000a900473ffffffffffffffffffffffffffffffffffffffff16600954604051611857929190611d03565b60405180910390a1565b600560029054906101000a900473ffffffffffffffffffffffffffffffffffffffff1681565b5f81519050919050565b5f82825260208201905092915050565b8281835e5f83830152505050565b5f601f19601f8301169050919050565b5f6118c982611887565b6118d38185611891565b93506118e38185602086016118a1565b6118ec816118af565b840191505092915050565b5f6020820190508181035f83015261190f81846118bf565b905092915050565b5f8115159050919050565b61192b81611917565b82525050565b5f6020820190506119445f830184611922565b92915050565b5f819050919050565b61195c8161194a565b82525050565b5f6020820190506119755f830184611953565b92915050565b5f73ffffffffffffffffffffffffffffffffffffffff82169050919050565b5f6119a48261197b565b9050919050565b6119b48161199a565b82525050565b5f6020820190506119cd5f8301846119ab565b92915050565b5f6119dd8261197b565b9050919050565b6119ed816119d3565b82525050565b5f602082019050611a065f8301846119e4565b92915050565b5f5ffd5b611a198161194a565b8114611a23575f5ffd5b50565b5f81359050611a3481611a10565b92915050565b5f60208284031215611a4f57611a4e611a0c565b5b5f611a5c84828501611a26565b91505092915050565b611a6e816119d3565b8114611a78575f5ffd5b50565b5f81359050611a8981611a65565b92915050565b5f60208284031215611aa457611aa3611a0c565b5b5f611ab184828501611a7b565b91505092915050565b5f610140820190508181035f830152611ad3818d6118bf565b90508181036020830152611ae7818c6118bf565b9050611af6604083018b6119e4565b611b03606083018a611953565b611b106080830189611953565b611b1d60a0830188611953565b611b2a60c08301876119e4565b611b3760e0830186611922565b611b45610100830185611922565b611b53610120830184611922565b9b9a5050505050505050505050565b5f819050919050565b5f611b85611b80611b7b8461197b565b611b62565b61197b565b9050919050565b5f611b9682611b6b565b9050919050565b5f611ba782611b8c565b9050919050565b611bb781611b9d565b82525050565b5f602082019050611bd05f830184611bae565b92915050565b7f4e487b71000000000000000000000000000000000000000000000000000000005f52602260045260245ffd5b5f6002820490506001821680611c1a57607f821691505b602082108103611c2d57611c2c611bd6565b5b50919050565b7f41756374696f6e206e6f7420656e6465640000000000000000000000000000005f82015250565b5f611c67601183611891565b9150611c7282611c33565b602082019050919050565b5f6020820190508181035f830152611c9481611c5b565b9050919050565b7f4e6f7468696e6720746f207769746864726177000000000000000000000000005f82015250565b5f611ccf601383611891565b9150611cda82611c9b565b602082019050919050565b5f6020820190508181035f830152611cfc81611cc3565b9050919050565b5f604082019050611d165f8301856119e4565b611d236020830184611953565b9392505050565b611d3381611917565b8114611d3d575f5ffd5b50565b5f81519050611d4e81611d2a565b92915050565b5f60208284031215611d6957611d68611a0c565b5b5f611d7684828501611d40565b91505092915050565b7f5769746864726177616c207472616e73666572206661696c65640000000000005f82015250565b5f611db3601a83611891565b9150611dbe82611d7f565b602082019050919050565b5f6020820190508181035f830152611de081611da7565b9050919050565b5f81519050611df581611a10565b92915050565b5f60208284031215611e1057611e0f611a0c565b5b5f611e1d84828501611de7565b91505092915050565b7f4e6f74206f776e657200000000000000000000000000000000000000000000005f82015250565b5f611e5a600983611891565b9150611e6582611e26565b602082019050919050565b5f6020820190508181035f830152611e8781611e4e565b9050919050565b7f416c72656164792063616e63656c6564000000000000000000000000000000005f82015250565b5f611ec2601083611891565b9150611ecd82611e8e565b602082019050919050565b5f6020820190508181035f830152611eef81611eb6565b9050919050565b7f416c726561647920656e646564000000000000000000000000000000000000005f82015250565b5f611f2a600d83611891565b9150611f3582611ef6565b602082019050919050565b5f6020820190508181035f830152611f5781611f1e565b9050919050565b7f526566756e64207472616e73666572206661696c6564000000000000000000005f82015250565b5f611f92601683611891565b9150611f9d82611f5e565b602082019050919050565b5f6020820190508181035f830152611fbf81611f86565b9050919050565b7f4f776e65722063616e6e6f7420626964000000000000000000000000000000005f82015250565b5f611ffa601083611891565b915061200582611fc6565b602082019050919050565b5f6020820190508181035f83015261202781611fee565b9050919050565b7f41756374696f6e20656e646564206f722063616e63656c6564000000000000005f82015250565b5f612062601983611891565b915061206d8261202e565b602082019050919050565b5f6020820190508181035f83015261208f81612056565b9050919050565b7f41756374696f6e206e6f742073746172746564000000000000000000000000005f82015250565b5f6120ca601383611891565b91506120d582612096565b602082019050919050565b5f6020820190508181035f8301526120f7816120be565b9050919050565b7f41756374696f6e20656e646564000000000000000000000000000000000000005f82015250565b5f612132600d83611891565b915061213d826120fe565b602082019050919050565b5f6020820190508181035f83015261215f81612126565b9050919050565b7f426964206d7573742062652067726561746572207468616e20300000000000005f82015250565b5f61219a601a83611891565b91506121a582612166565b602082019050919050565b5f6020820190508181035f8301526121c78161218e565b9050919050565b7f496e73756666696369656e7420746f6b656e2062616c616e63650000000000005f82015250565b5f612202601a83611891565b915061220d826121ce565b602082019050919050565b5f6020820190508181035f83015261222f816121f6565b9050919050565b7f4e487b71000000000000000000000000000000000000000000000000000000005f52601160045260245ffd5b5f61226d8261194a565b91506122788361194a565b92508282019050808211156122905761228f612236565b5b92915050565b7f42696420697320746f6f206c6f770000000000000000000000000000000000005f82015250565b5f6122ca600e83611891565b91506122d582612296565b602082019050919050565b5f6020820190508181035f8301526122f7816122be565b9050919050565b5f6060820190506123115f8301866119e4565b61231e60208301856119e4565b61232b6040830184611953565b949350505050565b7f546f6b656e207472616e73666572206661696c656400000000000000000000005f82015250565b5f612367601583611891565b915061237282612333565b602082019050919050565b5f6020820190508181035f8301526123948161235b565b9050919050565b5f6123a582611b8c565b9050919050565b6123b58161239b565b82525050565b5f6040820190506123ce5f8301856123ac565b6123db6020830184611953565b9392505050565b7f5061796d656e74207472616e73666572206661696c65640000000000000000005f82015250565b5f612416601783611891565b9150612421826123e2565b602082019050919050565b5f6020820190508181035f8301526124438161240a565b9050919050565b5f6124548261194a565b915061245f8361194a565b925082820390508181111561247757612476612236565b5b9291505056fea26469706673582212207d0edb36eb6690344600d13dd35724b4927bb3fe10bafeef1cf1d869a14b72e764736f6c634300081e0033",
					"opcodes": "PUSH1 0x80 PUSH1 0x40 MSTORE CALLVALUE DUP1 ISZERO PUSH2 0xF JUMPI PUSH0 PUSH0 REVERT JUMPDEST POP PUSH1 0x40 MLOAD PUSH2 0x2E1D CODESIZE SUB DUP1 PUSH2 0x2E1D DUP4 CODECOPY DUP2 DUP2 ADD PUSH1 0x40 MSTORE DUP2 ADD SWAP1 PUSH2 0x31 SWAP2 SWAP1 PUSH2 0x402 JUMP JUMPDEST DUP3 DUP5 LT PUSH2 0x73 JUMPI PUSH1 0x40 MLOAD PUSH32 0x8C379A000000000000000000000000000000000000000000000000000000000 DUP2 MSTORE PUSH1 0x4 ADD PUSH2 0x6A SWAP1 PUSH2 0x531 JUMP JUMPDEST PUSH1 0x40 MLOAD DUP1 SWAP2 SUB SWAP1 REVERT JUMPDEST PUSH0 PUSH20 0xFFFFFFFFFFFFFFFFFFFFFFFFFFFFFFFFFFFFFFFF AND DUP6 PUSH20 0xFFFFFFFFFFFFFFFFFFFFFFFFFFFFFFFFFFFFFFFF AND SUB PUSH2 0xE1 JUMPI PUSH1 0x40 MLOAD PUSH32 0x8C379A000000000000000000000000000000000000000000000000000000000 DUP2 MSTORE PUSH1 0x4 ADD PUSH2 0xD8 SWAP1 PUSH2 0x599 JUMP JUMPDEST PUSH1 0x40 MLOAD DUP1 SWAP2 SUB SWAP1 REVERT JUMPDEST PUSH0 DUP8 MLOAD GT PUSH2 0x124 JUMPI PUSH1 0x40 MLOAD PUSH32 0x8C379A000000000000000000000000000000000000000000000000000000000 DUP2 MSTORE PUSH1 0x4 ADD PUSH2 0x11B SWAP1 PUSH2 0x601 JUMP JUMPDEST PUSH1 0x40 MLOAD DUP1 SWAP2 SUB SWAP1 REVERT JUMPDEST PUSH0 DUP7 MLOAD GT PUSH2 0x167 JUMPI PUSH1 0x40 MLOAD PUSH32 0x8C379A000000000000000000000000000000000000000000000000000000000 DUP2 MSTORE PUSH1 0x4 ADD PUSH2 0x15E SWAP1 PUSH2 0x669 JUMP JUMPDEST PUSH1 0x40 MLOAD DUP1 SWAP2 SUB SWAP1 REVERT JUMPDEST DUP7 PUSH1 0x1 SWAP1 DUP2 PUSH2 0x176 SWAP2 SWAP1 PUSH2 0x88E JUMP JUMPDEST POP DUP6 PUSH1 0x2 SWAP1 DUP2 PUSH2 0x186 SWAP2 SWAP1 PUSH2 0x88E JUMP JUMPDEST POP DUP1 PUSH0 PUSH0 PUSH2 0x100 EXP DUP2 SLOAD DUP2 PUSH20 0xFFFFFFFFFFFFFFFFFFFFFFFFFFFFFFFFFFFFFFFF MUL NOT AND SWAP1 DUP4 PUSH20 0xFFFFFFFFFFFFFFFFFFFFFFFFFFFFFFFFFFFFFFFF AND MUL OR SWAP1 SSTORE POP DUP5 PUSH1 0x5 PUSH1 0x2 PUSH2 0x100 EXP DUP2 SLOAD DUP2 PUSH20 0xFFFFFFFFFFFFFFFFFFFFFFFFFFFFFFFFFFFFFFFF MUL NOT AND SWAP1 DUP4 PUSH20 0xFFFFFFFFFFFFFFFFFFFFFFFFFFFFFFFFFFFFFFFF AND MUL OR SWAP1 SSTORE POP DUP4 PUSH1 0x3 DUP2 SWAP1 SSTORE POP DUP3 PUSH1 0x4 DUP2 SWAP1 SSTORE POP DUP2 PUSH1 0xA DUP2 SWAP1 SSTORE POP POP POP POP POP POP POP POP PUSH2 0x95D JUMP JUMPDEST PUSH0 PUSH1 0x40 MLOAD SWAP1 POP SWAP1 JUMP JUMPDEST PUSH0 PUSH0 REVERT JUMPDEST PUSH0 PUSH0 REVERT JUMPDEST PUSH0 PUSH0 REVERT JUMPDEST PUSH0 PUSH0 REVERT JUMPDEST PUSH0 PUSH1 0x1F NOT PUSH1 0x1F DUP4 ADD AND SWAP1 POP SWAP2 SWAP1 POP JUMP JUMPDEST PUSH32 0x4E487B7100000000000000000000000000000000000000000000000000000000 PUSH0 MSTORE PUSH1 0x41 PUSH1 0x4 MSTORE PUSH1 0x24 PUSH0 REVERT JUMPDEST PUSH2 0x287 DUP3 PUSH2 0x241 JUMP JUMPDEST DUP2 ADD DUP2 DUP2 LT PUSH8 0xFFFFFFFFFFFFFFFF DUP3 GT OR ISZERO PUSH2 0x2A6 JUMPI PUSH2 0x2A5 PUSH2 0x251 JUMP JUMPDEST JUMPDEST DUP1 PUSH1 0x40 MSTORE POP POP POP JUMP JUMPDEST PUSH0 PUSH2 0x2B8 PUSH2 0x228 JUMP JUMPDEST SWAP1 POP PUSH2 0x2C4 DUP3 DUP3 PUSH2 0x27E JUMP JUMPDEST SWAP2 SWAP1 POP JUMP JUMPDEST PUSH0 PUSH8 0xFFFFFFFFFFFFFFFF DUP3 GT ISZERO PUSH2 0x2E3 JUMPI PUSH2 0x2E2 PUSH2 0x251 JUMP JUMPDEST JUMPDEST PUSH2 0x2EC DUP3 PUSH2 0x241 JUMP JUMPDEST SWAP1 POP PUSH1 0x20 DUP2 ADD SWAP1 POP SWAP2 SWAP1 POP JUMP JUMPDEST DUP3 DUP2 DUP4 MCOPY PUSH0 DUP4 DUP4 ADD MSTORE POP POP POP JUMP JUMPDEST PUSH0 PUSH2 0x319 PUSH2 0x314 DUP5 PUSH2 0x2C9 JUMP JUMPDEST PUSH2 0x2AF JUMP JUMPDEST SWAP1 POP DUP3 DUP2 MSTORE PUSH1 0x20 DUP2 ADD DUP5 DUP5 DUP5 ADD GT ISZERO PUSH2 0x335 JUMPI PUSH2 0x334 PUSH2 0x23D JUMP JUMPDEST JUMPDEST PUSH2 0x340 DUP5 DUP3 DUP6 PUSH2 0x2F9 JUMP JUMPDEST POP SWAP4 SWAP3 POP POP POP JUMP JUMPDEST PUSH0 DUP3 PUSH1 0x1F DUP4 ADD SLT PUSH2 0x35C JUMPI PUSH2 0x35B PUSH2 0x239 JUMP JUMPDEST JUMPDEST DUP2 MLOAD PUSH2 0x36C DUP5 DUP3 PUSH1 0x20 DUP7 ADD PUSH2 0x307 JUMP JUMPDEST SWAP2 POP POP SWAP3 SWAP2 POP POP JUMP JUMPDEST PUSH0 PUSH20 0xFFFFFFFFFFFFFFFFFFFFFFFFFFFFFFFFFFFFFFFF DUP3 AND SWAP1 POP SWAP2 SWAP1 POP JUMP JUMPDEST PUSH0 PUSH2 0x39E DUP3 PUSH2 0x375 JUMP JUMPDEST SWAP1 POP SWAP2 SWAP1 POP JUMP JUMPDEST PUSH2 0x3AE DUP2 PUSH2 0x394 JUMP JUMPDEST DUP2 EQ PUSH2 0x3B8 JUMPI PUSH0 PUSH0 REVERT JUMPDEST POP JUMP JUMPDEST PUSH0 DUP2 MLOAD SWAP1 POP PUSH2 0x3C9 DUP2 PUSH2 0x3A5 JUMP JUMPDEST SWAP3 SWAP2 POP POP JUMP JUMPDEST PUSH0 DUP2 SWAP1 POP SWAP2 SWAP1 POP JUMP JUMPDEST PUSH2 0x3E1 DUP2 PUSH2 0x3CF JUMP JUMPDEST DUP2 EQ PUSH2 0x3EB JUMPI PUSH0 PUSH0 REVERT JUMPDEST POP JUMP JUMPDEST PUSH0 DUP2 MLOAD SWAP1 POP PUSH2 0x3FC DUP2 PUSH2 0x3D8 JUMP JUMPDEST SWAP3 SWAP2 POP POP JUMP JUMPDEST PUSH0 PUSH0 PUSH0 PUSH0 PUSH0 PUSH0 PUSH0 PUSH1 0xE0 DUP9 DUP11 SUB SLT ISZERO PUSH2 0x41D JUMPI PUSH2 0x41C PUSH2 0x231 JUMP JUMPDEST JUMPDEST PUSH0 DUP9 ADD MLOAD PUSH8 0xFFFFFFFFFFFFFFFF DUP2 GT ISZERO PUSH2 0x43A JUMPI PUSH2 0x439 PUSH2 0x235 JUMP JUMPDEST JUMPDEST PUSH2 0x446 DUP11 DUP3 DUP12 ADD PUSH2 0x348 JUMP JUMPDEST SWAP8 POP POP PUSH1 0x20 DUP9 ADD MLOAD PUSH8 0xFFFFFFFFFFFFFFFF DUP2 GT ISZERO PUSH2 0x467 JUMPI PUSH2 0x466 PUSH2 0x235 JUMP JUMPDEST JUMPDEST PUSH2 0x473 DUP11 DUP3 DUP12 ADD PUSH2 0x348 JUMP JUMPDEST SWAP7 POP POP PUSH1 0x40 PUSH2 0x484 DUP11 DUP3 DUP12 ADD PUSH2 0x3BB JUMP JUMPDEST SWAP6 POP POP PUSH1 0x60 PUSH2 0x495 DUP11 DUP3 DUP12 ADD PUSH2 0x3EE JUMP JUMPDEST SWAP5 POP POP PUSH1 0x80 PUSH2 0x4A6 DUP11 DUP3 DUP12 ADD PUSH2 0x3EE JUMP JUMPDEST SWAP4 POP POP PUSH1 0xA0 PUSH2 0x4B7 DUP11 DUP3 DUP12 ADD PUSH2 0x3EE JUMP JUMPDEST SWAP3 POP POP PUSH1 0xC0 PUSH2 0x4C8 DUP11 DUP3 DUP12 ADD PUSH2 0x3BB JUMP JUMPDEST SWAP2 POP POP SWAP3 SWAP6 SWAP9 SWAP2 SWAP5 SWAP8 POP SWAP3 SWAP6 POP JUMP JUMPDEST PUSH0 DUP3 DUP3 MSTORE PUSH1 0x20 DUP3 ADD SWAP1 POP SWAP3 SWAP2 POP POP JUMP JUMPDEST PUSH32 0x496E76616C69642074696D657300000000000000000000000000000000000000 PUSH0 DUP3 ADD MSTORE POP JUMP JUMPDEST PUSH0 PUSH2 0x51B PUSH1 0xD DUP4 PUSH2 0x4D7 JUMP JUMPDEST SWAP2 POP PUSH2 0x526 DUP3 PUSH2 0x4E7 JUMP JUMPDEST PUSH1 0x20 DUP3 ADD SWAP1 POP SWAP2 SWAP1 POP JUMP JUMPDEST PUSH0 PUSH1 0x20 DUP3 ADD SWAP1 POP DUP2 DUP2 SUB PUSH0 DUP4 ADD MSTORE PUSH2 0x548 DUP2 PUSH2 0x50F JUMP JUMPDEST SWAP1 POP SWAP2 SWAP1 POP JUMP JUMPDEST PUSH32 0x496E76616C696420746F6B656E20616464726573730000000000000000000000 PUSH0 DUP3 ADD MSTORE POP JUMP JUMPDEST PUSH0 PUSH2 0x583 PUSH1 0x15 DUP4 PUSH2 0x4D7 JUMP JUMPDEST SWAP2 POP PUSH2 0x58E DUP3 PUSH2 0x54F JUMP JUMPDEST PUSH1 0x20 DUP3 ADD SWAP1 POP SWAP2 SWAP1 POP JUMP JUMPDEST PUSH0 PUSH1 0x20 DUP3 ADD SWAP1 POP DUP2 DUP2 SUB PUSH0 DUP4 ADD MSTORE PUSH2 0x5B0 DUP2 PUSH2 0x577 JUMP JUMPDEST SWAP1 POP SWAP2 SWAP1 POP JUMP JUMPDEST PUSH32 0x4E616D652063616E6E6F7420626520656D707479000000000000000000000000 PUSH0 DUP3 ADD MSTORE POP JUMP JUMPDEST PUSH0 PUSH2 0x5EB PUSH1 0x14 DUP4 PUSH2 0x4D7 JUMP JUMPDEST SWAP2 POP PUSH2 0x5F6 DUP3 PUSH2 0x5B7 JUMP JUMPDEST PUSH1 0x20 DUP3 ADD SWAP1 POP SWAP2 SWAP1 POP JUMP JUMPDEST PUSH0 PUSH1 0x20 DUP3 ADD SWAP1 POP DUP2 DUP2 SUB PUSH0 DUP4 ADD MSTORE PUSH2 0x618 DUP2 PUSH2 0x5DF JUMP JUMPDEST SWAP1 POP SWAP2 SWAP1 POP JUMP JUMPDEST PUSH32 0x4465736372697074696F6E2063616E6E6F7420626520656D7074790000000000 PUSH0 DUP3 ADD MSTORE POP JUMP JUMPDEST PUSH0 PUSH2 0x653 PUSH1 0x1B DUP4 PUSH2 0x4D7 JUMP JUMPDEST SWAP2 POP PUSH2 0x65E DUP3 PUSH2 0x61F JUMP JUMPDEST PUSH1 0x20 DUP3 ADD SWAP1 POP SWAP2 SWAP1 POP JUMP JUMPDEST PUSH0 PUSH1 0x20 DUP3 ADD SWAP1 POP DUP2 DUP2 SUB PUSH0 DUP4 ADD MSTORE PUSH2 0x680 DUP2 PUSH2 0x647 JUMP JUMPDEST SWAP1 POP SWAP2 SWAP1 POP JUMP JUMPDEST PUSH0 DUP2 MLOAD SWAP1 POP SWAP2 SWAP1 POP JUMP JUMPDEST PUSH32 0x4E487B7100000000000000000000000000000000000000000000000000000000 PUSH0 MSTORE PUSH1 0x22 PUSH1 0x4 MSTORE PUSH1 0x24 PUSH0 REVERT JUMPDEST PUSH0 PUSH1 0x2 DUP3 DIV SWAP1 POP PUSH1 0x1 DUP3 AND DUP1 PUSH2 0x6D5 JUMPI PUSH1 0x7F DUP3 AND SWAP2 POP JUMPDEST PUSH1 0x20 DUP3 LT DUP2 SUB PUSH2 0x6E8 JUMPI PUSH2 0x6E7 PUSH2 0x691 JUMP JUMPDEST JUMPDEST POP SWAP2 SWAP1 POP JUMP JUMPDEST PUSH0 DUP2 SWAP1 POP DUP2 PUSH0 MSTORE PUSH1 0x20 PUSH0 KECCAK256 SWAP1 POP SWAP2 SWAP1 POP JUMP JUMPDEST PUSH0 PUSH1 0x20 PUSH1 0x1F DUP4 ADD DIV SWAP1 POP SWAP2 SWAP1 POP JUMP JUMPDEST PUSH0 DUP3 DUP3 SHL SWAP1 POP SWAP3 SWAP2 POP POP JUMP JUMPDEST PUSH0 PUSH1 0x8 DUP4 MUL PUSH2 0x74A PUSH32 0xFFFFFFFFFFFFFFFFFFFFFFFFFFFFFFFFFFFFFFFFFFFFFFFFFFFFFFFFFFFFFFFF DUP3 PUSH2 0x70F JUMP JUMPDEST PUSH2 0x754 DUP7 DUP4 PUSH2 0x70F JUMP JUMPDEST SWAP6 POP DUP1 NOT DUP5 AND SWAP4 POP DUP1 DUP7 AND DUP5 OR SWAP3 POP POP POP SWAP4 SWAP3 POP POP POP JUMP JUMPDEST PUSH0 DUP2 SWAP1 POP SWAP2 SWAP1 POP JUMP JUMPDEST PUSH0 PUSH2 0x78F PUSH2 0x78A PUSH2 0x785 DUP5 PUSH2 0x3CF JUMP JUMPDEST PUSH2 0x76C JUMP JUMPDEST PUSH2 0x3CF JUMP JUMPDEST SWAP1 POP SWAP2 SWAP1 POP JUMP JUMPDEST PUSH0 DUP2 SWAP1 POP SWAP2 SWAP1 POP JUMP JUMPDEST PUSH2 0x7A8 DUP4 PUSH2 0x775 JUMP JUMPDEST PUSH2 0x7BC PUSH2 0x7B4 DUP3 PUSH2 0x796 JUMP JUMPDEST DUP5 DUP5 SLOAD PUSH2 0x71B JUMP JUMPDEST DUP3 SSTORE POP POP POP POP JUMP JUMPDEST PUSH0 PUSH0 SWAP1 POP SWAP1 JUMP JUMPDEST PUSH2 0x7D3 PUSH2 0x7C4 JUMP JUMPDEST PUSH2 0x7DE DUP2 DUP5 DUP5 PUSH2 0x79F JUMP JUMPDEST POP POP POP JUMP JUMPDEST JUMPDEST DUP2 DUP2 LT ISZERO PUSH2 0x801 JUMPI PUSH2 0x7F6 PUSH0 DUP3 PUSH2 0x7CB JUMP JUMPDEST PUSH1 0x1 DUP2 ADD SWAP1 POP PUSH2 0x7E4 JUMP JUMPDEST POP POP JUMP JUMPDEST PUSH1 0x1F DUP3 GT ISZERO PUSH2 0x846 JUMPI PUSH2 0x817 DUP2 PUSH2 0x6EE JUMP JUMPDEST PUSH2 0x820 DUP5 PUSH2 0x700 JUMP JUMPDEST DUP2 ADD PUSH1 0x20 DUP6 LT ISZERO PUSH2 0x82F JUMPI DUP2 SWAP1 POP JUMPDEST PUSH2 0x843 PUSH2 0x83B DUP6 PUSH2 0x700 JUMP JUMPDEST DUP4 ADD DUP3 PUSH2 0x7E3 JUMP JUMPDEST POP POP JUMPDEST POP POP POP JUMP JUMPDEST PUSH0 DUP3 DUP3 SHR SWAP1 POP SWAP3 SWAP2 POP POP JUMP JUMPDEST PUSH0 PUSH2 0x866 PUSH0 NOT DUP5 PUSH1 0x8 MUL PUSH2 0x84B JUMP JUMPDEST NOT DUP1 DUP4 AND SWAP2 POP POP SWAP3 SWAP2 POP POP JUMP JUMPDEST PUSH0 PUSH2 0x87E DUP4 DUP4 PUSH2 0x857 JUMP JUMPDEST SWAP2 POP DUP3 PUSH1 0x2 MUL DUP3 OR SWAP1 POP SWAP3 SWAP2 POP POP JUMP JUMPDEST PUSH2 0x897 DUP3 PUSH2 0x687 JUMP JUMPDEST PUSH8 0xFFFFFFFFFFFFFFFF DUP2 GT ISZERO PUSH2 0x8B0 JUMPI PUSH2 0x8AF PUSH2 0x251 JUMP JUMPDEST JUMPDEST PUSH2 0x8BA DUP3 SLOAD PUSH2 0x6BE JUMP JUMPDEST PUSH2 0x8C5 DUP3 DUP3 DUP6 PUSH2 0x805 JUMP JUMPDEST PUSH0 PUSH1 0x20 SWAP1 POP PUSH1 0x1F DUP4 GT PUSH1 0x1 DUP2 EQ PUSH2 0x8F6 JUMPI PUSH0 DUP5 ISZERO PUSH2 0x8E4 JUMPI DUP3 DUP8 ADD MLOAD SWAP1 POP JUMPDEST PUSH2 0x8EE DUP6 DUP3 PUSH2 0x873 JUMP JUMPDEST DUP7 SSTORE POP PUSH2 0x955 JUMP JUMPDEST PUSH1 0x1F NOT DUP5 AND PUSH2 0x904 DUP7 PUSH2 0x6EE JUMP JUMPDEST PUSH0 JUMPDEST DUP3 DUP2 LT ISZERO PUSH2 0x92B JUMPI DUP5 DUP10 ADD MLOAD DUP3 SSTORE PUSH1 0x1 DUP3 ADD SWAP2 POP PUSH1 0x20 DUP6 ADD SWAP5 POP PUSH1 0x20 DUP2 ADD SWAP1 POP PUSH2 0x906 JUMP JUMPDEST DUP7 DUP4 LT ISZERO PUSH2 0x948 JUMPI DUP5 DUP10 ADD MLOAD PUSH2 0x944 PUSH1 0x1F DUP10 AND DUP3 PUSH2 0x857 JUMP JUMPDEST DUP4 SSTORE POP JUMPDEST PUSH1 0x1 PUSH1 0x2 DUP9 MUL ADD DUP9 SSTORE POP POP POP JUMPDEST POP POP POP POP POP POP JUMP JUMPDEST PUSH2 0x24B3 DUP1 PUSH2 0x96A PUSH0 CODECOPY PUSH0 RETURN INVALID PUSH1 0x80 PUSH1 0x40 MSTORE CALLVALUE DUP1 ISZERO PUSH2 0xF JUMPI PUSH0 PUSH0 REVERT JUMPDEST POP PUSH1 0x4 CALLDATASIZE LT PUSH2 0x12A JUMPI PUSH0 CALLDATALOAD PUSH1 0xE0 SHR DUP1 PUSH4 0x9979EF45 GT PUSH2 0xAB JUMPI DUP1 PUSH4 0xD94A3505 GT PUSH2 0x6F JUMPI DUP1 PUSH4 0xD94A3505 EQ PUSH2 0x2D8 JUMPI DUP1 PUSH4 0xEFBE1C1C EQ PUSH2 0x2FF JUMPI DUP1 PUSH4 0xF5B56C56 EQ PUSH2 0x31D JUMPI DUP1 PUSH4 0xF77282AB EQ PUSH2 0x33B JUMPI DUP1 PUSH4 0xFC0C546A EQ PUSH2 0x345 JUMPI PUSH2 0x12A JUMP JUMPDEST DUP1 PUSH4 0x9979EF45 EQ PUSH2 0x232 JUMPI DUP1 PUSH4 0xBE9A6555 EQ PUSH2 0x24E JUMPI DUP1 PUSH4 0xC8B342AB EQ PUSH2 0x26C JUMPI DUP1 PUSH4 0xD09DE08A EQ PUSH2 0x29C JUMPI DUP1 PUSH4 0xD57BDE79 EQ PUSH2 0x2BA JUMPI PUSH2 0x12A JUMP JUMPDEST DUP1 PUSH4 0x7284E416 GT PUSH2 0xF2 JUMPI DUP1 PUSH4 0x7284E416 EQ PUSH2 0x1B0 JUMPI DUP1 PUSH4 0x82B2E257 EQ PUSH2 0x1CE JUMPI DUP1 PUSH4 0x8DA5CB5B EQ PUSH2 0x1EC JUMPI DUP1 PUSH4 0x8FA8B790 EQ PUSH2 0x20A JUMPI DUP1 PUSH4 0x91F90157 EQ PUSH2 0x214 JUMPI PUSH2 0x12A JUMP JUMPDEST DUP1 PUSH4 0x6FDDE03 EQ PUSH2 0x12E JUMPI DUP1 PUSH4 0x12FA6FEB EQ PUSH2 0x14C JUMPI DUP1 PUSH4 0x22F3E2D4 EQ PUSH2 0x16A JUMPI DUP1 PUSH4 0x3CCFD60B EQ PUSH2 0x188 JUMPI DUP1 PUSH4 0x3F9942FF EQ PUSH2 0x192 JUMPI JUMPDEST PUSH0 PUSH0 REVERT JUMPDEST PUSH2 0x136 PUSH2 0x363 JUMP JUMPDEST PUSH1 0x40 MLOAD PUSH2 0x143 SWAP2 SWAP1 PUSH2 0x18F7 JUMP JUMPDEST PUSH1 0x40 MLOAD DUP1 SWAP2 SUB SWAP1 RETURN JUMPDEST PUSH2 0x154 PUSH2 0x3EF JUMP JUMPDEST PUSH1 0x40 MLOAD PUSH2 0x161 SWAP2 SWAP1 PUSH2 0x1931 JUMP JUMPDEST PUSH1 0x40 MLOAD DUP1 SWAP2 SUB SWAP1 RETURN JUMPDEST PUSH2 0x172 PUSH2 0x402 JUMP JUMPDEST PUSH1 0x40 MLOAD PUSH2 0x17F SWAP2 SWAP1 PUSH2 0x1931 JUMP JUMPDEST PUSH1 0x40 MLOAD DUP1 SWAP2 SUB SWAP1 RETURN JUMPDEST PUSH2 0x190 PUSH2 0x44C JUMP JUMPDEST STOP JUMPDEST PUSH2 0x19A PUSH2 0x655 JUMP JUMPDEST PUSH1 0x40 MLOAD PUSH2 0x1A7 SWAP2 SWAP1 PUSH2 0x1931 JUMP JUMPDEST PUSH1 0x40 MLOAD DUP1 SWAP2 SUB SWAP1 RETURN JUMPDEST PUSH2 0x1B8 PUSH2 0x667 JUMP JUMPDEST PUSH1 0x40 MLOAD PUSH2 0x1C5 SWAP2 SWAP1 PUSH2 0x18F7 JUMP JUMPDEST PUSH1 0x40 MLOAD DUP1 SWAP2 SUB SWAP1 RETURN JUMPDEST PUSH2 0x1D6 PUSH2 0x6F3 JUMP JUMPDEST PUSH1 0x40 MLOAD PUSH2 0x1E3 SWAP2 SWAP1 PUSH2 0x1962 JUMP JUMPDEST PUSH1 0x40 MLOAD DUP1 SWAP2 SUB SWAP1 RETURN JUMPDEST PUSH2 0x1F4 PUSH2 0x793 JUMP JUMPDEST PUSH1 0x40 MLOAD PUSH2 0x201 SWAP2 SWAP1 PUSH2 0x19BA JUMP JUMPDEST PUSH1 0x40 MLOAD DUP1 SWAP2 SUB SWAP1 RETURN JUMPDEST PUSH2 0x212 PUSH2 0x7B7 JUMP JUMPDEST STOP JUMPDEST PUSH2 0x21C PUSH2 0xAF2 JUMP JUMPDEST PUSH1 0x40 MLOAD PUSH2 0x229 SWAP2 SWAP1 PUSH2 0x19F3 JUMP JUMPDEST PUSH1 0x40 MLOAD DUP1 SWAP2 SUB SWAP1 RETURN JUMPDEST PUSH2 0x24C PUSH1 0x4 DUP1 CALLDATASIZE SUB DUP2 ADD SWAP1 PUSH2 0x247 SWAP2 SWAP1 PUSH2 0x1A3A JUMP JUMPDEST PUSH2 0xB17 JUMP JUMPDEST STOP JUMPDEST PUSH2 0x256 PUSH2 0x11A7 JUMP JUMPDEST PUSH1 0x40 MLOAD PUSH2 0x263 SWAP2 SWAP1 PUSH2 0x1962 JUMP JUMPDEST PUSH1 0x40 MLOAD DUP1 SWAP2 SUB SWAP1 RETURN JUMPDEST PUSH2 0x286 PUSH1 0x4 DUP1 CALLDATASIZE SUB DUP2 ADD SWAP1 PUSH2 0x281 SWAP2 SWAP1 PUSH2 0x1A8F JUMP JUMPDEST PUSH2 0x11AD JUMP JUMPDEST PUSH1 0x40 MLOAD PUSH2 0x293 SWAP2 SWAP1 PUSH2 0x1962 JUMP JUMPDEST PUSH1 0x40 MLOAD DUP1 SWAP2 SUB SWAP1 RETURN JUMPDEST PUSH2 0x2A4 PUSH2 0x11F3 JUMP JUMPDEST PUSH1 0x40 MLOAD PUSH2 0x2B1 SWAP2 SWAP1 PUSH2 0x1962 JUMP JUMPDEST PUSH1 0x40 MLOAD DUP1 SWAP2 SUB SWAP1 RETURN JUMPDEST PUSH2 0x2C2 PUSH2 0x11F9 JUMP JUMPDEST PUSH1 0x40 MLOAD PUSH2 0x2CF SWAP2 SWAP1 PUSH2 0x1962 JUMP JUMPDEST PUSH1 0x40 MLOAD DUP1 SWAP2 SUB SWAP1 RETURN JUMPDEST PUSH2 0x2E0 PUSH2 0x11FF JUMP JUMPDEST PUSH1 0x40 MLOAD PUSH2 0x2F6 SWAP11 SWAP10 SWAP9 SWAP8 SWAP7 SWAP6 SWAP5 SWAP4 SWAP3 SWAP2 SWAP1 PUSH2 0x1ABA JUMP JUMPDEST PUSH1 0x40 MLOAD DUP1 SWAP2 SUB SWAP1 RETURN JUMPDEST PUSH2 0x307 PUSH2 0x13BA JUMP JUMPDEST PUSH1 0x40 MLOAD PUSH2 0x314 SWAP2 SWAP1 PUSH2 0x1962 JUMP JUMPDEST PUSH1 0x40 MLOAD DUP1 SWAP2 SUB SWAP1 RETURN JUMPDEST PUSH2 0x325 PUSH2 0x13C0 JUMP JUMPDEST PUSH1 0x40 MLOAD PUSH2 0x332 SWAP2 SWAP1 PUSH2 0x1962 JUMP JUMPDEST PUSH1 0x40 MLOAD DUP1 SWAP2 SUB SWAP1 RETURN JUMPDEST PUSH2 0x343 PUSH2 0x13C6 JUMP JUMPDEST STOP JUMPDEST PUSH2 0x34D PUSH2 0x1861 JUMP JUMPDEST PUSH1 0x40 MLOAD PUSH2 0x35A SWAP2 SWAP1 PUSH2 0x1BBD JUMP JUMPDEST PUSH1 0x40 MLOAD DUP1 SWAP2 SUB SWAP1 RETURN JUMPDEST PUSH1 0x1 DUP1 SLOAD PUSH2 0x370 SWAP1 PUSH2 0x1C03 JUMP JUMPDEST DUP1 PUSH1 0x1F ADD PUSH1 0x20 DUP1 SWAP2 DIV MUL PUSH1 0x20 ADD PUSH1 0x40 MLOAD SWAP1 DUP2 ADD PUSH1 0x40 MSTORE DUP1 SWAP3 SWAP2 SWAP1 DUP2 DUP2 MSTORE PUSH1 0x20 ADD DUP3 DUP1 SLOAD PUSH2 0x39C SWAP1 PUSH2 0x1C03 JUMP JUMPDEST DUP1 ISZERO PUSH2 0x3E7 JUMPI DUP1 PUSH1 0x1F LT PUSH2 0x3BE JUMPI PUSH2 0x100 DUP1 DUP4 SLOAD DIV MUL DUP4 MSTORE SWAP2 PUSH1 0x20 ADD SWAP2 PUSH2 0x3E7 JUMP JUMPDEST DUP3 ADD SWAP2 SWAP1 PUSH0 MSTORE PUSH1 0x20 PUSH0 KECCAK256 SWAP1 JUMPDEST DUP2 SLOAD DUP2 MSTORE SWAP1 PUSH1 0x1 ADD SWAP1 PUSH1 0x20 ADD DUP1 DUP4 GT PUSH2 0x3CA JUMPI DUP3 SWAP1 SUB PUSH1 0x1F AND DUP3 ADD SWAP2 JUMPDEST POP POP POP POP POP DUP2 JUMP JUMPDEST PUSH1 0x5 PUSH1 0x1 SWAP1 SLOAD SWAP1 PUSH2 0x100 EXP SWAP1 DIV PUSH1 0xFF AND DUP2 JUMP JUMPDEST PUSH0 PUSH1 0x5 PUSH1 0x1 SWAP1 SLOAD SWAP1 PUSH2 0x100 EXP SWAP1 DIV PUSH1 0xFF AND ISZERO DUP1 ISZERO PUSH2 0x42C JUMPI POP PUSH1 0x5 PUSH0 SWAP1 SLOAD SWAP1 PUSH2 0x100 EXP SWAP1 DIV PUSH1 0xFF AND ISZERO JUMPDEST DUP1 ISZERO PUSH2 0x43A JUMPI POP PUSH1 0x3 SLOAD TIMESTAMP LT ISZERO JUMPDEST DUP1 ISZERO PUSH2 0x447 JUMPI POP PUSH1 0x4 SLOAD TIMESTAMP LT JUMPDEST SWAP1 POP SWAP1 JUMP JUMPDEST PUSH1 0x5 PUSH1 0x1 SWAP1 SLOAD SWAP1 PUSH2 0x100 EXP SWAP1 DIV PUSH1 0xFF AND DUP1 PUSH2 0x472 JUMPI POP PUSH1 0x5 PUSH0 SWAP1 SLOAD SWAP1 PUSH2 0x100 EXP SWAP1 DIV PUSH1 0xFF AND JUMPDEST PUSH2 0x4B1 JUMPI PUSH1 0x40 MLOAD PUSH32 0x8C379A000000000000000000000000000000000000000000000000000000000 DUP2 MSTORE PUSH1 0x4 ADD PUSH2 0x4A8 SWAP1 PUSH2 0x1C7D JUMP JUMPDEST PUSH1 0x40 MLOAD DUP1 SWAP2 SUB SWAP1 REVERT JUMPDEST PUSH0 PUSH1 0x6 PUSH0 CALLER PUSH20 0xFFFFFFFFFFFFFFFFFFFFFFFFFFFFFFFFFFFFFFFF AND PUSH20 0xFFFFFFFFFFFFFFFFFFFFFFFFFFFFFFFFFFFFFFFF AND DUP2 MSTORE PUSH1 0x20 ADD SWAP1 DUP2 MSTORE PUSH1 0x20 ADD PUSH0 KECCAK256 SLOAD SWAP1 POP PUSH0 DUP2 GT PUSH2 0x534 JUMPI PUSH1 0x40 MLOAD PUSH32 0x8C379A000000000000000000000000000000000000000000000000000000000 DUP2 MSTORE PUSH1 0x4 ADD PUSH2 0x52B SWAP1 PUSH2 0x1CE5 JUMP JUMPDEST PUSH1 0x40 MLOAD DUP1 SWAP2 SUB SWAP1 REVERT JUMPDEST PUSH0 PUSH1 0x6 PUSH0 CALLER PUSH20 0xFFFFFFFFFFFFFFFFFFFFFFFFFFFFFFFFFFFFFFFF AND PUSH20 0xFFFFFFFFFFFFFFFFFFFFFFFFFFFFFFFFFFFFFFFF AND DUP2 MSTORE PUSH1 0x20 ADD SWAP1 DUP2 MSTORE PUSH1 0x20 ADD PUSH0 KECCAK256 DUP2 SWAP1 SSTORE POP PUSH1 0x5 PUSH1 0x2 SWAP1 SLOAD SWAP1 PUSH2 0x100 EXP SWAP1 DIV PUSH20 0xFFFFFFFFFFFFFFFFFFFFFFFFFFFFFFFFFFFFFFFF AND PUSH20 0xFFFFFFFFFFFFFFFFFFFFFFFFFFFFFFFFFFFFFFFF AND PUSH4 0xA9059CBB CALLER DUP4 PUSH1 0x40 MLOAD DUP4 PUSH4 0xFFFFFFFF AND PUSH1 0xE0 SHL DUP2 MSTORE PUSH1 0x4 ADD PUSH2 0x5D3 SWAP3 SWAP2 SWAP1 PUSH2 0x1D03 JUMP JUMPDEST PUSH1 0x20 PUSH1 0x40 MLOAD DUP1 DUP4 SUB DUP2 PUSH0 DUP8 GAS CALL ISZERO DUP1 ISZERO PUSH2 0x5EF JUMPI RETURNDATASIZE PUSH0 PUSH0 RETURNDATACOPY RETURNDATASIZE PUSH0 REVERT JUMPDEST POP POP POP POP PUSH1 0x40 MLOAD RETURNDATASIZE PUSH1 0x1F NOT PUSH1 0x1F DUP3 ADD AND DUP3 ADD DUP1 PUSH1 0x40 MSTORE POP DUP2 ADD SWAP1 PUSH2 0x613 SWAP2 SWAP1 PUSH2 0x1D54 JUMP JUMPDEST PUSH2 0x652 JUMPI PUSH1 0x40 MLOAD PUSH32 0x8C379A000000000000000000000000000000000000000000000000000000000 DUP2 MSTORE PUSH1 0x4 ADD PUSH2 0x649 SWAP1 PUSH2 0x1DC9 JUMP JUMPDEST PUSH1 0x40 MLOAD DUP1 SWAP2 SUB SWAP1 REVERT JUMPDEST POP JUMP JUMPDEST PUSH1 0x5 PUSH0 SWAP1 SLOAD SWAP1 PUSH2 0x100 EXP SWAP1 DIV PUSH1 0xFF AND DUP2 JUMP JUMPDEST PUSH1 0x2 DUP1 SLOAD PUSH2 0x674 SWAP1 PUSH2 0x1C03 JUMP JUMPDEST DUP1 PUSH1 0x1F ADD PUSH1 0x20 DUP1 SWAP2 DIV MUL PUSH1 0x20 ADD PUSH1 0x40 MLOAD SWAP1 DUP2 ADD PUSH1 0x40 MSTORE DUP1 SWAP3 SWAP2 SWAP1 DUP2 DUP2 MSTORE PUSH1 0x20 ADD DUP3 DUP1 SLOAD PUSH2 0x6A0 SWAP1 PUSH2 0x1C03 JUMP JUMPDEST DUP1 ISZERO PUSH2 0x6EB JUMPI DUP1 PUSH1 0x1F LT PUSH2 0x6C2 JUMPI PUSH2 0x100 DUP1 DUP4 SLOAD DIV MUL DUP4 MSTORE SWAP2 PUSH1 0x20 ADD SWAP2 PUSH2 0x6EB JUMP JUMPDEST DUP3 ADD SWAP2 SWAP1 PUSH0 MSTORE PUSH1 0x20 PUSH0 KECCAK256 SWAP1 JUMPDEST DUP2 SLOAD DUP2 MSTORE SWAP1 PUSH1 0x1 ADD SWAP1 PUSH1 0x20 ADD DUP1 DUP4 GT PUSH2 0x6CE JUMPI DUP3 SWAP1 SUB PUSH1 0x1F AND DUP3 ADD SWAP2 JUMPDEST POP POP POP POP POP DUP2 JUMP JUMPDEST PUSH0 PUSH1 0x5 PUSH1 0x2 SWAP1 SLOAD SWAP1 PUSH2 0x100 EXP SWAP1 DIV PUSH20 0xFFFFFFFFFFFFFFFFFFFFFFFFFFFFFFFFFFFFFFFF AND PUSH20 0xFFFFFFFFFFFFFFFFFFFFFFFFFFFFFFFFFFFFFFFF AND PUSH4 0x70A08231 ADDRESS PUSH1 0x40 MLOAD DUP3 PUSH4 0xFFFFFFFF AND PUSH1 0xE0 SHL DUP2 MSTORE PUSH1 0x4 ADD PUSH2 0x74F SWAP2 SWAP1 PUSH2 0x19F3 JUMP JUMPDEST PUSH1 0x20 PUSH1 0x40 MLOAD DUP1 DUP4 SUB DUP2 DUP7 GAS STATICCALL ISZERO DUP1 ISZERO PUSH2 0x76A JUMPI RETURNDATASIZE PUSH0 PUSH0 RETURNDATACOPY RETURNDATASIZE PUSH0 REVERT JUMPDEST POP POP POP POP PUSH1 0x40 MLOAD RETURNDATASIZE PUSH1 0x1F NOT PUSH1 0x1F DUP3 ADD AND DUP3 ADD DUP1 PUSH1 0x40 MSTORE POP DUP2 ADD SWAP1 PUSH2 0x78E SWAP2 SWAP1 PUSH2 0x1DFB JUMP JUMPDEST SWAP1 POP SWAP1 JUMP JUMPDEST PUSH0 PUSH0 SWAP1 SLOAD SWAP1 PUSH2 0x100 EXP SWAP1 DIV PUSH20 0xFFFFFFFFFFFFFFFFFFFFFFFFFFFFFFFFFFFFFFFF AND DUP2 JUMP JUMPDEST PUSH0 PUSH0 SWAP1 SLOAD SWAP1 PUSH2 0x100 EXP SWAP1 DIV PUSH20 0xFFFFFFFFFFFFFFFFFFFFFFFFFFFFFFFFFFFFFFFF AND PUSH20 0xFFFFFFFFFFFFFFFFFFFFFFFFFFFFFFFFFFFFFFFF AND CALLER PUSH20 0xFFFFFFFFFFFFFFFFFFFFFFFFFFFFFFFFFFFFFFFF AND EQ PUSH2 0x845 JUMPI PUSH1 0x40 MLOAD PUSH32 0x8C379A000000000000000000000000000000000000000000000000000000000 DUP2 MSTORE PUSH1 0x4 ADD PUSH2 0x83C SWAP1 PUSH2 0x1E70 JUMP JUMPDEST PUSH1 0x40 MLOAD DUP1 SWAP2 SUB SWAP1 REVERT JUMPDEST PUSH1 0x5 PUSH0 SWAP1 SLOAD SWAP1 PUSH2 0x100 EXP SWAP1 DIV PUSH1 0xFF AND ISZERO PUSH2 0x894 JUMPI PUSH1 0x40 MLOAD PUSH32 0x8C379A000000000000000000000000000000000000000000000000000000000 DUP2 MSTORE PUSH1 0x4 ADD PUSH2 0x88B SWAP1 PUSH2 0x1ED8 JUMP JUMPDEST PUSH1 0x40 MLOAD DUP1 SWAP2 SUB SWAP1 REVERT JUMPDEST PUSH1 0x5 PUSH1 0x1 SWAP1 SLOAD SWAP1 PUSH2 0x100 EXP SWAP1 DIV PUSH1 0xFF AND ISZERO PUSH2 0x8E4 JUMPI PUSH1 0x40 MLOAD PUSH32 0x8C379A000000000000000000000000000000000000000000000000000000000 DUP2 MSTORE PUSH1 0x4 ADD PUSH2 0x8DB SWAP1 PUSH2 0x1F40 JUMP JUMPDEST PUSH1 0x40 MLOAD DUP1 SWAP2 SUB SWAP1 REVERT JUMPDEST PUSH1 0x1 PUSH1 0x5 PUSH0 PUSH2 0x100 EXP DUP2 SLOAD DUP2 PUSH1 0xFF MUL NOT AND SWAP1 DUP4 ISZERO ISZERO MUL OR SWAP1 SSTORE POP PUSH0 PUSH20 0xFFFFFFFFFFFFFFFFFFFFFFFFFFFFFFFFFFFFFFFF AND PUSH1 0x7 PUSH0 SWAP1 SLOAD SWAP1 PUSH2 0x100 EXP SWAP1 DIV PUSH20 0xFFFFFFFFFFFFFFFFFFFFFFFFFFFFFFFFFFFFFFFF AND PUSH20 0xFFFFFFFFFFFFFFFFFFFFFFFFFFFFFFFFFFFFFFFF AND EQ ISZERO DUP1 ISZERO PUSH2 0x95C JUMPI POP PUSH0 PUSH1 0x8 SLOAD GT JUMPDEST ISZERO PUSH2 0xAC4 JUMPI PUSH1 0x5 PUSH1 0x2 SWAP1 SLOAD SWAP1 PUSH2 0x100 EXP SWAP1 DIV PUSH20 0xFFFFFFFFFFFFFFFFFFFFFFFFFFFFFFFFFFFFFFFF AND PUSH20 0xFFFFFFFFFFFFFFFFFFFFFFFFFFFFFFFFFFFFFFFF AND PUSH4 0xA9059CBB PUSH1 0x7 PUSH0 SWAP1 SLOAD SWAP1 PUSH2 0x100 EXP SWAP1 DIV PUSH20 0xFFFFFFFFFFFFFFFFFFFFFFFFFFFFFFFFFFFFFFFF AND PUSH1 0x8 SLOAD PUSH1 0x40 MLOAD DUP4 PUSH4 0xFFFFFFFF AND PUSH1 0xE0 SHL DUP2 MSTORE PUSH1 0x4 ADD PUSH2 0x9E1 SWAP3 SWAP2 SWAP1 PUSH2 0x1D03 JUMP JUMPDEST PUSH1 0x20 PUSH1 0x40 MLOAD DUP1 DUP4 SUB DUP2 PUSH0 DUP8 GAS CALL ISZERO DUP1 ISZERO PUSH2 0x9FD JUMPI RETURNDATASIZE PUSH0 PUSH0 RETURNDATACOPY RETURNDATASIZE PUSH0 REVERT JUMPDEST POP POP POP POP PUSH1 0x40 MLOAD RETURNDATASIZE PUSH1 0x1F NOT PUSH1 0x1F DUP3 ADD AND DUP3 ADD DUP1 PUSH1 0x40 MSTORE POP DUP2 ADD SWAP1 PUSH2 0xA21 SWAP2 SWAP1 PUSH2 0x1D54 JUMP JUMPDEST PUSH2 0xA60 JUMPI PUSH1 0x40 MLOAD PUSH32 0x8C379A000000000000000000000000000000000000000000000000000000000 DUP2 MSTORE PUSH1 0x4 ADD PUSH2 0xA57 SWAP1 PUSH2 0x1FA8 JUMP JUMPDEST PUSH1 0x40 MLOAD DUP1 SWAP2 SUB SWAP1 REVERT JUMPDEST PUSH0 PUSH1 0x6 PUSH0 PUSH1 0x7 PUSH0 SWAP1 SLOAD SWAP1 PUSH2 0x100 EXP SWAP1 DIV PUSH20 0xFFFFFFFFFFFFFFFFFFFFFFFFFFFFFFFFFFFFFFFF AND PUSH20 0xFFFFFFFFFFFFFFFFFFFFFFFFFFFFFFFFFFFFFFFF AND PUSH20 0xFFFFFFFFFFFFFFFFFFFFFFFFFFFFFFFFFFFFFFFF AND DUP2 MSTORE PUSH1 0x20 ADD SWAP1 DUP2 MSTORE PUSH1 0x20 ADD PUSH0 KECCAK256 DUP2 SWAP1 SSTORE POP JUMPDEST PUSH32 0x3EDAB9D02702B82C68BC3A966D302AF41ABE4F3D8E2408B27B94E5F9BF2D722C PUSH1 0x40 MLOAD PUSH1 0x40 MLOAD DUP1 SWAP2 SUB SWAP1 LOG1 JUMP JUMPDEST PUSH1 0x7 PUSH0 SWAP1 SLOAD SWAP1 PUSH2 0x100 EXP SWAP1 DIV PUSH20 0xFFFFFFFFFFFFFFFFFFFFFFFFFFFFFFFFFFFFFFFF AND DUP2 JUMP JUMPDEST PUSH0 PUSH0 SWAP1 SLOAD SWAP1 PUSH2 0x100 EXP SWAP1 DIV PUSH20 0xFFFFFFFFFFFFFFFFFFFFFFFFFFFFFFFFFFFFFFFF AND PUSH20 0xFFFFFFFFFFFFFFFFFFFFFFFFFFFFFFFFFFFFFFFF AND CALLER PUSH20 0xFFFFFFFFFFFFFFFFFFFFFFFFFFFFFFFFFFFFFFFF AND SUB PUSH2 0xBA5 JUMPI PUSH1 0x40 MLOAD PUSH32 0x8C379A000000000000000000000000000000000000000000000000000000000 DUP2 MSTORE PUSH1 0x4 ADD PUSH2 0xB9C SWAP1 PUSH2 0x2010 JUMP JUMPDEST PUSH1 0x40 MLOAD DUP1 SWAP2 SUB SWAP1 REVERT JUMPDEST PUSH1 0x5 PUSH1 0x1 SWAP1 SLOAD SWAP1 PUSH2 0x100 EXP SWAP1 DIV PUSH1 0xFF AND ISZERO DUP1 ISZERO PUSH2 0xBCE JUMPI POP PUSH1 0x5 PUSH0 SWAP1 SLOAD SWAP1 PUSH2 0x100 EXP SWAP1 DIV PUSH1 0xFF AND ISZERO JUMPDEST PUSH2 0xC0D JUMPI PUSH1 0x40 MLOAD PUSH32 0x8C379A000000000000000000000000000000000000000000000000000000000 DUP2 MSTORE PUSH1 0x4 ADD PUSH2 0xC04 SWAP1 PUSH2 0x2078 JUMP JUMPDEST PUSH1 0x40 MLOAD DUP1 SWAP2 SUB SWAP1 REVERT JUMPDEST PUSH1 0x3 SLOAD TIMESTAMP LT ISZERO PUSH2 0xC52 JUMPI PUSH1 0x40 MLOAD PUSH32 0x8C379A000000000000000000000000000000000000000000000000000000000 DUP2 MSTORE PUSH1 0x4 ADD PUSH2 0xC49 SWAP1 PUSH2 0x20E0 JUMP JUMPDEST PUSH1 0x40 MLOAD DUP1 SWAP2 SUB SWAP1 REVERT JUMPDEST PUSH1 0x4 SLOAD TIMESTAMP LT PUSH2 0xC96 JUMPI PUSH1 0x40 MLOAD PUSH32 0x8C379A000000000000000000000000000000000000000000000000000000000 DUP2 MSTORE PUSH1 0x4 ADD PUSH2 0xC8D SWAP1 PUSH2 0x2148 JUMP JUMPDEST PUSH1 0x40 MLOAD DUP1 SWAP2 SUB SWAP1 REVERT JUMPDEST PUSH0 DUP2 GT PUSH2 0xCD8 JUMPI PUSH1 0x40 MLOAD PUSH32 0x8C379A000000000000000000000000000000000000000000000000000000000 DUP2 MSTORE PUSH1 0x4 ADD PUSH2 0xCCF SWAP1 PUSH2 0x21B0 JUMP JUMPDEST PUSH1 0x40 MLOAD DUP1 SWAP2 SUB SWAP1 REVERT JUMPDEST DUP1 PUSH1 0x5 PUSH1 0x2 SWAP1 SLOAD SWAP1 PUSH2 0x100 EXP SWAP1 DIV PUSH20 0xFFFFFFFFFFFFFFFFFFFFFFFFFFFFFFFFFFFFFFFF AND PUSH20 0xFFFFFFFFFFFFFFFFFFFFFFFFFFFFFFFFFFFFFFFF AND PUSH4 0x70A08231 CALLER PUSH1 0x40 MLOAD DUP3 PUSH4 0xFFFFFFFF AND PUSH1 0xE0 SHL DUP2 MSTORE PUSH1 0x4 ADD PUSH2 0xD34 SWAP2 SWAP1 PUSH2 0x19F3 JUMP JUMPDEST PUSH1 0x20 PUSH1 0x40 MLOAD DUP1 DUP4 SUB DUP2 DUP7 GAS STATICCALL ISZERO DUP1 ISZERO PUSH2 0xD4F JUMPI RETURNDATASIZE PUSH0 PUSH0 RETURNDATACOPY RETURNDATASIZE PUSH0 REVERT JUMPDEST POP POP POP POP PUSH1 0x40 MLOAD RETURNDATASIZE PUSH1 0x1F NOT PUSH1 0x1F DUP3 ADD AND DUP3 ADD DUP1 PUSH1 0x40 MSTORE POP DUP2 ADD SWAP1 PUSH2 0xD73 SWAP2 SWAP1 PUSH2 0x1DFB JUMP JUMPDEST LT ISZERO PUSH2 0xDB4 JUMPI PUSH1 0x40 MLOAD PUSH32 0x8C379A000000000000000000000000000000000000000000000000000000000 DUP2 MSTORE PUSH1 0x4 ADD PUSH2 0xDAB SWAP1 PUSH2 0x2218 JUMP JUMPDEST PUSH1 0x40 MLOAD DUP1 SWAP2 SUB SWAP1 REVERT JUMPDEST PUSH0 DUP2 PUSH1 0x6 PUSH0 CALLER PUSH20 0xFFFFFFFFFFFFFFFFFFFFFFFFFFFFFFFFFFFFFFFF AND PUSH20 0xFFFFFFFFFFFFFFFFFFFFFFFFFFFFFFFFFFFFFFFF AND DUP2 MSTORE PUSH1 0x20 ADD SWAP1 DUP2 MSTORE PUSH1 0x20 ADD PUSH0 KECCAK256 SLOAD PUSH2 0xDFE SWAP2 SWAP1 PUSH2 0x2263 JUMP JUMPDEST SWAP1 POP PUSH1 0xA SLOAD PUSH1 0x9 SLOAD PUSH2 0xE10 SWAP2 SWAP1 PUSH2 0x2263 JUMP JUMPDEST DUP2 LT ISZERO PUSH2 0xE52 JUMPI PUSH1 0x40 MLOAD PUSH32 0x8C379A000000000000000000000000000000000000000000000000000000000 DUP2 MSTORE PUSH1 0x4 ADD PUSH2 0xE49 SWAP1 PUSH2 0x22E0 JUMP JUMPDEST PUSH1 0x40 MLOAD DUP1 SWAP2 SUB SWAP1 REVERT JUMPDEST PUSH1 0x5 PUSH1 0x2 SWAP1 SLOAD SWAP1 PUSH2 0x100 EXP SWAP1 DIV PUSH20 0xFFFFFFFFFFFFFFFFFFFFFFFFFFFFFFFFFFFFFFFF AND PUSH20 0xFFFFFFFFFFFFFFFFFFFFFFFFFFFFFFFFFFFFFFFF AND PUSH4 0x23B872DD CALLER ADDRESS DUP6 PUSH1 0x40 MLOAD DUP5 PUSH4 0xFFFFFFFF AND PUSH1 0xE0 SHL DUP2 MSTORE PUSH1 0x4 ADD PUSH2 0xEB1 SWAP4 SWAP3 SWAP2 SWAP1 PUSH2 0x22FE JUMP JUMPDEST PUSH1 0x20 PUSH1 0x40 MLOAD DUP1 DUP4 SUB DUP2 PUSH0 DUP8 GAS CALL ISZERO DUP1 ISZERO PUSH2 0xECD JUMPI RETURNDATASIZE PUSH0 PUSH0 RETURNDATACOPY RETURNDATASIZE PUSH0 REVERT JUMPDEST POP POP POP POP PUSH1 0x40 MLOAD RETURNDATASIZE PUSH1 0x1F NOT PUSH1 0x1F DUP3 ADD AND DUP3 ADD DUP1 PUSH1 0x40 MSTORE POP DUP2 ADD SWAP1 PUSH2 0xEF1 SWAP2 SWAP1 PUSH2 0x1D54 JUMP JUMPDEST PUSH2 0xF30 JUMPI PUSH1 0x40 MLOAD PUSH32 0x8C379A000000000000000000000000000000000000000000000000000000000 DUP2 MSTORE PUSH1 0x4 ADD PUSH2 0xF27 SWAP1 PUSH2 0x237D JUMP JUMPDEST PUSH1 0x40 MLOAD DUP1 SWAP2 SUB SWAP1 REVERT JUMPDEST DUP1 PUSH1 0x6 PUSH0 CALLER PUSH20 0xFFFFFFFFFFFFFFFFFFFFFFFFFFFFFFFFFFFFFFFF AND PUSH20 0xFFFFFFFFFFFFFFFFFFFFFFFFFFFFFFFFFFFFFFFF AND DUP2 MSTORE PUSH1 0x20 ADD SWAP1 DUP2 MSTORE PUSH1 0x20 ADD PUSH0 KECCAK256 DUP2 SWAP1 SSTORE POP PUSH0 PUSH1 0x8 SLOAD SWAP1 POP PUSH0 PUSH1 0x7 PUSH0 SWAP1 SLOAD SWAP1 PUSH2 0x100 EXP SWAP1 DIV PUSH20 0xFFFFFFFFFFFFFFFFFFFFFFFFFFFFFFFFFFFFFFFF AND SWAP1 POP CALLER PUSH1 0x7 PUSH0 PUSH2 0x100 EXP DUP2 SLOAD DUP2 PUSH20 0xFFFFFFFFFFFFFFFFFFFFFFFFFFFFFFFFFFFFFFFF MUL NOT AND SWAP1 DUP4 PUSH20 0xFFFFFFFFFFFFFFFFFFFFFFFFFFFFFFFFFFFFFFFF AND MUL OR SWAP1 SSTORE POP DUP3 PUSH1 0x8 DUP2 SWAP1 SSTORE POP PUSH0 PUSH20 0xFFFFFFFFFFFFFFFFFFFFFFFFFFFFFFFFFFFFFFFF AND DUP2 PUSH20 0xFFFFFFFFFFFFFFFFFFFFFFFFFFFFFFFFFFFFFFFF AND EQ PUSH2 0x1160 JUMPI PUSH0 PUSH1 0x6 PUSH0 DUP4 PUSH20 0xFFFFFFFFFFFFFFFFFFFFFFFFFFFFFFFFFFFFFFFF AND PUSH20 0xFFFFFFFFFFFFFFFFFFFFFFFFFFFFFFFFFFFFFFFF AND DUP2 MSTORE PUSH1 0x20 ADD SWAP1 DUP2 MSTORE PUSH1 0x20 ADD PUSH0 KECCAK256 DUP2 SWAP1 SSTORE POP PUSH1 0x5 PUSH1 0x2 SWAP1 SLOAD SWAP1 PUSH2 0x100 EXP SWAP1 DIV PUSH20 0xFFFFFFFFFFFFFFFFFFFFFFFFFFFFFFFFFFFFFFFF AND PUSH20 0xFFFFFFFFFFFFFFFFFFFFFFFFFFFFFFFFFFFFFFFF AND PUSH4 0xA9059CBB DUP3 DUP5 PUSH1 0x40 MLOAD DUP4 PUSH4 0xFFFFFFFF AND PUSH1 0xE0 SHL DUP2 MSTORE PUSH1 0x4 ADD PUSH2 0x10B6 SWAP3 SWAP2 SWAP1 PUSH2 0x1D03 JUMP JUMPDEST PUSH1 0x20 PUSH1 0x40 MLOAD DUP1 DUP4 SUB DUP2 PUSH0 DUP8 GAS CALL ISZERO DUP1 ISZERO PUSH2 0x10D2 JUMPI RETURNDATASIZE PUSH0 PUSH0 RETURNDATACOPY RETURNDATASIZE PUSH0 REVERT JUMPDEST POP POP POP POP PUSH1 0x40 MLOAD RETURNDATASIZE PUSH1 0x1F NOT PUSH1 0x1F DUP3 ADD AND DUP3 ADD DUP1 PUSH1 0x40 MSTORE POP DUP2 ADD SWAP1 PUSH2 0x10F6 SWAP2 SWAP1 PUSH2 0x1D54 JUMP JUMPDEST PUSH2 0x1135 JUMPI PUSH1 0x40 MLOAD PUSH32 0x8C379A000000000000000000000000000000000000000000000000000000000 DUP2 MSTORE PUSH1 0x4 ADD PUSH2 0x112C SWAP1 PUSH2 0x1FA8 JUMP JUMPDEST PUSH1 0x40 MLOAD DUP1 SWAP2 SUB SWAP1 REVERT JUMPDEST PUSH1 0xA SLOAD DUP3 PUSH2 0x1143 SWAP2 SWAP1 PUSH2 0x2263 JUMP JUMPDEST PUSH1 0x9 DUP2 SWAP1 SSTORE POP DUP3 PUSH1 0x9 SLOAD GT ISZERO PUSH2 0x115B JUMPI DUP3 PUSH1 0x9 DUP2 SWAP1 SSTORE POP JUMPDEST PUSH2 0x1168 JUMP JUMPDEST DUP3 PUSH1 0x9 DUP2 SWAP1 SSTORE POP JUMPDEST PUSH32 0x3FABFF0A9C3ECD6814702E247FA9733E5D0AA69E3A38590F92CB18F623A2254D CALLER DUP5 PUSH1 0x40 MLOAD PUSH2 0x1199 SWAP3 SWAP2 SWAP1 PUSH2 0x1D03 JUMP JUMPDEST PUSH1 0x40 MLOAD DUP1 SWAP2 SUB SWAP1 LOG1 POP POP POP POP JUMP JUMPDEST PUSH1 0x3 SLOAD DUP2 JUMP JUMPDEST PUSH0 PUSH1 0x6 PUSH0 DUP4 PUSH20 0xFFFFFFFFFFFFFFFFFFFFFFFFFFFFFFFFFFFFFFFF AND PUSH20 0xFFFFFFFFFFFFFFFFFFFFFFFFFFFFFFFFFFFFFFFF AND DUP2 MSTORE PUSH1 0x20 ADD SWAP1 DUP2 MSTORE PUSH1 0x20 ADD PUSH0 KECCAK256 SLOAD SWAP1 POP SWAP2 SWAP1 POP JUMP JUMPDEST PUSH1 0xA SLOAD DUP2 JUMP JUMPDEST PUSH1 0x8 SLOAD DUP2 JUMP JUMPDEST PUSH1 0x60 DUP1 PUSH0 PUSH0 PUSH0 PUSH0 PUSH0 PUSH0 PUSH0 PUSH0 PUSH0 PUSH2 0x1213 PUSH2 0x402 JUMP JUMPDEST SWAP1 POP PUSH1 0x1 PUSH1 0x2 PUSH0 PUSH0 SWAP1 SLOAD SWAP1 PUSH2 0x100 EXP SWAP1 DIV PUSH20 0xFFFFFFFFFFFFFFFFFFFFFFFFFFFFFFFFFFFFFFFF AND PUSH1 0x3 SLOAD PUSH1 0x4 SLOAD PUSH1 0x8 SLOAD PUSH1 0x7 PUSH0 SWAP1 SLOAD SWAP1 PUSH2 0x100 EXP SWAP1 DIV PUSH20 0xFFFFFFFFFFFFFFFFFFFFFFFFFFFFFFFFFFFFFFFF AND DUP8 PUSH1 0x5 PUSH1 0x1 SWAP1 SLOAD SWAP1 PUSH2 0x100 EXP SWAP1 DIV PUSH1 0xFF AND PUSH1 0x5 PUSH0 SWAP1 SLOAD SWAP1 PUSH2 0x100 EXP SWAP1 DIV PUSH1 0xFF AND DUP10 DUP1 SLOAD PUSH2 0x1291 SWAP1 PUSH2 0x1C03 JUMP JUMPDEST DUP1 PUSH1 0x1F ADD PUSH1 0x20 DUP1 SWAP2 DIV MUL PUSH1 0x20 ADD PUSH1 0x40 MLOAD SWAP1 DUP2 ADD PUSH1 0x40 MSTORE DUP1 SWAP3 SWAP2 SWAP1 DUP2 DUP2 MSTORE PUSH1 0x20 ADD DUP3 DUP1 SLOAD PUSH2 0x12BD SWAP1 PUSH2 0x1C03 JUMP JUMPDEST DUP1 ISZERO PUSH2 0x1308 JUMPI DUP1 PUSH1 0x1F LT PUSH2 0x12DF JUMPI PUSH2 0x100 DUP1 DUP4 SLOAD DIV MUL DUP4 MSTORE SWAP2 PUSH1 0x20 ADD SWAP2 PUSH2 0x1308 JUMP JUMPDEST DUP3 ADD SWAP2 SWAP1 PUSH0 MSTORE PUSH1 0x20 PUSH0 KECCAK256 SWAP1 JUMPDEST DUP2 SLOAD DUP2 MSTORE SWAP1 PUSH1 0x1 ADD SWAP1 PUSH1 0x20 ADD DUP1 DUP4 GT PUSH2 0x12EB JUMPI DUP3 SWAP1 SUB PUSH1 0x1F AND DUP3 ADD SWAP2 JUMPDEST POP POP POP POP POP SWAP10 POP DUP9 DUP1 SLOAD PUSH2 0x131B SWAP1 PUSH2 0x1C03 JUMP JUMPDEST DUP1 PUSH1 0x1F ADD PUSH1 0x20 DUP1 SWAP2 DIV MUL PUSH1 0x20 ADD PUSH1 0x40 MLOAD SWAP1 DUP2 ADD PUSH1 0x40 MSTORE DUP1 SWAP3 SWAP2 SWAP1 DUP2 DUP2 MSTORE PUSH1 0x20 ADD DUP3 DUP1 SLOAD PUSH2 0x1347 SWAP1 PUSH2 0x1C03 JUMP JUMPDEST DUP1 ISZERO PUSH2 0x1392 JUMPI DUP1 PUSH1 0x1F LT PUSH2 0x1369 JUMPI PUSH2 0x100 DUP1 DUP4 SLOAD DIV MUL DUP4 MSTORE SWAP2 PUSH1 0x20 ADD SWAP2 PUSH2 0x1392 JUMP JUMPDEST DUP3 ADD SWAP2 SWAP1 PUSH0 MSTORE PUSH1 0x20 PUSH0 KECCAK256 SWAP1 JUMPDEST DUP2 SLOAD DUP2 MSTORE SWAP1 PUSH1 0x1 ADD SWAP1 PUSH1 0x20 ADD DUP1 DUP4 GT PUSH2 0x1375 JUMPI DUP3 SWAP1 SUB PUSH1 0x1F AND DUP3 ADD SWAP2 JUMPDEST POP POP POP POP POP SWAP9 POP SWAP11 POP SWAP11 POP SWAP11 POP SWAP11 POP SWAP11 POP SWAP11 POP SWAP11 POP SWAP11 POP SWAP11 POP SWAP11 POP POP SWAP1 SWAP2 SWAP3 SWAP4 SWAP5 SWAP6 SWAP7 SWAP8 SWAP9 SWAP10 JUMP JUMPDEST PUSH1 0x4 SLOAD DUP2 JUMP JUMPDEST PUSH1 0x9 SLOAD DUP2 JUMP JUMPDEST PUSH0 PUSH0 SWAP1 SLOAD SWAP1 PUSH2 0x100 EXP SWAP1 DIV PUSH20 0xFFFFFFFFFFFFFFFFFFFFFFFFFFFFFFFFFFFFFFFF AND PUSH20 0xFFFFFFFFFFFFFFFFFFFFFFFFFFFFFFFFFFFFFFFF AND CALLER PUSH20 0xFFFFFFFFFFFFFFFFFFFFFFFFFFFFFFFFFFFFFFFF AND EQ PUSH2 0x1454 JUMPI PUSH1 0x40 MLOAD PUSH32 0x8C379A000000000000000000000000000000000000000000000000000000000 DUP2 MSTORE PUSH1 0x4 ADD PUSH2 0x144B SWAP1 PUSH2 0x1E70 JUMP JUMPDEST PUSH1 0x40 MLOAD DUP1 SWAP2 SUB SWAP1 REVERT JUMPDEST PUSH1 0x4 SLOAD TIMESTAMP GT DUP1 PUSH2 0x146F JUMPI POP PUSH1 0x5 PUSH0 SWAP1 SLOAD SWAP1 PUSH2 0x100 EXP SWAP1 DIV PUSH1 0xFF AND JUMPDEST PUSH2 0x14AE JUMPI PUSH1 0x40 MLOAD PUSH32 0x8C379A000000000000000000000000000000000000000000000000000000000 DUP2 MSTORE PUSH1 0x4 ADD PUSH2 0x14A5 SWAP1 PUSH2 0x1C7D JUMP JUMPDEST PUSH1 0x40 MLOAD DUP1 SWAP2 SUB SWAP1 REVERT JUMPDEST PUSH1 0x5 PUSH1 0x1 SWAP1 SLOAD SWAP1 PUSH2 0x100 EXP SWAP1 DIV PUSH1 0xFF AND ISZERO PUSH2 0x14FE JUMPI PUSH1 0x40 MLOAD PUSH32 0x8C379A000000000000000000000000000000000000000000000000000000000 DUP2 MSTORE PUSH1 0x4 ADD PUSH2 0x14F5 SWAP1 PUSH2 0x1F40 JUMP JUMPDEST PUSH1 0x40 MLOAD DUP1 SWAP2 SUB SWAP1 REVERT JUMPDEST PUSH1 0x1 PUSH1 0x5 PUSH1 0x1 PUSH2 0x100 EXP DUP2 SLOAD DUP2 PUSH1 0xFF MUL NOT AND SWAP1 DUP4 ISZERO ISZERO MUL OR SWAP1 SSTORE POP PUSH0 PUSH20 0xFFFFFFFFFFFFFFFFFFFFFFFFFFFFFFFFFFFFFFFF AND PUSH1 0x7 PUSH0 SWAP1 SLOAD SWAP1 PUSH2 0x100 EXP SWAP1 DIV PUSH20 0xFFFFFFFFFFFFFFFFFFFFFFFFFFFFFFFFFFFFFFFF AND PUSH20 0xFFFFFFFFFFFFFFFFFFFFFFFFFFFFFFFFFFFFFFFF AND EQ ISZERO DUP1 ISZERO PUSH2 0x1582 JUMPI POP PUSH1 0x5 PUSH0 SWAP1 SLOAD SWAP1 PUSH2 0x100 EXP SWAP1 DIV PUSH1 0xFF AND ISZERO JUMPDEST ISZERO PUSH2 0x1803 JUMPI PUSH1 0x5 PUSH1 0x2 SWAP1 SLOAD SWAP1 PUSH2 0x100 EXP SWAP1 DIV PUSH20 0xFFFFFFFFFFFFFFFFFFFFFFFFFFFFFFFFFFFFFFFF AND PUSH20 0xFFFFFFFFFFFFFFFFFFFFFFFFFFFFFFFFFFFFFFFF AND PUSH4 0xA9059CBB PUSH0 PUSH0 SWAP1 SLOAD SWAP1 PUSH2 0x100 EXP SWAP1 DIV PUSH20 0xFFFFFFFFFFFFFFFFFFFFFFFFFFFFFFFFFFFFFFFF AND PUSH1 0x9 SLOAD PUSH1 0x40 MLOAD DUP4 PUSH4 0xFFFFFFFF AND PUSH1 0xE0 SHL DUP2 MSTORE PUSH1 0x4 ADD PUSH2 0x1606 SWAP3 SWAP2 SWAP1 PUSH2 0x23BB JUMP JUMPDEST PUSH1 0x20 PUSH1 0x40 MLOAD DUP1 DUP4 SUB DUP2 PUSH0 DUP8 GAS CALL ISZERO DUP1 ISZERO PUSH2 0x1622 JUMPI RETURNDATASIZE PUSH0 PUSH0 RETURNDATACOPY RETURNDATASIZE PUSH0 REVERT JUMPDEST POP POP POP POP PUSH1 0x40 MLOAD RETURNDATASIZE PUSH1 0x1F NOT PUSH1 0x1F DUP3 ADD AND DUP3 ADD DUP1 PUSH1 0x40 MSTORE POP DUP2 ADD SWAP1 PUSH2 0x1646 SWAP2 SWAP1 PUSH2 0x1D54 JUMP JUMPDEST PUSH2 0x1685 JUMPI PUSH1 0x40 MLOAD PUSH32 0x8C379A000000000000000000000000000000000000000000000000000000000 DUP2 MSTORE PUSH1 0x4 ADD PUSH2 0x167C SWAP1 PUSH2 0x242C JUMP JUMPDEST PUSH1 0x40 MLOAD DUP1 SWAP2 SUB SWAP1 REVERT JUMPDEST PUSH0 PUSH1 0x9 SLOAD PUSH1 0x8 SLOAD PUSH2 0x1696 SWAP2 SWAP1 PUSH2 0x244A JUMP JUMPDEST SWAP1 POP PUSH0 DUP2 GT ISZERO PUSH2 0x179E JUMPI PUSH1 0x5 PUSH1 0x2 SWAP1 SLOAD SWAP1 PUSH2 0x100 EXP SWAP1 DIV PUSH20 0xFFFFFFFFFFFFFFFFFFFFFFFFFFFFFFFFFFFFFFFF AND PUSH20 0xFFFFFFFFFFFFFFFFFFFFFFFFFFFFFFFFFFFFFFFF AND PUSH4 0xA9059CBB PUSH1 0x7 PUSH0 SWAP1 SLOAD SWAP1 PUSH2 0x100 EXP SWAP1 DIV PUSH20 0xFFFFFFFFFFFFFFFFFFFFFFFFFFFFFFFFFFFFFFFF AND DUP4 PUSH1 0x40 MLOAD DUP4 PUSH4 0xFFFFFFFF AND PUSH1 0xE0 SHL DUP2 MSTORE PUSH1 0x4 ADD PUSH2 0x171E SWAP3 SWAP2 SWAP1 PUSH2 0x1D03 JUMP JUMPDEST PUSH1 0x20 PUSH1 0x40 MLOAD DUP1 DUP4 SUB DUP2 PUSH0 DUP8 GAS CALL ISZERO DUP1 ISZERO PUSH2 0x173A JUMPI RETURNDATASIZE PUSH0 PUSH0 RETURNDATACOPY RETURNDATASIZE PUSH0 REVERT JUMPDEST POP POP POP POP PUSH1 0x40 MLOAD RETURNDATASIZE PUSH1 0x1F NOT PUSH1 0x1F DUP3 ADD AND DUP3 ADD DUP1 PUSH1 0x40 MSTORE POP DUP2 ADD SWAP1 PUSH2 0x175E SWAP2 SWAP1 PUSH2 0x1D54 JUMP JUMPDEST PUSH2 0x179D JUMPI PUSH1 0x40 MLOAD PUSH32 0x8C379A000000000000000000000000000000000000000000000000000000000 DUP2 MSTORE PUSH1 0x4 ADD PUSH2 0x1794 SWAP1 PUSH2 0x1FA8 JUMP JUMPDEST PUSH1 0x40 MLOAD DUP1 SWAP2 SUB SWAP1 REVERT JUMPDEST JUMPDEST PUSH0 PUSH1 0x6 PUSH0 PUSH1 0x7 PUSH0 SWAP1 SLOAD SWAP1 PUSH2 0x100 EXP SWAP1 DIV PUSH20 0xFFFFFFFFFFFFFFFFFFFFFFFFFFFFFFFFFFFFFFFF AND PUSH20 0xFFFFFFFFFFFFFFFFFFFFFFFFFFFFFFFFFFFFFFFF AND PUSH20 0xFFFFFFFFFFFFFFFFFFFFFFFFFFFFFFFFFFFFFFFF AND DUP2 MSTORE PUSH1 0x20 ADD SWAP1 DUP2 MSTORE PUSH1 0x20 ADD PUSH0 KECCAK256 DUP2 SWAP1 SSTORE POP POP JUMPDEST PUSH32 0x357AFAB190EE87FE0EF1C717F2728D2904D9E415A069D99F4D9382873CB3279D PUSH1 0x7 PUSH0 SWAP1 SLOAD SWAP1 PUSH2 0x100 EXP SWAP1 DIV PUSH20 0xFFFFFFFFFFFFFFFFFFFFFFFFFFFFFFFFFFFFFFFF AND PUSH1 0x9 SLOAD PUSH1 0x40 MLOAD PUSH2 0x1857 SWAP3 SWAP2 SWAP1 PUSH2 0x1D03 JUMP JUMPDEST PUSH1 0x40 MLOAD DUP1 SWAP2 SUB SWAP1 LOG1 JUMP JUMPDEST PUSH1 0x5 PUSH1 0x2 SWAP1 SLOAD SWAP1 PUSH2 0x100 EXP SWAP1 DIV PUSH20 0xFFFFFFFFFFFFFFFFFFFFFFFFFFFFFFFFFFFFFFFF AND DUP2 JUMP JUMPDEST PUSH0 DUP2 MLOAD SWAP1 POP SWAP2 SWAP1 POP JUMP JUMPDEST PUSH0 DUP3 DUP3 MSTORE PUSH1 0x20 DUP3 ADD SWAP1 POP SWAP3 SWAP2 POP POP JUMP JUMPDEST DUP3 DUP2 DUP4 MCOPY PUSH0 DUP4 DUP4 ADD MSTORE POP POP POP JUMP JUMPDEST PUSH0 PUSH1 0x1F NOT PUSH1 0x1F DUP4 ADD AND SWAP1 POP SWAP2 SWAP1 POP JUMP JUMPDEST PUSH0 PUSH2 0x18C9 DUP3 PUSH2 0x1887 JUMP JUMPDEST PUSH2 0x18D3 DUP2 DUP6 PUSH2 0x1891 JUMP JUMPDEST SWAP4 POP PUSH2 0x18E3 DUP2 DUP6 PUSH1 0x20 DUP7 ADD PUSH2 0x18A1 JUMP JUMPDEST PUSH2 0x18EC DUP2 PUSH2 0x18AF JUMP JUMPDEST DUP5 ADD SWAP2 POP POP SWAP3 SWAP2 POP POP JUMP JUMPDEST PUSH0 PUSH1 0x20 DUP3 ADD SWAP1 POP DUP2 DUP2 SUB PUSH0 DUP4 ADD MSTORE PUSH2 0x190F DUP2 DUP5 PUSH2 0x18BF JUMP JUMPDEST SWAP1 POP SWAP3 SWAP2 POP POP JUMP JUMPDEST PUSH0 DUP2 ISZERO ISZERO SWAP1 POP SWAP2 SWAP1 POP JUMP JUMPDEST PUSH2 0x192B DUP2 PUSH2 0x1917 JUMP JUMPDEST DUP3 MSTORE POP POP JUMP JUMPDEST PUSH0 PUSH1 0x20 DUP3 ADD SWAP1 POP PUSH2 0x1944 PUSH0 DUP4 ADD DUP5 PUSH2 0x1922 JUMP JUMPDEST SWAP3 SWAP2 POP POP JUMP JUMPDEST PUSH0 DUP2 SWAP1 POP SWAP2 SWAP1 POP JUMP JUMPDEST PUSH2 0x195C DUP2 PUSH2 0x194A JUMP JUMPDEST DUP3 MSTORE POP POP JUMP JUMPDEST PUSH0 PUSH1 0x20 DUP3 ADD SWAP1 POP PUSH2 0x1975 PUSH0 DUP4 ADD DUP5 PUSH2 0x1953 JUMP JUMPDEST SWAP3 SWAP2 POP POP JUMP JUMPDEST PUSH0 PUSH20 0xFFFFFFFFFFFFFFFFFFFFFFFFFFFFFFFFFFFFFFFF DUP3 AND SWAP1 POP SWAP2 SWAP1 POP JUMP JUMPDEST PUSH0 PUSH2 0x19A4 DUP3 PUSH2 0x197B JUMP JUMPDEST SWAP1 POP SWAP2 SWAP1 POP JUMP JUMPDEST PUSH2 0x19B4 DUP2 PUSH2 0x199A JUMP JUMPDEST DUP3 MSTORE POP POP JUMP JUMPDEST PUSH0 PUSH1 0x20 DUP3 ADD SWAP1 POP PUSH2 0x19CD PUSH0 DUP4 ADD DUP5 PUSH2 0x19AB JUMP JUMPDEST SWAP3 SWAP2 POP POP JUMP JUMPDEST PUSH0 PUSH2 0x19DD DUP3 PUSH2 0x197B JUMP JUMPDEST SWAP1 POP SWAP2 SWAP1 POP JUMP JUMPDEST PUSH2 0x19ED DUP2 PUSH2 0x19D3 JUMP JUMPDEST DUP3 MSTORE POP POP JUMP JUMPDEST PUSH0 PUSH1 0x20 DUP3 ADD SWAP1 POP PUSH2 0x1A06 PUSH0 DUP4 ADD DUP5 PUSH2 0x19E4 JUMP JUMPDEST SWAP3 SWAP2 POP POP JUMP JUMPDEST PUSH0 PUSH0 REVERT JUMPDEST PUSH2 0x1A19 DUP2 PUSH2 0x194A JUMP JUMPDEST DUP2 EQ PUSH2 0x1A23 JUMPI PUSH0 PUSH0 REVERT JUMPDEST POP JUMP JUMPDEST PUSH0 DUP2 CALLDATALOAD SWAP1 POP PUSH2 0x1A34 DUP2 PUSH2 0x1A10 JUMP JUMPDEST SWAP3 SWAP2 POP POP JUMP JUMPDEST PUSH0 PUSH1 0x20 DUP3 DUP5 SUB SLT ISZERO PUSH2 0x1A4F JUMPI PUSH2 0x1A4E PUSH2 0x1A0C JUMP JUMPDEST JUMPDEST PUSH0 PUSH2 0x1A5C DUP5 DUP3 DUP6 ADD PUSH2 0x1A26 JUMP JUMPDEST SWAP2 POP POP SWAP3 SWAP2 POP POP JUMP JUMPDEST PUSH2 0x1A6E DUP2 PUSH2 0x19D3 JUMP JUMPDEST DUP2 EQ PUSH2 0x1A78 JUMPI PUSH0 PUSH0 REVERT JUMPDEST POP JUMP JUMPDEST PUSH0 DUP2 CALLDATALOAD SWAP1 POP PUSH2 0x1A89 DUP2 PUSH2 0x1A65 JUMP JUMPDEST SWAP3 SWAP2 POP POP JUMP JUMPDEST PUSH0 PUSH1 0x20 DUP3 DUP5 SUB SLT ISZERO PUSH2 0x1AA4 JUMPI PUSH2 0x1AA3 PUSH2 0x1A0C JUMP JUMPDEST JUMPDEST PUSH0 PUSH2 0x1AB1 DUP5 DUP3 DUP6 ADD PUSH2 0x1A7B JUMP JUMPDEST SWAP2 POP POP SWAP3 SWAP2 POP POP JUMP JUMPDEST PUSH0 PUSH2 0x140 DUP3 ADD SWAP1 POP DUP2 DUP2 SUB PUSH0 DUP4 ADD MSTORE PUSH2 0x1AD3 DUP2 DUP14 PUSH2 0x18BF JUMP JUMPDEST SWAP1 POP DUP2 DUP2 SUB PUSH1 0x20 DUP4 ADD MSTORE PUSH2 0x1AE7 DUP2 DUP13 PUSH2 0x18BF JUMP JUMPDEST SWAP1 POP PUSH2 0x1AF6 PUSH1 0x40 DUP4 ADD DUP12 PUSH2 0x19E4 JUMP JUMPDEST PUSH2 0x1B03 PUSH1 0x60 DUP4 ADD DUP11 PUSH2 0x1953 JUMP JUMPDEST PUSH2 0x1B10 PUSH1 0x80 DUP4 ADD DUP10 PUSH2 0x1953 JUMP JUMPDEST PUSH2 0x1B1D PUSH1 0xA0 DUP4 ADD DUP9 PUSH2 0x1953 JUMP JUMPDEST PUSH2 0x1B2A PUSH1 0xC0 DUP4 ADD DUP8 PUSH2 0x19E4 JUMP JUMPDEST PUSH2 0x1B37 PUSH1 0xE0 DUP4 ADD DUP7 PUSH2 0x1922 JUMP JUMPDEST PUSH2 0x1B45 PUSH2 0x100 DUP4 ADD DUP6 PUSH2 0x1922 JUMP JUMPDEST PUSH2 0x1B53 PUSH2 0x120 DUP4 ADD DUP5 PUSH2 0x1922 JUMP JUMPDEST SWAP12 SWAP11 POP POP POP POP POP POP POP POP POP POP POP JUMP JUMPDEST PUSH0 DUP2 SWAP1 POP SWAP2 SWAP1 POP JUMP JUMPDEST PUSH0 PUSH2 0x1B85 PUSH2 0x1B80 PUSH2 0x1B7B DUP5 PUSH2 0x197B JUMP JUMPDEST PUSH2 0x1B62 JUMP JUMPDEST PUSH2 0x197B JUMP JUMPDEST SWAP1 POP SWAP2 SWAP1 POP JUMP JUMPDEST PUSH0 PUSH2 0x1B96 DUP3 PUSH2 0x1B6B JUMP JUMPDEST SWAP1 POP SWAP2 SWAP1 POP JUMP JUMPDEST PUSH0 PUSH2 0x1BA7 DUP3 PUSH2 0x1B8C JUMP JUMPDEST SWAP1 POP SWAP2 SWAP1 POP JUMP JUMPDEST PUSH2 0x1BB7 DUP2 PUSH2 0x1B9D JUMP JUMPDEST DUP3 MSTORE POP POP JUMP JUMPDEST PUSH0 PUSH1 0x20 DUP3 ADD SWAP1 POP PUSH2 0x1BD0 PUSH0 DUP4 ADD DUP5 PUSH2 0x1BAE JUMP JUMPDEST SWAP3 SWAP2 POP POP JUMP JUMPDEST PUSH32 0x4E487B7100000000000000000000000000000000000000000000000000000000 PUSH0 MSTORE PUSH1 0x22 PUSH1 0x4 MSTORE PUSH1 0x24 PUSH0 REVERT JUMPDEST PUSH0 PUSH1 0x2 DUP3 DIV SWAP1 POP PUSH1 0x1 DUP3 AND DUP1 PUSH2 0x1C1A JUMPI PUSH1 0x7F DUP3 AND SWAP2 POP JUMPDEST PUSH1 0x20 DUP3 LT DUP2 SUB PUSH2 0x1C2D JUMPI PUSH2 0x1C2C PUSH2 0x1BD6 JUMP JUMPDEST JUMPDEST POP SWAP2 SWAP1 POP JUMP JUMPDEST PUSH32 0x41756374696F6E206E6F7420656E646564000000000000000000000000000000 PUSH0 DUP3 ADD MSTORE POP JUMP JUMPDEST PUSH0 PUSH2 0x1C67 PUSH1 0x11 DUP4 PUSH2 0x1891 JUMP JUMPDEST SWAP2 POP PUSH2 0x1C72 DUP3 PUSH2 0x1C33 JUMP JUMPDEST PUSH1 0x20 DUP3 ADD SWAP1 POP SWAP2 SWAP1 POP JUMP JUMPDEST PUSH0 PUSH1 0x20 DUP3 ADD SWAP1 POP DUP2 DUP2 SUB PUSH0 DUP4 ADD MSTORE PUSH2 0x1C94 DUP2 PUSH2 0x1C5B JUMP JUMPDEST SWAP1 POP SWAP2 SWAP1 POP JUMP JUMPDEST PUSH32 0x4E6F7468696E6720746F20776974686472617700000000000000000000000000 PUSH0 DUP3 ADD MSTORE POP JUMP JUMPDEST PUSH0 PUSH2 0x1CCF PUSH1 0x13 DUP4 PUSH2 0x1891 JUMP JUMPDEST SWAP2 POP PUSH2 0x1CDA DUP3 PUSH2 0x1C9B JUMP JUMPDEST PUSH1 0x20 DUP3 ADD SWAP1 POP SWAP2 SWAP1 POP JUMP JUMPDEST PUSH0 PUSH1 0x20 DUP3 ADD SWAP1 POP DUP2 DUP2 SUB PUSH0 DUP4 ADD MSTORE PUSH2 0x1CFC DUP2 PUSH2 0x1CC3 JUMP JUMPDEST SWAP1 POP SWAP2 SWAP1 POP JUMP JUMPDEST PUSH0 PUSH1 0x40 DUP3 ADD SWAP1 POP PUSH2 0x1D16 PUSH0 DUP4 ADD DUP6 PUSH2 0x19E4 JUMP JUMPDEST PUSH2 0x1D23 PUSH1 0x20 DUP4 ADD DUP5 PUSH2 0x1953 JUMP JUMPDEST SWAP4 SWAP3 POP POP POP JUMP JUMPDEST PUSH2 0x1D33 DUP2 PUSH2 0x1917 JUMP JUMPDEST DUP2 EQ PUSH2 0x1D3D JUMPI PUSH0 PUSH0 REVERT JUMPDEST POP JUMP JUMPDEST PUSH0 DUP2 MLOAD SWAP1 POP PUSH2 0x1D4E DUP2 PUSH2 0x1D2A JUMP JUMPDEST SWAP3 SWAP2 POP POP JUMP JUMPDEST PUSH0 PUSH1 0x20 DUP3 DUP5 SUB SLT ISZERO PUSH2 0x1D69 JUMPI PUSH2 0x1D68 PUSH2 0x1A0C JUMP JUMPDEST JUMPDEST PUSH0 PUSH2 0x1D76 DUP5 DUP3 DUP6 ADD PUSH2 0x1D40 JUMP JUMPDEST SWAP2 POP POP SWAP3 SWAP2 POP POP JUMP JUMPDEST PUSH32 0x5769746864726177616C207472616E73666572206661696C6564000000000000 PUSH0 DUP3 ADD MSTORE POP JUMP JUMPDEST PUSH0 PUSH2 0x1DB3 PUSH1 0x1A DUP4 PUSH2 0x1891 JUMP JUMPDEST SWAP2 POP PUSH2 0x1DBE DUP3 PUSH2 0x1D7F JUMP JUMPDEST PUSH1 0x20 DUP3 ADD SWAP1 POP SWAP2 SWAP1 POP JUMP JUMPDEST PUSH0 PUSH1 0x20 DUP3 ADD SWAP1 POP DUP2 DUP2 SUB PUSH0 DUP4 ADD MSTORE PUSH2 0x1DE0 DUP2 PUSH2 0x1DA7 JUMP JUMPDEST SWAP1 POP SWAP2 SWAP1 POP JUMP JUMPDEST PUSH0 DUP2 MLOAD SWAP1 POP PUSH2 0x1DF5 DUP2 PUSH2 0x1A10 JUMP JUMPDEST SWAP3 SWAP2 POP POP JUMP JUMPDEST PUSH0 PUSH1 0x20 DUP3 DUP5 SUB SLT ISZERO PUSH2 0x1E10 JUMPI PUSH2 0x1E0F PUSH2 0x1A0C JUMP JUMPDEST JUMPDEST PUSH0 PUSH2 0x1E1D DUP5 DUP3 DUP6 ADD PUSH2 0x1DE7 JUMP JUMPDEST SWAP2 POP POP SWAP3 SWAP2 POP POP JUMP JUMPDEST PUSH32 0x4E6F74206F776E65720000000000000000000000000000000000000000000000 PUSH0 DUP3 ADD MSTORE POP JUMP JUMPDEST PUSH0 PUSH2 0x1E5A PUSH1 0x9 DUP4 PUSH2 0x1891 JUMP JUMPDEST SWAP2 POP PUSH2 0x1E65 DUP3 PUSH2 0x1E26 JUMP JUMPDEST PUSH1 0x20 DUP3 ADD SWAP1 POP SWAP2 SWAP1 POP JUMP JUMPDEST PUSH0 PUSH1 0x20 DUP3 ADD SWAP1 POP DUP2 DUP2 SUB PUSH0 DUP4 ADD MSTORE PUSH2 0x1E87 DUP2 PUSH2 0x1E4E JUMP JUMPDEST SWAP1 POP SWAP2 SWAP1 POP JUMP JUMPDEST PUSH32 0x416C72656164792063616E63656C656400000000000000000000000000000000 PUSH0 DUP3 ADD MSTORE POP JUMP JUMPDEST PUSH0 PUSH2 0x1EC2 PUSH1 0x10 DUP4 PUSH2 0x1891 JUMP JUMPDEST SWAP2 POP PUSH2 0x1ECD DUP3 PUSH2 0x1E8E JUMP JUMPDEST PUSH1 0x20 DUP3 ADD SWAP1 POP SWAP2 SWAP1 POP JUMP JUMPDEST PUSH0 PUSH1 0x20 DUP3 ADD SWAP1 POP DUP2 DUP2 SUB PUSH0 DUP4 ADD MSTORE PUSH2 0x1EEF DUP2 PUSH2 0x1EB6 JUMP JUMPDEST SWAP1 POP SWAP2 SWAP1 POP JUMP JUMPDEST PUSH32 0x416C726561647920656E64656400000000000000000000000000000000000000 PUSH0 DUP3 ADD MSTORE POP JUMP JUMPDEST PUSH0 PUSH2 0x1F2A PUSH1 0xD DUP4 PUSH2 0x1891 JUMP JUMPDEST SWAP2 POP PUSH2 0x1F35 DUP3 PUSH2 0x1EF6 JUMP JUMPDEST PUSH1 0x20 DUP3 ADD SWAP1 POP SWAP2 SWAP1 POP JUMP JUMPDEST PUSH0 PUSH1 0x20 DUP3 ADD SWAP1 POP DUP2 DUP2 SUB PUSH0 DUP4 ADD MSTORE PUSH2 0x1F57 DUP2 PUSH2 0x1F1E JUMP JUMPDEST SWAP1 POP SWAP2 SWAP1 POP JUMP JUMPDEST PUSH32 0x526566756E64207472616E73666572206661696C656400000000000000000000 PUSH0 DUP3 ADD MSTORE POP JUMP JUMPDEST PUSH0 PUSH2 0x1F92 PUSH1 0x16 DUP4 PUSH2 0x1891 JUMP JUMPDEST SWAP2 POP PUSH2 0x1F9D DUP3 PUSH2 0x1F5E JUMP JUMPDEST PUSH1 0x20 DUP3 ADD SWAP1 POP SWAP2 SWAP1 POP JUMP JUMPDEST PUSH0 PUSH1 0x20 DUP3 ADD SWAP1 POP DUP2 DUP2 SUB PUSH0 DUP4 ADD MSTORE PUSH2 0x1FBF DUP2 PUSH2 0x1F86 JUMP JUMPDEST SWAP1 POP SWAP2 SWAP1 POP JUMP JUMPDEST PUSH32 0x4F776E65722063616E6E6F742062696400000000000000000000000000000000 PUSH0 DUP3 ADD MSTORE POP JUMP JUMPDEST PUSH0 PUSH2 0x1FFA PUSH1 0x10 DUP4 PUSH2 0x1891 JUMP JUMPDEST SWAP2 POP PUSH2 0x2005 DUP3 PUSH2 0x1FC6 JUMP JUMPDEST PUSH1 0x20 DUP3 ADD SWAP1 POP SWAP2 SWAP1 POP JUMP JUMPDEST PUSH0 PUSH1 0x20 DUP3 ADD SWAP1 POP DUP2 DUP2 SUB PUSH0 DUP4 ADD MSTORE PUSH2 0x2027 DUP2 PUSH2 0x1FEE JUMP JUMPDEST SWAP1 POP SWAP2 SWAP1 POP JUMP JUMPDEST PUSH32 0x41756374696F6E20656E646564206F722063616E63656C656400000000000000 PUSH0 DUP3 ADD MSTORE POP JUMP JUMPDEST PUSH0 PUSH2 0x2062 PUSH1 0x19 DUP4 PUSH2 0x1891 JUMP JUMPDEST SWAP2 POP PUSH2 0x206D DUP3 PUSH2 0x202E JUMP JUMPDEST PUSH1 0x20 DUP3 ADD SWAP1 POP SWAP2 SWAP1 POP JUMP JUMPDEST PUSH0 PUSH1 0x20 DUP3 ADD SWAP1 POP DUP2 DUP2 SUB PUSH0 DUP4 ADD MSTORE PUSH2 0x208F DUP2 PUSH2 0x2056 JUMP JUMPDEST SWAP1 POP SWAP2 SWAP1 POP JUMP JUMPDEST PUSH32 0x41756374696F6E206E6F74207374617274656400000000000000000000000000 PUSH0 DUP3 ADD MSTORE POP JUMP JUMPDEST PUSH0 PUSH2 0x20CA PUSH1 0x13 DUP4 PUSH2 0x1891 JUMP JUMPDEST SWAP2 POP PUSH2 0x20D5 DUP3 PUSH2 0x2096 JUMP JUMPDEST PUSH1 0x20 DUP3 ADD SWAP1 POP SWAP2 SWAP1 POP JUMP JUMPDEST PUSH0 PUSH1 0x20 DUP3 ADD SWAP1 POP DUP2 DUP2 SUB PUSH0 DUP4 ADD MSTORE PUSH2 0x20F7 DUP2 PUSH2 0x20BE JUMP JUMPDEST SWAP1 POP SWAP2 SWAP1 POP JUMP JUMPDEST PUSH32 0x41756374696F6E20656E64656400000000000000000000000000000000000000 PUSH0 DUP3 ADD MSTORE POP JUMP JUMPDEST PUSH0 PUSH2 0x2132 PUSH1 0xD DUP4 PUSH2 0x1891 JUMP JUMPDEST SWAP2 POP PUSH2 0x213D DUP3 PUSH2 0x20FE JUMP JUMPDEST PUSH1 0x20 DUP3 ADD SWAP1 POP SWAP2 SWAP1 POP JUMP JUMPDEST PUSH0 PUSH1 0x20 DUP3 ADD SWAP1 POP DUP2 DUP2 SUB PUSH0 DUP4 ADD MSTORE PUSH2 0x215F DUP2 PUSH2 0x2126 JUMP JUMPDEST SWAP1 POP SWAP2 SWAP1 POP JUMP JUMPDEST PUSH32 0x426964206D7573742062652067726561746572207468616E2030000000000000 PUSH0 DUP3 ADD MSTORE POP JUMP JUMPDEST PUSH0 PUSH2 0x219A PUSH1 0x1A DUP4 PUSH2 0x1891 JUMP JUMPDEST SWAP2 POP PUSH2 0x21A5 DUP3 PUSH2 0x2166 JUMP JUMPDEST PUSH1 0x20 DUP3 ADD SWAP1 POP SWAP2 SWAP1 POP JUMP JUMPDEST PUSH0 PUSH1 0x20 DUP3 ADD SWAP1 POP DUP2 DUP2 SUB PUSH0 DUP4 ADD MSTORE PUSH2 0x21C7 DUP2 PUSH2 0x218E JUMP JUMPDEST SWAP1 POP SWAP2 SWAP1 POP JUMP JUMPDEST PUSH32 0x496E73756666696369656E7420746F6B656E2062616C616E6365000000000000 PUSH0 DUP3 ADD MSTORE POP JUMP JUMPDEST PUSH0 PUSH2 0x2202 PUSH1 0x1A DUP4 PUSH2 0x1891 JUMP JUMPDEST SWAP2 POP PUSH2 0x220D DUP3 PUSH2 0x21CE JUMP JUMPDEST PUSH1 0x20 DUP3 ADD SWAP1 POP SWAP2 SWAP1 POP JUMP JUMPDEST PUSH0 PUSH1 0x20 DUP3 ADD SWAP1 POP DUP2 DUP2 SUB PUSH0 DUP4 ADD MSTORE PUSH2 0x222F DUP2 PUSH2 0x21F6 JUMP JUMPDEST SWAP1 POP SWAP2 SWAP1 POP JUMP JUMPDEST PUSH32 0x4E487B7100000000000000000000000000000000000000000000000000000000 PUSH0 MSTORE PUSH1 0x11 PUSH1 0x4 MSTORE PUSH1 0x24 PUSH0 REVERT JUMPDEST PUSH0 PUSH2 0x226D DUP3 PUSH2 0x194A JUMP JUMPDEST SWAP2 POP PUSH2 0x2278 DUP4 PUSH2 0x194A JUMP JUMPDEST SWAP3 POP DUP3 DUP3 ADD SWAP1 POP DUP1 DUP3 GT ISZERO PUSH2 0x2290 JUMPI PUSH2 0x228F PUSH2 0x2236 JUMP JUMPDEST JUMPDEST SWAP3 SWAP2 POP POP JUMP JUMPDEST PUSH32 0x42696420697320746F6F206C6F77000000000000000000000000000000000000 PUSH0 DUP3 ADD MSTORE POP JUMP JUMPDEST PUSH0 PUSH2 0x22CA PUSH1 0xE DUP4 PUSH2 0x1891 JUMP JUMPDEST SWAP2 POP PUSH2 0x22D5 DUP3 PUSH2 0x2296 JUMP JUMPDEST PUSH1 0x20 DUP3 ADD SWAP1 POP SWAP2 SWAP1 POP JUMP JUMPDEST PUSH0 PUSH1 0x20 DUP3 ADD SWAP1 POP DUP2 DUP2 SUB PUSH0 DUP4 ADD MSTORE PUSH2 0x22F7 DUP2 PUSH2 0x22BE JUMP JUMPDEST SWAP1 POP SWAP2 SWAP1 POP JUMP JUMPDEST PUSH0 PUSH1 0x60 DUP3 ADD SWAP1 POP PUSH2 0x2311 PUSH0 DUP4 ADD DUP7 PUSH2 0x19E4 JUMP JUMPDEST PUSH2 0x231E PUSH1 0x20 DUP4 ADD DUP6 PUSH2 0x19E4 JUMP JUMPDEST PUSH2 0x232B PUSH1 0x40 DUP4 ADD DUP5 PUSH2 0x1953 JUMP JUMPDEST SWAP5 SWAP4 POP POP POP POP JUMP JUMPDEST PUSH32 0x546F6B656E207472616E73666572206661696C65640000000000000000000000 PUSH0 DUP3 ADD MSTORE POP JUMP JUMPDEST PUSH0 PUSH2 0x2367 PUSH1 0x15 DUP4 PUSH2 0x1891 JUMP JUMPDEST SWAP2 POP PUSH2 0x2372 DUP3 PUSH2 0x2333 JUMP JUMPDEST PUSH1 0x20 DUP3 ADD SWAP1 POP SWAP2 SWAP1 POP JUMP JUMPDEST PUSH0 PUSH1 0x20 DUP3 ADD SWAP1 POP DUP2 DUP2 SUB PUSH0 DUP4 ADD MSTORE PUSH2 0x2394 DUP2 PUSH2 0x235B JUMP JUMPDEST SWAP1 POP SWAP2 SWAP1 POP JUMP JUMPDEST PUSH0 PUSH2 0x23A5 DUP3 PUSH2 0x1B8C JUMP JUMPDEST SWAP1 POP SWAP2 SWAP1 POP JUMP JUMPDEST PUSH2 0x23B5 DUP2 PUSH2 0x239B JUMP JUMPDEST DUP3 MSTORE POP POP JUMP JUMPDEST PUSH0 PUSH1 0x40 DUP3 ADD SWAP1 POP PUSH2 0x23CE PUSH0 DUP4 ADD DUP6 PUSH2 0x23AC JUMP JUMPDEST PUSH2 0x23DB PUSH1 0x20 DUP4 ADD DUP5 PUSH2 0x1953 JUMP JUMPDEST SWAP4 SWAP3 POP POP POP JUMP JUMPDEST PUSH32 0x5061796D656E74207472616E73666572206661696C6564000000000000000000 PUSH0 DUP3 ADD MSTORE POP JUMP JUMPDEST PUSH0 PUSH2 0x2416 PUSH1 0x17 DUP4 PUSH2 0x1891 JUMP JUMPDEST SWAP2 POP PUSH2 0x2421 DUP3 PUSH2 0x23E2 JUMP JUMPDEST PUSH1 0x20 DUP3 ADD SWAP1 POP SWAP2 SWAP1 POP JUMP JUMPDEST PUSH0 PUSH1 0x20 DUP3 ADD SWAP1 POP DUP2 DUP2 SUB PUSH0 DUP4 ADD MSTORE PUSH2 0x2443 DUP2 PUSH2 0x240A JUMP JUMPDEST SWAP1 POP SWAP2 SWAP1 POP JUMP JUMPDEST PUSH0 PUSH2 0x2454 DUP3 PUSH2 0x194A JUMP JUMPDEST SWAP2 POP PUSH2 0x245F DUP4 PUSH2 0x194A JUMP JUMPDEST SWAP3 POP DUP3 DUP3 SUB SWAP1 POP DUP2 DUP2 GT ISZERO PUSH2 0x2477 JUMPI PUSH2 0x2476 PUSH2 0x2236 JUMP JUMPDEST JUMPDEST SWAP3 SWAP2 POP POP JUMP INVALID LOG2 PUSH5 0x6970667358 0x22 SLT KECCAK256 PUSH30 0xEDB36EB6690344600D13DD35724B4927BB3FE10BAFEEF1CF1D869A14B72 SWAPN 0x64 PUSH20 0x6F6C634300081E00330000000000000000000000 "
				},
				"gasEstimates": {
					"creation": {
						"codeDepositCost": "1879000",
						"executionCost": "infinite",
						"totalCost": "infinite"
					},
					"external": {
						"cancelAuction()": "infinite",
						"canceled()": "2578",
						"description()": "infinite",
						"end()": "2469",
						"ended()": "2563",
						"finalizeAuction()": "infinite",
						"getAuctionInfo()": "infinite",
						"getBid(address)": "2896",
						"getTokenBalance()": "infinite",
						"highestBid()": "2536",
						"highestBidder()": "2619",
						"highestBindingBid()": "2491",
						"increment()": "2514",
						"isActive()": "9021",
						"name()": "infinite",
						"owner()": "2574",
						"placeBid(uint256)": "infinite",
						"start()": "2470",
						"token()": "infinite",
						"withdraw()": "infinite"
					}
				},
				"methodIdentifiers": {
					"cancelAuction()": "8fa8b790",
					"canceled()": "3f9942ff",
					"description()": "7284e416",
					"end()": "efbe1c1c",
					"ended()": "12fa6feb",
					"finalizeAuction()": "f77282ab",
					"getAuctionInfo()": "d94a3505",
					"getBid(address)": "c8b342ab",
					"getTokenBalance()": "82b2e257",
					"highestBid()": "d57bde79",
					"highestBidder()": "91f90157",
					"highestBindingBid()": "f5b56c56",
					"increment()": "d09de08a",
					"isActive()": "22f3e2d4",
					"name()": "06fdde03",
					"owner()": "8da5cb5b",
					"placeBid(uint256)": "9979ef45",
					"start()": "be9a6555",
					"token()": "fc0c546a",
					"withdraw()": "3ccfd60b"
				}
			},
			"storageLayout": {
				"storage": [
					{
						"astId": 4,
						"contract": "contracts/project/Auction.sol:TokenAuction",
						"label": "owner",
						"offset": 0,
						"slot": "0",
						"type": "t_address_payable"
					},
					{
						"astId": 6,
						"contract": "contracts/project/Auction.sol:TokenAuction",
						"label": "name",
						"offset": 0,
						"slot": "1",
						"type": "t_string_storage"
					},
					{
						"astId": 8,
						"contract": "contracts/project/Auction.sol:TokenAuction",
						"label": "description",
						"offset": 0,
						"slot": "2",
						"type": "t_string_storage"
					},
					{
						"astId": 10,
						"contract": "contracts/project/Auction.sol:TokenAuction",
						"label": "start",
						"offset": 0,
						"slot": "3",
						"type": "t_uint256"
					},
					{
						"astId": 12,
						"contract": "contracts/project/Auction.sol:TokenAuction",
						"label": "end",
						"offset": 0,
						"slot": "4",
						"type": "t_uint256"
					},
					{
						"astId": 14,
						"contract": "contracts/project/Auction.sol:TokenAuction",
						"label": "canceled",
						"offset": 0,
						"slot": "5",
						"type": "t_bool"
					},
					{
						"astId": 16,
						"contract": "contracts/project/Auction.sol:TokenAuction",
						"label": "ended",
						"offset": 1,
						"slot": "5",
						"type": "t_bool"
					},
					{
						"astId": 19,
						"contract": "contracts/project/Auction.sol:TokenAuction",
						"label": "token",
						"offset": 2,
						"slot": "5",
						"type": "t_contract(Crypto)880"
					},
					{
						"astId": 23,
						"contract": "contracts/project/Auction.sol:TokenAuction",
						"label": "bids",
						"offset": 0,
						"slot": "6",
						"type": "t_mapping(t_address,t_uint256)"
					},
					{
						"astId": 25,
						"contract": "contracts/project/Auction.sol:TokenAuction",
						"label": "highestBidder",
						"offset": 0,
						"slot": "7",
						"type": "t_address"
					},
					{
						"astId": 27,
						"contract": "contracts/project/Auction.sol:TokenAuction",
						"label": "highestBid",
						"offset": 0,
						"slot": "8",
						"type": "t_uint256"
					},
					{
						"astId": 29,
						"contract": "contracts/project/Auction.sol:TokenAuction",
						"label": "highestBindingBid",
						"offset": 0,
						"slot": "9",
						"type": "t_uint256"
					},
					{
						"astId": 31,
						"contract": "contracts/project/Auction.sol:TokenAuction",
						"label": "increment",
						"offset": 0,
						"slot": "10",
						"type": "t_uint256"
					}
				],
				"types": {
					"t_address": {
						"encoding": "inplace",
						"label": "address",
						"numberOfBytes": "20"
					},
					"t_address_payable": {
						"encoding": "inplace",
						"label": "address payable",
						"numberOfBytes": "20"
					},
					"t_bool": {
						"encoding": "inplace",
						"label": "bool",
						"numberOfBytes": "1"
					},
					"t_contract(Crypto)880": {
						"encoding": "inplace",
						"label": "contract Crypto",
						"numberOfBytes": "20"
					},
					"t_mapping(t_address,t_uint256)": {
						"encoding": "mapping",
						"key": "t_address",
						"label": "mapping(address => uint256)",
						"numberOfBytes": "32",
						"value": "t_uint256"
					},
					"t_string_storage": {
						"encoding": "bytes",
						"label": "string",
						"numberOfBytes": "32"
					},
					"t_uint256": {
						"encoding": "inplace",
						"label": "uint256",
						"numberOfBytes": "32"
					}
				}
			},
			"userdoc": {
				"kind": "user",
				"methods": {},
				"version": 1
			}
		}
	}
}